{
  "_format": "hh-sol-artifact-1",
  "contractName": "FiatTokenV2test",
  "sourceName": "contracts/v2/FiatTokenV2test.sol",
  "abi": [
    {
      "anonymous": false,
      "inputs": [
        {
          "indexed": true,
          "internalType": "address",
          "name": "owner",
          "type": "address"
        },
        {
          "indexed": true,
          "internalType": "address",
          "name": "spender",
          "type": "address"
        },
        {
          "indexed": false,
          "internalType": "uint256",
          "name": "value",
          "type": "uint256"
        }
      ],
      "name": "Approval",
      "type": "event"
    },
    {
      "anonymous": false,
      "inputs": [
        {
          "indexed": true,
          "internalType": "address",
          "name": "authorizer",
          "type": "address"
        },
        {
          "indexed": true,
          "internalType": "bytes32",
          "name": "nonce",
          "type": "bytes32"
        }
      ],
      "name": "AuthorizationCanceled",
      "type": "event"
    },
    {
      "anonymous": false,
      "inputs": [
        {
          "indexed": true,
          "internalType": "address",
          "name": "authorizer",
          "type": "address"
        },
        {
          "indexed": true,
          "internalType": "bytes32",
          "name": "nonce",
          "type": "bytes32"
        }
      ],
      "name": "AuthorizationUsed",
      "type": "event"
    },
    {
      "anonymous": false,
      "inputs": [
        {
          "indexed": true,
          "internalType": "address",
          "name": "_account",
          "type": "address"
        }
      ],
      "name": "Blocklisted",
      "type": "event"
    },
    {
      "anonymous": false,
      "inputs": [
        {
          "indexed": true,
          "internalType": "address",
          "name": "newBlocklister",
          "type": "address"
        }
      ],
      "name": "BlocklisterChanged",
      "type": "event"
    },
    {
      "anonymous": false,
      "inputs": [
        {
          "indexed": true,
          "internalType": "address",
          "name": "burner",
          "type": "address"
        },
        {
          "indexed": false,
          "internalType": "uint256",
          "name": "amount",
          "type": "uint256"
        }
      ],
      "name": "Burn",
      "type": "event"
    },
    {
      "anonymous": false,
      "inputs": [
        {
          "indexed": true,
          "internalType": "address",
          "name": "newMasterMinter",
          "type": "address"
        }
      ],
      "name": "MasterMinterChanged",
      "type": "event"
    },
    {
      "anonymous": false,
      "inputs": [
        {
          "indexed": true,
          "internalType": "address",
          "name": "minter",
          "type": "address"
        },
        {
          "indexed": true,
          "internalType": "address",
          "name": "to",
          "type": "address"
        },
        {
          "indexed": false,
          "internalType": "uint256",
          "name": "amount",
          "type": "uint256"
        }
      ],
      "name": "Mint",
      "type": "event"
    },
    {
      "anonymous": false,
      "inputs": [
        {
          "indexed": true,
          "internalType": "address",
          "name": "minter",
          "type": "address"
        },
        {
          "indexed": false,
          "internalType": "uint256",
          "name": "minterAllowedAmount",
          "type": "uint256"
        }
      ],
      "name": "MinterConfigured",
      "type": "event"
    },
    {
      "anonymous": false,
      "inputs": [
        {
          "indexed": true,
          "internalType": "address",
          "name": "oldMinter",
          "type": "address"
        }
      ],
      "name": "MinterRemoved",
      "type": "event"
    },
    {
      "anonymous": false,
      "inputs": [
        {
          "indexed": true,
          "internalType": "address",
          "name": "previousOwner",
          "type": "address"
        },
        {
          "indexed": true,
          "internalType": "address",
          "name": "newOwner",
          "type": "address"
        }
      ],
      "name": "OwnershipTransferred",
      "type": "event"
    },
    {
      "anonymous": false,
      "inputs": [],
      "name": "Pause",
      "type": "event"
    },
    {
      "anonymous": false,
      "inputs": [
        {
          "indexed": true,
          "internalType": "address",
          "name": "newAddress",
          "type": "address"
        }
      ],
      "name": "PauserChanged",
      "type": "event"
    },
    {
      "anonymous": false,
      "inputs": [
        {
          "indexed": true,
          "internalType": "address",
          "name": "newRescuer",
          "type": "address"
        }
      ],
      "name": "RescuerChanged",
      "type": "event"
    },
    {
      "anonymous": false,
      "inputs": [
        {
          "indexed": true,
          "internalType": "address",
          "name": "from",
          "type": "address"
        },
        {
          "indexed": true,
          "internalType": "address",
          "name": "to",
          "type": "address"
        },
        {
          "indexed": false,
          "internalType": "uint256",
          "name": "value",
          "type": "uint256"
        }
      ],
      "name": "Transfer",
      "type": "event"
    },
    {
      "anonymous": false,
      "inputs": [
        {
          "indexed": true,
          "internalType": "address",
          "name": "_account",
          "type": "address"
        }
      ],
      "name": "UnBlocklisted",
      "type": "event"
    },
    {
      "anonymous": false,
      "inputs": [],
      "name": "Unpause",
      "type": "event"
    },
    {
      "anonymous": false,
      "inputs": [
        {
          "indexed": true,
          "internalType": "address",
          "name": "implementation",
          "type": "address"
        }
      ],
      "name": "Upgraded",
      "type": "event"
    },
    {
      "inputs": [],
      "name": "CANCEL_AUTHORIZATION_TYPEHASH",
      "outputs": [
        {
          "internalType": "bytes32",
          "name": "",
          "type": "bytes32"
        }
      ],
      "stateMutability": "view",
      "type": "function"
    },
    {
      "inputs": [],
      "name": "PERMIT_TYPEHASH",
      "outputs": [
        {
          "internalType": "bytes32",
          "name": "",
          "type": "bytes32"
        }
      ],
      "stateMutability": "view",
      "type": "function"
    },
    {
      "inputs": [],
      "name": "RECEIVE_WITH_AUTHORIZATION_TYPEHASH",
      "outputs": [
        {
          "internalType": "bytes32",
          "name": "",
          "type": "bytes32"
        }
      ],
      "stateMutability": "view",
      "type": "function"
    },
    {
      "inputs": [],
      "name": "TRANSFER_WITH_AUTHORIZATION_TYPEHASH",
      "outputs": [
        {
          "internalType": "bytes32",
          "name": "",
          "type": "bytes32"
        }
      ],
      "stateMutability": "view",
      "type": "function"
    },
    {
      "inputs": [],
      "name": "_domainSeparatorV4",
      "outputs": [
        {
          "internalType": "bytes32",
          "name": "",
          "type": "bytes32"
        }
      ],
      "stateMutability": "view",
      "type": "function"
    },
    {
      "inputs": [
        {
          "internalType": "address",
          "name": "owner",
          "type": "address"
        },
        {
          "internalType": "address",
          "name": "spender",
          "type": "address"
        }
      ],
      "name": "allowance",
      "outputs": [
        {
          "internalType": "uint256",
          "name": "",
          "type": "uint256"
        }
      ],
      "stateMutability": "view",
      "type": "function"
    },
    {
      "inputs": [
        {
          "internalType": "address",
          "name": "spender",
          "type": "address"
        },
        {
          "internalType": "uint256",
          "name": "value",
          "type": "uint256"
        }
      ],
      "name": "approve",
      "outputs": [
        {
          "internalType": "bool",
          "name": "",
          "type": "bool"
        }
      ],
      "stateMutability": "nonpayable",
      "type": "function"
    },
    {
      "inputs": [
        {
          "internalType": "address",
          "name": "authorizer",
          "type": "address"
        },
        {
          "internalType": "bytes32",
          "name": "nonce",
          "type": "bytes32"
        }
      ],
      "name": "authorizationState",
      "outputs": [
        {
          "internalType": "bool",
          "name": "",
          "type": "bool"
        }
      ],
      "stateMutability": "view",
      "type": "function"
    },
    {
      "inputs": [
        {
          "internalType": "address",
          "name": "account",
          "type": "address"
        }
      ],
      "name": "balanceOf",
      "outputs": [
        {
          "internalType": "uint256",
          "name": "",
          "type": "uint256"
        }
      ],
      "stateMutability": "view",
      "type": "function"
    },
    {
      "inputs": [
        {
          "internalType": "address",
          "name": "_account",
          "type": "address"
        }
      ],
      "name": "blocklist",
      "outputs": [],
      "stateMutability": "nonpayable",
      "type": "function"
    },
    {
      "inputs": [],
      "name": "blocklister",
      "outputs": [
        {
          "internalType": "address",
          "name": "",
          "type": "address"
        }
      ],
      "stateMutability": "view",
      "type": "function"
    },
    {
      "inputs": [
        {
          "internalType": "uint256",
          "name": "_amount",
          "type": "uint256"
        }
      ],
      "name": "burn",
      "outputs": [],
      "stateMutability": "nonpayable",
      "type": "function"
    },
    {
      "inputs": [
        {
          "internalType": "address",
          "name": "authorizer",
          "type": "address"
        },
        {
          "internalType": "bytes32",
          "name": "nonce",
          "type": "bytes32"
        },
        {
          "internalType": "uint8",
          "name": "v",
          "type": "uint8"
        },
        {
          "internalType": "bytes32",
          "name": "r",
          "type": "bytes32"
        },
        {
          "internalType": "bytes32",
          "name": "s",
          "type": "bytes32"
        }
      ],
      "name": "cancelAuthorization",
      "outputs": [],
      "stateMutability": "nonpayable",
      "type": "function"
    },
    {
      "inputs": [
        {
          "internalType": "address",
          "name": "minter",
          "type": "address"
        },
        {
          "internalType": "uint256",
          "name": "minterAllowedAmount",
          "type": "uint256"
        }
      ],
      "name": "configureMinter",
      "outputs": [
        {
          "internalType": "bool",
          "name": "",
          "type": "bool"
        }
      ],
      "stateMutability": "nonpayable",
      "type": "function"
    },
    {
      "inputs": [],
      "name": "currency",
      "outputs": [
        {
          "internalType": "string",
          "name": "",
          "type": "string"
        }
      ],
      "stateMutability": "view",
      "type": "function"
    },
    {
      "inputs": [],
      "name": "decimals",
      "outputs": [
        {
          "internalType": "uint8",
          "name": "",
          "type": "uint8"
        }
      ],
      "stateMutability": "view",
      "type": "function"
    },
    {
      "inputs": [
        {
          "internalType": "address",
          "name": "spender",
          "type": "address"
        },
        {
          "internalType": "uint256",
          "name": "decrement",
          "type": "uint256"
        }
      ],
      "name": "decreaseAllowance",
      "outputs": [
        {
          "internalType": "bool",
          "name": "",
          "type": "bool"
        }
      ],
      "stateMutability": "nonpayable",
      "type": "function"
    },
    {
      "inputs": [
        {
          "internalType": "address",
          "name": "spender",
          "type": "address"
        },
        {
          "internalType": "uint256",
          "name": "increment",
          "type": "uint256"
        }
      ],
      "name": "increaseAllowance",
      "outputs": [
        {
          "internalType": "bool",
          "name": "",
          "type": "bool"
        }
      ],
      "stateMutability": "nonpayable",
      "type": "function"
    },
    {
      "inputs": [
        {
          "internalType": "string",
          "name": "tokenName",
          "type": "string"
        },
        {
          "internalType": "string",
          "name": "tokenSymbol",
          "type": "string"
        },
        {
          "internalType": "string",
          "name": "tokenCurrency",
          "type": "string"
        },
        {
          "internalType": "uint8",
          "name": "tokenDecimals",
          "type": "uint8"
        },
        {
          "internalType": "address",
          "name": "newMasterMinter",
          "type": "address"
        },
        {
          "internalType": "address",
          "name": "newPauser",
          "type": "address"
        },
        {
          "internalType": "address",
          "name": "newBlocklister",
          "type": "address"
        },
        {
          "internalType": "address",
          "name": "newOwner",
          "type": "address"
        }
      ],
      "name": "initialize",
      "outputs": [],
      "stateMutability": "nonpayable",
      "type": "function"
    },
    {
      "inputs": [
        {
          "internalType": "address",
          "name": "_account",
          "type": "address"
        }
      ],
      "name": "isBlocklisted",
      "outputs": [
        {
          "internalType": "bool",
          "name": "",
          "type": "bool"
        }
      ],
      "stateMutability": "view",
      "type": "function"
    },
    {
      "inputs": [
        {
          "internalType": "address",
          "name": "account",
          "type": "address"
        }
      ],
      "name": "isMinter",
      "outputs": [
        {
          "internalType": "bool",
          "name": "",
          "type": "bool"
        }
      ],
      "stateMutability": "view",
      "type": "function"
    },
    {
      "inputs": [],
      "name": "masterMinter",
      "outputs": [
        {
          "internalType": "address",
          "name": "",
          "type": "address"
        }
      ],
      "stateMutability": "view",
      "type": "function"
    },
    {
      "inputs": [
        {
          "internalType": "address",
          "name": "_to",
          "type": "address"
        },
        {
          "internalType": "uint256",
          "name": "_amount",
          "type": "uint256"
        }
      ],
      "name": "mint",
      "outputs": [
        {
          "internalType": "bool",
          "name": "",
          "type": "bool"
        }
      ],
      "stateMutability": "nonpayable",
      "type": "function"
    },
    {
      "inputs": [
        {
          "internalType": "address",
          "name": "minter",
          "type": "address"
        }
      ],
      "name": "minterAllowance",
      "outputs": [
        {
          "internalType": "uint256",
          "name": "",
          "type": "uint256"
        }
      ],
      "stateMutability": "view",
      "type": "function"
    },
    {
      "inputs": [],
      "name": "name",
      "outputs": [
        {
          "internalType": "string",
          "name": "",
          "type": "string"
        }
      ],
      "stateMutability": "view",
      "type": "function"
    },
    {
      "inputs": [],
      "name": "name2",
      "outputs": [
        {
          "internalType": "string",
          "name": "",
          "type": "string"
        }
      ],
      "stateMutability": "view",
      "type": "function"
    },
    {
      "inputs": [
        {
          "internalType": "address",
          "name": "owner",
          "type": "address"
        }
      ],
      "name": "nonces",
      "outputs": [
        {
          "internalType": "uint256",
          "name": "",
          "type": "uint256"
        }
      ],
      "stateMutability": "view",
      "type": "function"
    },
    {
      "inputs": [],
      "name": "owner",
      "outputs": [
        {
          "internalType": "address",
          "name": "",
          "type": "address"
        }
      ],
      "stateMutability": "view",
      "type": "function"
    },
    {
      "inputs": [],
      "name": "pause",
      "outputs": [],
      "stateMutability": "nonpayable",
      "type": "function"
    },
    {
      "inputs": [],
      "name": "paused",
      "outputs": [
        {
          "internalType": "bool",
          "name": "",
          "type": "bool"
        }
      ],
      "stateMutability": "view",
      "type": "function"
    },
    {
      "inputs": [],
      "name": "pauser",
      "outputs": [
        {
          "internalType": "address",
          "name": "",
          "type": "address"
        }
      ],
      "stateMutability": "view",
      "type": "function"
    },
    {
      "inputs": [
        {
          "internalType": "address",
          "name": "owner",
          "type": "address"
        },
        {
          "internalType": "address",
          "name": "spender",
          "type": "address"
        },
        {
          "internalType": "uint256",
          "name": "value",
          "type": "uint256"
        },
        {
          "internalType": "uint256",
          "name": "deadline",
          "type": "uint256"
        },
        {
          "internalType": "uint8",
          "name": "v",
          "type": "uint8"
        },
        {
          "internalType": "bytes32",
          "name": "r",
          "type": "bytes32"
        },
        {
          "internalType": "bytes32",
          "name": "s",
          "type": "bytes32"
        }
      ],
      "name": "permit",
      "outputs": [],
      "stateMutability": "nonpayable",
      "type": "function"
    },
    {
      "inputs": [],
      "name": "proxiableUUID",
      "outputs": [
        {
          "internalType": "bytes32",
          "name": "",
          "type": "bytes32"
        }
      ],
      "stateMutability": "view",
      "type": "function"
    },
    {
      "inputs": [
        {
          "internalType": "address",
          "name": "from",
          "type": "address"
        },
        {
          "internalType": "address",
          "name": "to",
          "type": "address"
        },
        {
          "internalType": "uint256",
          "name": "value",
          "type": "uint256"
        },
        {
          "internalType": "uint256",
          "name": "validAfter",
          "type": "uint256"
        },
        {
          "internalType": "uint256",
          "name": "validBefore",
          "type": "uint256"
        },
        {
          "internalType": "bytes32",
          "name": "nonce",
          "type": "bytes32"
        },
        {
          "internalType": "uint8",
          "name": "v",
          "type": "uint8"
        },
        {
          "internalType": "bytes32",
          "name": "r",
          "type": "bytes32"
        },
        {
          "internalType": "bytes32",
          "name": "s",
          "type": "bytes32"
        }
      ],
      "name": "receiveWithAuthorization",
      "outputs": [],
      "stateMutability": "nonpayable",
      "type": "function"
    },
    {
      "inputs": [
        {
          "internalType": "address",
          "name": "minter",
          "type": "address"
        }
      ],
      "name": "removeMinter",
      "outputs": [
        {
          "internalType": "bool",
          "name": "",
          "type": "bool"
        }
      ],
      "stateMutability": "nonpayable",
      "type": "function"
    },
    {
      "inputs": [
        {
          "internalType": "contract IERC20",
          "name": "tokenContract",
          "type": "address"
        },
        {
          "internalType": "address",
          "name": "to",
          "type": "address"
        },
        {
          "internalType": "uint256",
          "name": "amount",
          "type": "uint256"
        }
      ],
      "name": "rescueERC20",
      "outputs": [],
      "stateMutability": "nonpayable",
      "type": "function"
    },
    {
      "inputs": [],
      "name": "rescuer",
      "outputs": [
        {
          "internalType": "address",
          "name": "",
          "type": "address"
        }
      ],
      "stateMutability": "view",
      "type": "function"
    },
    {
      "inputs": [
        {
          "internalType": "string",
          "name": "_name",
          "type": "string"
        }
      ],
      "name": "setName2",
      "outputs": [],
      "stateMutability": "nonpayable",
      "type": "function"
    },
    {
      "inputs": [],
      "name": "symbol",
      "outputs": [
        {
          "internalType": "string",
          "name": "",
          "type": "string"
        }
      ],
      "stateMutability": "view",
      "type": "function"
    },
    {
      "inputs": [],
      "name": "totalSupply",
      "outputs": [
        {
          "internalType": "uint256",
          "name": "",
          "type": "uint256"
        }
      ],
      "stateMutability": "view",
      "type": "function"
    },
    {
      "inputs": [
        {
          "internalType": "address",
          "name": "to",
          "type": "address"
        },
        {
          "internalType": "uint256",
          "name": "value",
          "type": "uint256"
        }
      ],
      "name": "transfer",
      "outputs": [
        {
          "internalType": "bool",
          "name": "",
          "type": "bool"
        }
      ],
      "stateMutability": "nonpayable",
      "type": "function"
    },
    {
      "inputs": [
        {
          "internalType": "address",
          "name": "from",
          "type": "address"
        },
        {
          "internalType": "address",
          "name": "to",
          "type": "address"
        },
        {
          "internalType": "uint256",
          "name": "value",
          "type": "uint256"
        }
      ],
      "name": "transferFrom",
      "outputs": [
        {
          "internalType": "bool",
          "name": "",
          "type": "bool"
        }
      ],
      "stateMutability": "nonpayable",
      "type": "function"
    },
    {
      "inputs": [
        {
          "internalType": "address",
          "name": "newOwner",
          "type": "address"
        }
      ],
      "name": "transferOwnership",
      "outputs": [],
      "stateMutability": "nonpayable",
      "type": "function"
    },
    {
      "inputs": [
        {
          "internalType": "address",
          "name": "from",
          "type": "address"
        },
        {
          "internalType": "address",
          "name": "to",
          "type": "address"
        },
        {
          "internalType": "uint256",
          "name": "value",
          "type": "uint256"
        },
        {
          "internalType": "uint256",
          "name": "validAfter",
          "type": "uint256"
        },
        {
          "internalType": "uint256",
          "name": "validBefore",
          "type": "uint256"
        },
        {
          "internalType": "bytes32",
          "name": "nonce",
          "type": "bytes32"
        },
        {
          "internalType": "uint8",
          "name": "v",
          "type": "uint8"
        },
        {
          "internalType": "bytes32",
          "name": "r",
          "type": "bytes32"
        },
        {
          "internalType": "bytes32",
          "name": "s",
          "type": "bytes32"
        }
      ],
      "name": "transferWithAuthorization",
      "outputs": [],
      "stateMutability": "nonpayable",
      "type": "function"
    },
    {
      "inputs": [
        {
          "internalType": "address",
          "name": "_account",
          "type": "address"
        }
      ],
      "name": "unBlocklist",
      "outputs": [],
      "stateMutability": "nonpayable",
      "type": "function"
    },
    {
      "inputs": [],
      "name": "unpause",
      "outputs": [],
      "stateMutability": "nonpayable",
      "type": "function"
    },
    {
      "inputs": [
        {
          "internalType": "address",
          "name": "_newBlocklister",
          "type": "address"
        }
      ],
      "name": "updateBlocklister",
      "outputs": [],
      "stateMutability": "nonpayable",
      "type": "function"
    },
    {
      "inputs": [
        {
          "internalType": "address",
          "name": "_newMasterMinter",
          "type": "address"
        }
      ],
      "name": "updateMasterMinter",
      "outputs": [],
      "stateMutability": "nonpayable",
      "type": "function"
    },
    {
      "inputs": [
        {
          "internalType": "address",
          "name": "_newPauser",
          "type": "address"
        }
      ],
      "name": "updatePauser",
      "outputs": [],
      "stateMutability": "nonpayable",
      "type": "function"
    },
    {
      "inputs": [
        {
          "internalType": "address",
          "name": "newRescuer",
          "type": "address"
        }
      ],
      "name": "updateRescuer",
      "outputs": [],
      "stateMutability": "nonpayable",
      "type": "function"
    },
    {
      "inputs": [
        {
          "internalType": "address",
          "name": "newImplementation",
          "type": "address"
        }
      ],
      "name": "upgradeTo",
      "outputs": [],
      "stateMutability": "nonpayable",
      "type": "function"
    },
    {
      "inputs": [
        {
          "internalType": "address",
          "name": "newImplementation",
          "type": "address"
        },
        {
          "internalType": "bytes",
          "name": "data",
          "type": "bytes"
        }
      ],
      "name": "upgradeToAndCall",
      "outputs": [],
      "stateMutability": "payable",
      "type": "function"
    }
  ],
  "bytecode": "0x60a06040526065805460ff60a01b19169055306080526000610206553480156200002857600080fd5b5062000034336200003a565b6200008c565b603280546001600160a01b038381166001600160a01b0319831681179093556040519116919082907f8be0079c531659141344cd1fd0a4f28419497f9722a3daafe3b4186f6b6457e090600090a35050565b6080516151ba620000c460003960008181611761015281816117f7015281816123750152818161240b015261250601526151ba6000f3fe60806040526004361061033f5760003560e01c80637ecebe00116101b0578063aa271e1a116100ec578063e3ee160e11610095578063e94a01021161006f578063e94a010214610a19578063ef55bec614610a60578063f2fde38b14610a80578063f9b5aa9214610aa057600080fd5b8063e3ee160e146109c4578063e5a6b10f146109e4578063e5c7160b146109f957600080fd5b8063d505accf116100c6578063d505accf14610929578063d916948714610949578063dd62ed3e1461097d57600080fd5b8063aa271e1a146108af578063b2118a8d146108e9578063b54d94971461090957600080fd5b806395d89b4111610159578063a401291311610133578063a40129131461082f578063a457c2d71461084f578063a9059cbb1461086f578063aa20e1e41461088f57600080fd5b806395d89b41146107c65780639fd0506d146107db578063a0cc6a68146107fb57600080fd5b80638a6db9c31161018a5780638a6db9c3146107385780638da5cb5b1461076f5780638e204c431461078d57600080fd5b80637ecebe00146106b85780637f2eecc3146106ef5780638456cb591461072357600080fd5b8063395093511161027f5780634f1ef286116102285780635a049a70116102025780635a049a701461062b5780635c975abb1461064b57806370a082311461066c5780637b134b4c146106a357600080fd5b80634f1ef286146105e357806352d1902d146105f6578063554bab3c1461060b57600080fd5b806342966c681161025957806342966c681461058e5780634b67f6af146105ae5780634e44d956146105c357600080fd5b806339509351146105395780633f4ba83a1461055957806340c10f191461056e57600080fd5b806330adf81f116102ec5780633357162b116102c65780633357162b146104a257806335d99f35146104c25780633659cfe6146104fb57806338a631831461051b57600080fd5b806330adf81f14610421578063313ce5671461045557806331b230201461048257600080fd5b806323b872dd1161031d57806323b872dd146103bf5780632ab60045146103df5780633092afd51461040157600080fd5b806306fdde0314610344578063095ea7b31461036f57806318160ddd1461039f575b600080fd5b34801561035057600080fd5b50610359610ac0565b6040516103669190614b61565b60405180910390f35b34801561037b57600080fd5b5061038f61038a366004614bb4565b610b4f565b6040519015158152602001610366565b3480156103ab57600080fd5b50610206545b604051908152602001610366565b3480156103cb57600080fd5b5061038f6103da366004614be0565b610ca1565b3480156103eb57600080fd5b506103ff6103fa366004614c21565b610f59565b005b34801561040d57600080fd5b5061038f61041c366004614c21565b611086565b34801561042d57600080fd5b506103b17f6e71edae12b1b97f4d1f60370fef10105fa2faae0126114a169c64845d6126c981565b34801561046157600080fd5b50610201546104709060ff1681565b60405160ff9091168152602001610366565b34801561048e57600080fd5b506103ff61049d366004614c21565b611168565b3480156104ae57600080fd5b506103ff6104bd366004614d14565b611231565b3480156104ce57600080fd5b50610203546104e3906001600160a01b031681565b6040516001600160a01b039091168152602001610366565b34801561050757600080fd5b506103ff610516366004614c21565b611756565b34801561052757600080fd5b5060cc546001600160a01b03166104e3565b34801561054557600080fd5b5061038f610554366004614bb4565b6118f4565b34801561056557600080fd5b506103ff611a36565b34801561057a57600080fd5b5061038f610589366004614bb4565b611b09565b34801561059a57600080fd5b506103ff6105a9366004614df0565b611f3a565b3480156105ba57600080fd5b5061035961221f565b3480156105cf57600080fd5b5061038f6105de366004614bb4565b61222d565b6103ff6105f1366004614e09565b61236a565b34801561060257600080fd5b506103b16124f9565b34801561061757600080fd5b506103ff610626366004614c21565b6125be565b34801561063757600080fd5b506103ff610646366004614e6d565b6126eb565b34801561065757600080fd5b5060655461038f90600160a01b900460ff1681565b34801561067857600080fd5b506103b1610687366004614c21565b6001600160a01b03166000908152610204602052604090205490565b3480156106af57600080fd5b506103b161274c565b3480156106c457600080fd5b506103b16106d3366004614c21565b6001600160a01b03166000908152610168602052604090205490565b3480156106fb57600080fd5b506103b17fd099cc98ef71107a616c4f0f941f04c322d8e254fe26b3c6668db87aae413de881565b34801561072f57600080fd5b506103ff6128f2565b34801561074457600080fd5b506103b1610753366004614c21565b6001600160a01b03166000908152610208602052604090205490565b34801561077b57600080fd5b506032546001600160a01b03166104e3565b34801561079957600080fd5b5061038f6107a8366004614c21565b6001600160a01b031660009081526099602052604090205460ff1690565b3480156107d257600080fd5b506103596129cb565b3480156107e757600080fd5b506065546104e3906001600160a01b031681565b34801561080757600080fd5b506103b17f7c7c6cdb67a18743f49ec6fa9b35f50d52ed05cbed4cc592e13b44501c1a226781565b34801561083b57600080fd5b506103ff61084a366004614ebd565b6129d9565b34801561085b57600080fd5b5061038f61086a366004614bb4565b6129ed565b34801561087b57600080fd5b5061038f61088a366004614bb4565b612b2f565b34801561089b57600080fd5b506103ff6108aa366004614c21565b612c71565b3480156108bb57600080fd5b5061038f6108ca366004614c21565b6001600160a01b03166000908152610207602052604090205460ff1690565b3480156108f557600080fd5b506103ff610904366004614be0565b612d9f565b34801561091557600080fd5b506098546104e3906001600160a01b031681565b34801561093557600080fd5b506103ff610944366004614ef2565b612e37565b34801561095557600080fd5b506103b17f158b0a9edf7a828aad02f63cd515c68ef2f50ba807396f6d12842833a159742981565b34801561098957600080fd5b506103b1610998366004614f60565b6001600160a01b0391821660009081526102056020908152604080832093909416825291909152205490565b3480156109d057600080fd5b506103ff6109df366004614f99565b612f90565b3480156109f057600080fd5b506103596130ed565b348015610a0557600080fd5b506103ff610a14366004614c21565b6130fb565b348015610a2557600080fd5b5061038f610a34366004614bb4565b6001600160a01b0391909116600090815261013560209081526040808320938352929052205460ff1690565b348015610a6c57600080fd5b506103ff610a7b366004614f99565b6131c7565b348015610a8c57600080fd5b506103ff610a9b366004614c21565b613317565b348015610aac57600080fd5b506103ff610abb366004614c21565b6133f6565b6101ff8054610ace9061501b565b80601f0160208091040260200160405190810160405280929190818152602001828054610afa9061501b565b8015610b475780601f10610b1c57610100808354040283529160200191610b47565b820191906000526020600020905b815481529060010190602001808311610b2a57829003601f168201915b505050505081565b606554600090600160a01b900460ff1615610ba45760405162461bcd60e51b815260206004820152601060248201526f14185d5cd8589b194e881c185d5cd95960821b60448201526064015b60405180910390fd5b3360008181526099602052604090205460ff1615610c125760405162461bcd60e51b815260206004820152602560248201527f426c6f636b6c69737461626c653a206163636f756e7420697320626c6f636b6c6044820152641a5cdd195960da1b6064820152608401610b9b565b6001600160a01b038416600090815260996020526040902054849060ff1615610c8b5760405162461bcd60e51b815260206004820152602560248201527f426c6f636b6c69737461626c653a206163636f756e7420697320626c6f636b6c6044820152641a5cdd195960da1b6064820152608401610b9b565b610c96338686613523565b506001949350505050565b606554600090600160a01b900460ff1615610cf15760405162461bcd60e51b815260206004820152601060248201526f14185d5cd8589b194e881c185d5cd95960821b6044820152606401610b9b565b3360008181526099602052604090205460ff1615610d5f5760405162461bcd60e51b815260206004820152602560248201527f426c6f636b6c69737461626c653a206163636f756e7420697320626c6f636b6c6044820152641a5cdd195960da1b6064820152608401610b9b565b6001600160a01b038516600090815260996020526040902054859060ff1615610dd85760405162461bcd60e51b815260206004820152602560248201527f426c6f636b6c69737461626c653a206163636f756e7420697320626c6f636b6c6044820152641a5cdd195960da1b6064820152608401610b9b565b6001600160a01b038516600090815260996020526040902054859060ff1615610e515760405162461bcd60e51b815260206004820152602560248201527f426c6f636b6c69737461626c653a206163636f756e7420697320626c6f636b6c6044820152641a5cdd195960da1b6064820152608401610b9b565b6001600160a01b038716600090815261020560209081526040808320338452909152902054851115610eeb5760405162461bcd60e51b815260206004820152602860248201527f45524332303a207472616e7366657220616d6f756e742065786365656473206160448201527f6c6c6f77616e63650000000000000000000000000000000000000000000000006064820152608401610b9b565b610ef6878787613674565b6001600160a01b038716600090815261020560209081526040808320338452909152902054610f2690869061509e565b6001600160a01b038816600090815261020560209081526040808320338452909152902055600193505050509392505050565b6032546001600160a01b03163314610fb35760405162461bcd60e51b815260206004820181905260248201527f4f776e61626c653a2063616c6c6572206973206e6f7420746865206f776e65726044820152606401610b9b565b6001600160a01b03811661102f5760405162461bcd60e51b815260206004820152602a60248201527f526573637561626c653a206e6577207265736375657220697320746865207a6560448201527f726f2061646472657373000000000000000000000000000000000000000000006064820152608401610b9b565b60cc805473ffffffffffffffffffffffffffffffffffffffff19166001600160a01b0383169081179091556040517fe475e580d85111348e40d8ca33cfdd74c30fe1655c2d8537a13abc10065ffa5a90600090a250565b610203546000906001600160a01b0316331461110a5760405162461bcd60e51b815260206004820152602960248201527f46696174546f6b656e3a2063616c6c6572206973206e6f7420746865206d617360448201527f7465724d696e74657200000000000000000000000000000000000000000000006064820152608401610b9b565b6001600160a01b038216600081815261020760209081526040808320805460ff19169055610208909152808220829055517fe94479a9f7e1952cc78f2d6baab678adc1b772d936c6583def489e524cb666929190a25060015b919050565b6098546001600160a01b031633146111e85760405162461bcd60e51b815260206004820152602c60248201527f426c6f636b6c69737461626c653a2063616c6c6572206973206e6f742074686560448201527f20626c6f636b6c697374657200000000000000000000000000000000000000006064820152608401610b9b565b6001600160a01b038116600081815260996020526040808220805460ff19169055517fbc3fe0fc667d12a7a22748747f024a7d971127ffc48f6622675d3e97a2591a519190a250565b61020354600160a01b900460ff16156112b25760405162461bcd60e51b815260206004820152602a60248201527f46696174546f6b656e3a20636f6e747261637420697320616c7265616479206960448201527f6e697469616c697a6564000000000000000000000000000000000000000000006064820152608401610b9b565b6001600160a01b03841661132e5760405162461bcd60e51b815260206004820152602f60248201527f46696174546f6b656e3a206e6577206d61737465724d696e746572206973207460448201527f6865207a65726f206164647265737300000000000000000000000000000000006064820152608401610b9b565b6001600160a01b0383166113aa5760405162461bcd60e51b815260206004820152602960248201527f46696174546f6b656e3a206e65772070617573657220697320746865207a657260448201527f6f206164647265737300000000000000000000000000000000000000000000006064820152608401610b9b565b6001600160a01b0382166114265760405162461bcd60e51b815260206004820152602e60248201527f46696174546f6b656e3a206e657720626c6f636b6c697374657220697320746860448201527f65207a65726f20616464726573730000000000000000000000000000000000006064820152608401610b9b565b6001600160a01b0381166114a25760405162461bcd60e51b815260206004820152602860248201527f46696174546f6b656e3a206e6577206f776e657220697320746865207a65726f60448201527f20616464726573730000000000000000000000000000000000000000000000006064820152608401610b9b565b87516114b6906101ff9060208b0190614a21565b5086516114cb906102009060208a0190614a21565b5085516114e090610202906020890190614a21565b50610201805460ff191660ff8716179055610203805473ffffffffffffffffffffffffffffffffffffffff199081166001600160a01b038781169190911790925560658054821686841617905560988054909116918416919091179055611546816138a6565b306000908152609960205260409020805460ff191660011790556101ff80546116b091906115739061501b565b80601f016020809104026020016040519081016040528092919081815260200182805461159f9061501b565b80156115ec5780601f106115c1576101008083540402835291602001916115ec565b820191906000526020600020905b8154815290600101906020018083116115cf57829003601f168201915b5050604080518082018252600181527f310000000000000000000000000000000000000000000000000000000000000060209182015285519581019590952081517f8b73c3c69bb8fe3d512ecc4cf759cc79239f7b179b0ffacaa9a75d522b39400f81880152808301919091527fc89efdaa54c0f20c7adf612882df0950f5a951637e0307cdcb4c672f298b8bc660608201524660808201523060a0808301919091528251808303909101815260c090910190915280519401939093209392505050565b60ff5546610100556101ff805461010191906116cb9061501b565b6116d6929190614aa5565b506040805180820190915260018082527f3100000000000000000000000000000000000000000000000000000000000000602090920191825261171c9161010291614a21565b505061020380547fffffffffffffffffffffff00ffffffffffffffffffffffffffffffffffffffff16600160a01b17905550505050505050565b306001600160a01b037f00000000000000000000000000000000000000000000000000000000000000001614156117f55760405162461bcd60e51b815260206004820152602c60248201527f46756e6374696f6e206d7573742062652063616c6c6564207468726f7567682060448201527f64656c656761746563616c6c00000000000000000000000000000000000000006064820152608401610b9b565b7f00000000000000000000000000000000000000000000000000000000000000006001600160a01b03166118507f360894a13ba1a3210667c828492db98dca3e2076cc3735a920a3ca505d382bbc546001600160a01b031690565b6001600160a01b0316146118cc5760405162461bcd60e51b815260206004820152602c60248201527f46756e6374696f6e206d7573742062652063616c6c6564207468726f7567682060448201527f6163746976652070726f787900000000000000000000000000000000000000006064820152608401610b9b565b6118d581613905565b604080516000808252602082019092526118f19183919061395f565b50565b606554600090600160a01b900460ff16156119445760405162461bcd60e51b815260206004820152601060248201526f14185d5cd8589b194e881c185d5cd95960821b6044820152606401610b9b565b3360008181526099602052604090205460ff16156119b25760405162461bcd60e51b815260206004820152602560248201527f426c6f636b6c69737461626c653a206163636f756e7420697320626c6f636b6c6044820152641a5cdd195960da1b6064820152608401610b9b565b6001600160a01b038416600090815260996020526040902054849060ff1615611a2b5760405162461bcd60e51b815260206004820152602560248201527f426c6f636b6c69737461626c653a206163636f756e7420697320626c6f636b6c6044820152641a5cdd195960da1b6064820152608401610b9b565b610c96338686613aff565b6065546001600160a01b03163314611ab65760405162461bcd60e51b815260206004820152602260248201527f5061757361626c653a2063616c6c6572206973206e6f7420746865207061757360448201527f65720000000000000000000000000000000000000000000000000000000000006064820152608401610b9b565b606580547fffffffffffffffffffffff00ffffffffffffffffffffffffffffffffffffffff1690556040517f7805862f689e2f13df9f062ff482ad3ad112aca9e0847911ed832e158c525b3390600090a1565b606554600090600160a01b900460ff1615611b595760405162461bcd60e51b815260206004820152601060248201526f14185d5cd8589b194e881c185d5cd95960821b6044820152606401610b9b565b336000908152610207602052604090205460ff16611bdf5760405162461bcd60e51b815260206004820152602160248201527f46696174546f6b656e3a2063616c6c6572206973206e6f742061206d696e746560448201527f72000000000000000000000000000000000000000000000000000000000000006064820152608401610b9b565b3360008181526099602052604090205460ff1615611c4d5760405162461bcd60e51b815260206004820152602560248201527f426c6f636b6c69737461626c653a206163636f756e7420697320626c6f636b6c6044820152641a5cdd195960da1b6064820152608401610b9b565b6001600160a01b038416600090815260996020526040902054849060ff1615611cc65760405162461bcd60e51b815260206004820152602560248201527f426c6f636b6c69737461626c653a206163636f756e7420697320626c6f636b6c6044820152641a5cdd195960da1b6064820152608401610b9b565b6001600160a01b038516611d425760405162461bcd60e51b815260206004820152602360248201527f46696174546f6b656e3a206d696e7420746f20746865207a65726f206164647260448201527f65737300000000000000000000000000000000000000000000000000000000006064820152608401610b9b565b60008411611db85760405162461bcd60e51b815260206004820152602960248201527f46696174546f6b656e3a206d696e7420616d6f756e74206e6f7420677265617460448201527f6572207468616e203000000000000000000000000000000000000000000000006064820152608401610b9b565b336000908152610208602052604090205480851115611e3f5760405162461bcd60e51b815260206004820152602e60248201527f46696174546f6b656e3a206d696e7420616d6f756e742065786365656473206d60448201527f696e746572416c6c6f77616e63650000000000000000000000000000000000006064820152608401610b9b565b8461020654611e4e91906150b5565b610206556001600160a01b03861660009081526102046020526040902054611e779086906150b5565b6001600160a01b03871660009081526102046020526040902055611e9b858261509e565b336000818152610208602090815260409182902093909355518781526001600160a01b038916927fab8530f87dc9b59234c4623bf917212bb2536d647574c8e7e5da92c2ede0c9f8910160405180910390a36040518581526001600160a01b038716906000907fddf252ad1be2c89b69c2b068fc378daa952ba7f163c4a11628f55a4df523b3ef9060200160405180910390a350600195945050505050565b606554600160a01b900460ff1615611f875760405162461bcd60e51b815260206004820152601060248201526f14185d5cd8589b194e881c185d5cd95960821b6044820152606401610b9b565b336000908152610207602052604090205460ff1661200d5760405162461bcd60e51b815260206004820152602160248201527f46696174546f6b656e3a2063616c6c6572206973206e6f742061206d696e746560448201527f72000000000000000000000000000000000000000000000000000000000000006064820152608401610b9b565b3360008181526099602052604090205460ff161561207b5760405162461bcd60e51b815260206004820152602560248201527f426c6f636b6c69737461626c653a206163636f756e7420697320626c6f636b6c6044820152641a5cdd195960da1b6064820152608401610b9b565b3360009081526102046020526040902054826120ff5760405162461bcd60e51b815260206004820152602960248201527f46696174546f6b656e3a206275726e20616d6f756e74206e6f7420677265617460448201527f6572207468616e203000000000000000000000000000000000000000000000006064820152608401610b9b565b828110156121755760405162461bcd60e51b815260206004820152602660248201527f46696174546f6b656e3a206275726e20616d6f756e742065786365656473206260448201527f616c616e636500000000000000000000000000000000000000000000000000006064820152608401610b9b565b8261020654612184919061509e565b61020655612192838261509e565b3360008181526102046020526040908190209290925590517fcc16f5dbb4873280815c1ee09dbd06736cffcc184412cf7a71a0fdb75d397ca5906121d99086815260200190565b60405180910390a260405183815260009033907fddf252ad1be2c89b69c2b068fc378daa952ba7f163c4a11628f55a4df523b3ef906020015b60405180910390a3505050565b61023b8054610ace9061501b565b606554600090600160a01b900460ff161561227d5760405162461bcd60e51b815260206004820152601060248201526f14185d5cd8589b194e881c185d5cd95960821b6044820152606401610b9b565b610203546001600160a01b031633146122fe5760405162461bcd60e51b815260206004820152602960248201527f46696174546f6b656e3a2063616c6c6572206973206e6f7420746865206d617360448201527f7465724d696e74657200000000000000000000000000000000000000000000006064820152608401610b9b565b6001600160a01b038316600081815261020760209081526040808320805460ff1916600117905561020882529182902085905590518481527f46980fca912ef9bcdbd36877427b6b90e860769f604e89c0e67720cece530d20910160405180910390a250600192915050565b306001600160a01b037f00000000000000000000000000000000000000000000000000000000000000001614156124095760405162461bcd60e51b815260206004820152602c60248201527f46756e6374696f6e206d7573742062652063616c6c6564207468726f7567682060448201527f64656c656761746563616c6c00000000000000000000000000000000000000006064820152608401610b9b565b7f00000000000000000000000000000000000000000000000000000000000000006001600160a01b03166124647f360894a13ba1a3210667c828492db98dca3e2076cc3735a920a3ca505d382bbc546001600160a01b031690565b6001600160a01b0316146124e05760405162461bcd60e51b815260206004820152602c60248201527f46756e6374696f6e206d7573742062652063616c6c6564207468726f7567682060448201527f6163746976652070726f787900000000000000000000000000000000000000006064820152608401610b9b565b6124e982613905565b6124f58282600161395f565b5050565b6000306001600160a01b037f000000000000000000000000000000000000000000000000000000000000000016146125995760405162461bcd60e51b815260206004820152603860248201527f555550535570677261646561626c653a206d757374206e6f742062652063616c60448201527f6c6564207468726f7567682064656c656761746563616c6c00000000000000006064820152608401610b9b565b507f360894a13ba1a3210667c828492db98dca3e2076cc3735a920a3ca505d382bbc90565b6032546001600160a01b031633146126185760405162461bcd60e51b815260206004820181905260248201527f4f776e61626c653a2063616c6c6572206973206e6f7420746865206f776e65726044820152606401610b9b565b6001600160a01b0381166126945760405162461bcd60e51b815260206004820152602860248201527f5061757361626c653a206e65772070617573657220697320746865207a65726f60448201527f20616464726573730000000000000000000000000000000000000000000000006064820152608401610b9b565b6065805473ffffffffffffffffffffffffffffffffffffffff19166001600160a01b0383169081179091556040517fb80482a293ca2e013eda8683c9bd7fc8347cfdaeea5ede58cba46df502c2a60490600090a250565b606554600160a01b900460ff16156127385760405162461bcd60e51b815260206004820152601060248201526f14185d5cd8589b194e881c185d5cd95960821b6044820152606401610b9b565b6127458585858585613b3e565b5050505050565b600061010054461415612760575060ff5490565b6128ed61010180546127719061501b565b80601f016020809104026020016040519081016040528092919081815260200182805461279d9061501b565b80156127ea5780601f106127bf576101008083540402835291602001916127ea565b820191906000526020600020905b8154815290600101906020018083116127cd57829003601f168201915b505050505061010280546127fd9061501b565b80601f01602080910402602001604051908101604052809291908181526020018280546128299061501b565b80156128765780601f1061284b57610100808354040283529160200191612876565b820191906000526020600020905b81548152906001019060200180831161285957829003601f168201915b50505050508151602092830120815191830191909120604080517f8b73c3c69bb8fe3d512ecc4cf759cc79239f7b179b0ffacaa9a75d522b39400f818601528082019390935260608301919091524660808301523060a0808401919091528151808403909101815260c09092019052805191012090565b905090565b6065546001600160a01b031633146129725760405162461bcd60e51b815260206004820152602260248201527f5061757361626c653a2063616c6c6572206973206e6f7420746865207061757360448201527f65720000000000000000000000000000000000000000000000000000000000006064820152608401610b9b565b606580547fffffffffffffffffffffff00ffffffffffffffffffffffffffffffffffffffff16600160a01b1790556040517f6985a02210a168e66602d3235cb6db0e70f92b3ba4d376a33c0f3d9434bff62590600090a1565b6102008054610ace9061501b565b80516124f59061023b906020840190614a21565b606554600090600160a01b900460ff1615612a3d5760405162461bcd60e51b815260206004820152601060248201526f14185d5cd8589b194e881c185d5cd95960821b6044820152606401610b9b565b3360008181526099602052604090205460ff1615612aab5760405162461bcd60e51b815260206004820152602560248201527f426c6f636b6c69737461626c653a206163636f756e7420697320626c6f636b6c6044820152641a5cdd195960da1b6064820152608401610b9b565b6001600160a01b038416600090815260996020526040902054849060ff1615612b245760405162461bcd60e51b815260206004820152602560248201527f426c6f636b6c69737461626c653a206163636f756e7420697320626c6f636b6c6044820152641a5cdd195960da1b6064820152608401610b9b565b610c96338686613c66565b606554600090600160a01b900460ff1615612b7f5760405162461bcd60e51b815260206004820152601060248201526f14185d5cd8589b194e881c185d5cd95960821b6044820152606401610b9b565b3360008181526099602052604090205460ff1615612bed5760405162461bcd60e51b815260206004820152602560248201527f426c6f636b6c69737461626c653a206163636f756e7420697320626c6f636b6c6044820152641a5cdd195960da1b6064820152608401610b9b565b6001600160a01b038416600090815260996020526040902054849060ff1615612c665760405162461bcd60e51b815260206004820152602560248201527f426c6f636b6c69737461626c653a206163636f756e7420697320626c6f636b6c6044820152641a5cdd195960da1b6064820152608401610b9b565b610c96338686613674565b6032546001600160a01b03163314612ccb5760405162461bcd60e51b815260206004820181905260248201527f4f776e61626c653a2063616c6c6572206973206e6f7420746865206f776e65726044820152606401610b9b565b6001600160a01b038116612d475760405162461bcd60e51b815260206004820152602f60248201527f46696174546f6b656e3a206e6577206d61737465724d696e746572206973207460448201527f6865207a65726f206164647265737300000000000000000000000000000000006064820152608401610b9b565b610203805473ffffffffffffffffffffffffffffffffffffffff19166001600160a01b0383169081179091556040517fdb66dfa9c6b8f5226fe9aac7e51897ae8ee94ac31dc70bb6c9900b2574b707e690600090a250565b60cc546001600160a01b03163314612e1e5760405162461bcd60e51b8152602060048201526024808201527f526573637561626c653a2063616c6c6572206973206e6f74207468652072657360448201527f63756572000000000000000000000000000000000000000000000000000000006064820152608401610b9b565b612e326001600160a01b0384168383613d3c565b505050565b606554600160a01b900460ff1615612e845760405162461bcd60e51b815260206004820152601060248201526f14185d5cd8589b194e881c185d5cd95960821b6044820152606401610b9b565b6001600160a01b038716600090815260996020526040902054879060ff1615612efd5760405162461bcd60e51b815260206004820152602560248201527f426c6f636b6c69737461626c653a206163636f756e7420697320626c6f636b6c6044820152641a5cdd195960da1b6064820152608401610b9b565b6001600160a01b038716600090815260996020526040902054879060ff1615612f765760405162461bcd60e51b815260206004820152602560248201527f426c6f636b6c69737461626c653a206163636f756e7420697320626c6f636b6c6044820152641a5cdd195960da1b6064820152608401610b9b565b612f8589898989898989613dbc565b505050505050505050565b606554600160a01b900460ff1615612fdd5760405162461bcd60e51b815260206004820152601060248201526f14185d5cd8589b194e881c185d5cd95960821b6044820152606401610b9b565b6001600160a01b038916600090815260996020526040902054899060ff16156130565760405162461bcd60e51b815260206004820152602560248201527f426c6f636b6c69737461626c653a206163636f756e7420697320626c6f636b6c6044820152641a5cdd195960da1b6064820152608401610b9b565b6001600160a01b038916600090815260996020526040902054899060ff16156130cf5760405162461bcd60e51b815260206004820152602560248201527f426c6f636b6c69737461626c653a206163636f756e7420697320626c6f636b6c6044820152641a5cdd195960da1b6064820152608401610b9b565b6130e08b8b8b8b8b8b8b8b8b613f27565b5050505050505050505050565b6102028054610ace9061501b565b6098546001600160a01b0316331461317b5760405162461bcd60e51b815260206004820152602c60248201527f426c6f636b6c69737461626c653a2063616c6c6572206973206e6f742074686560448201527f20626c6f636b6c697374657200000000000000000000000000000000000000006064820152608401610b9b565b6001600160a01b038116600081815260996020526040808220805460ff19166001179055517f917c251bb231c4b997a420bebe47edad5c20e70715da16c38e9b2e172e44ab929190a250565b606554600160a01b900460ff16156132145760405162461bcd60e51b815260206004820152601060248201526f14185d5cd8589b194e881c185d5cd95960821b6044820152606401610b9b565b6001600160a01b038916600090815260996020526040902054899060ff161561328d5760405162461bcd60e51b815260206004820152602560248201527f426c6f636b6c69737461626c653a206163636f756e7420697320626c6f636b6c6044820152641a5cdd195960da1b6064820152608401610b9b565b6001600160a01b038916600090815260996020526040902054899060ff16156133065760405162461bcd60e51b815260206004820152602560248201527f426c6f636b6c69737461626c653a206163636f756e7420697320626c6f636b6c6044820152641a5cdd195960da1b6064820152608401610b9b565b6130e08b8b8b8b8b8b8b8b8b614038565b6032546001600160a01b031633146133715760405162461bcd60e51b815260206004820181905260248201527f4f776e61626c653a2063616c6c6572206973206e6f7420746865206f776e65726044820152606401610b9b565b6001600160a01b0381166133ed5760405162461bcd60e51b815260206004820152602660248201527f4f776e61626c653a206e6577206f776e657220697320746865207a65726f206160448201527f64647265737300000000000000000000000000000000000000000000000000006064820152608401610b9b565b6118f1816138a6565b6032546001600160a01b031633146134505760405162461bcd60e51b815260206004820181905260248201527f4f776e61626c653a2063616c6c6572206973206e6f7420746865206f776e65726044820152606401610b9b565b6001600160a01b0381166134cc5760405162461bcd60e51b815260206004820152603260248201527f426c6f636b6c69737461626c653a206e657720626c6f636b6c6973746572206960448201527f7320746865207a65726f206164647265737300000000000000000000000000006064820152608401610b9b565b6098805473ffffffffffffffffffffffffffffffffffffffff19166001600160a01b0383169081179091556040517f68f10ceb42d30acc930aaaedf5b94559e14fc4f22496dc2c1b38b1b1b5231f9890600090a250565b6001600160a01b03831661359e5760405162461bcd60e51b8152602060048201526024808201527f45524332303a20617070726f76652066726f6d20746865207a65726f2061646460448201527f72657373000000000000000000000000000000000000000000000000000000006064820152608401610b9b565b6001600160a01b03821661361a5760405162461bcd60e51b815260206004820152602260248201527f45524332303a20617070726f766520746f20746865207a65726f20616464726560448201527f73730000000000000000000000000000000000000000000000000000000000006064820152608401610b9b565b6001600160a01b038381166000818152610205602090815260408083209487168084529482529182902085905590518481527f8c5be1e5ebec7d5bd14f71427d1e84f3dd0314c0f7b2291e5b200ac8c7c3b9259101612212565b6001600160a01b0383166136f05760405162461bcd60e51b815260206004820152602560248201527f45524332303a207472616e736665722066726f6d20746865207a65726f20616460448201527f64726573730000000000000000000000000000000000000000000000000000006064820152608401610b9b565b6001600160a01b03821661376c5760405162461bcd60e51b815260206004820152602360248201527f45524332303a207472616e7366657220746f20746865207a65726f206164647260448201527f65737300000000000000000000000000000000000000000000000000000000006064820152608401610b9b565b6001600160a01b038316600090815261020460205260409020548111156137fb5760405162461bcd60e51b815260206004820152602660248201527f45524332303a207472616e7366657220616d6f756e742065786365656473206260448201527f616c616e636500000000000000000000000000000000000000000000000000006064820152608401610b9b565b6001600160a01b0383166000908152610204602052604090205461382090829061509e565b6001600160a01b038085166000908152610204602052604080822093909355908416815220546138519082906150b5565b6001600160a01b038084166000818152610204602052604090819020939093559151908516907fddf252ad1be2c89b69c2b068fc378daa952ba7f163c4a11628f55a4df523b3ef906122129085815260200190565b603280546001600160a01b0383811673ffffffffffffffffffffffffffffffffffffffff19831681179093556040519116919082907f8be0079c531659141344cd1fd0a4f28419497f9722a3daafe3b4186f6b6457e090600090a35050565b6032546001600160a01b031633146118f15760405162461bcd60e51b815260206004820181905260248201527f4f776e61626c653a2063616c6c6572206973206e6f7420746865206f776e65726044820152606401610b9b565b7f4910fdfa16fed3260ed0e7147f7cc6da11a60208b5b9406d12a635614ffd91435460ff161561399257612e328361412e565b826001600160a01b03166352d1902d6040518163ffffffff1660e01b8152600401602060405180830381865afa9250505080156139ec575060408051601f3d908101601f191682019092526139e9918101906150cd565b60015b613a5e5760405162461bcd60e51b815260206004820152602e60248201527f45524331393637557067726164653a206e657720696d706c656d656e7461746960448201527f6f6e206973206e6f7420555550530000000000000000000000000000000000006064820152608401610b9b565b7f360894a13ba1a3210667c828492db98dca3e2076cc3735a920a3ca505d382bbc8114613af35760405162461bcd60e51b815260206004820152602960248201527f45524331393637557067726164653a20756e737570706f727465642070726f7860448201527f6961626c655555494400000000000000000000000000000000000000000000006064820152608401610b9b565b50612e328383836141f0565b6001600160a01b0380841660009081526102056020908152604080832093861683529290522054612e329084908490613b399085906150b5565b613523565b613b48858561421b565b604080517f158b0a9edf7a828aad02f63cd515c68ef2f50ba807396f6d12842833a159742960208201526001600160a01b038716818301819052606080830188905283518084039091018152608090920190925290613bb1613ba861274c565b868686866142b6565b6001600160a01b031614613c075760405162461bcd60e51b815260206004820152601a60248201527f454950333030393a20696e76616c6964207369676e61747572650000000000006044820152606401610b9b565b6001600160a01b038616600081815261013560209081526040808320898452909152808220805460ff19166001179055518792917f1cdd46ff242716cdaa72d159d339a485b3438398348d68f09d7c8c0a59353d8191a3505050505050565b6001600160a01b0380841660009081526102056020908152604080832093861683529290522054811115613d025760405162461bcd60e51b815260206004820152602560248201527f45524332303a2064656372656173656420616c6c6f77616e63652062656c6f7760448201527f207a65726f0000000000000000000000000000000000000000000000000000006064820152608401610b9b565b6001600160a01b0380841660009081526102056020908152604080832093861683529290522054612e329084908490613b3990859061509e565b604080516001600160a01b038416602482015260448082018490528251808303909101815260649091019091526020810180517bffffffffffffffffffffffffffffffffffffffffffffffffffffffff167fa9059cbb00000000000000000000000000000000000000000000000000000000179052612e32908490614333565b42841015613e0c5760405162461bcd60e51b815260206004820152601a60248201527f454950323631323a207065726d697420697320657870697265640000000000006044820152606401610b9b565b6001600160a01b03871660009081526101686020526040812080547f6e71edae12b1b97f4d1f60370fef10105fa2faae0126114a169c64845d6126c9918a918a918a919086613e5a836150e6565b909155506040805160208101969096526001600160a01b0394851690860152929091166060840152608083015260a082015260c0810186905260e0016040516020818303038152906040529050876001600160a01b0316613ebc613ba861274c565b6001600160a01b031614613f125760405162461bcd60e51b815260206004820152601a60248201527f454950323631323a20696e76616c6964207369676e61747572650000000000006044820152606401610b9b565b613f1d888888613523565b5050505050505050565b613f3389858888614418565b604080517f7c7c6cdb67a18743f49ec6fa9b35f50d52ed05cbed4cc592e13b44501c1a226760208201526001600160a01b03808c169282019290925290891660608201526080810188905260a0810187905260c0810186905260e08101859052600090610100015b6040516020818303038152906040529050896001600160a01b0316613fc1613ba861274c565b6001600160a01b0316146140175760405162461bcd60e51b815260206004820152601a60248201527f454950333030393a20696e76616c6964207369676e61747572650000000000006044820152606401610b9b565b6140218a8661450c565b61402c8a8a8a613674565b50505050505050505050565b6001600160a01b03881633146140b65760405162461bcd60e51b815260206004820152602160248201527f454950333030393a2063616c6c6572206d75737420626520746865207061796560448201527f65000000000000000000000000000000000000000000000000000000000000006064820152608401610b9b565b6140c289858888614418565b604080517fd099cc98ef71107a616c4f0f941f04c322d8e254fe26b3c6668db87aae413de860208201526001600160a01b03808c169282019290925290891660608201526080810188905260a0810187905260c0810186905260e0810185905260009061010001613f9b565b803b6141a25760405162461bcd60e51b815260206004820152602d60248201527f455243313936373a206e657720696d706c656d656e746174696f6e206973206e60448201527f6f74206120636f6e7472616374000000000000000000000000000000000000006064820152608401610b9b565b7f360894a13ba1a3210667c828492db98dca3e2076cc3735a920a3ca505d382bbc805473ffffffffffffffffffffffffffffffffffffffff19166001600160a01b0392909216919091179055565b6141f983614567565b6000825111806142065750805b15612e325761421583836145a7565b50505050565b6001600160a01b03821660009081526101356020908152604080832084845290915290205460ff16156124f55760405162461bcd60e51b815260206004820152602a60248201527f454950333030393a20617574686f72697a6174696f6e2069732075736564206f60448201527f722063616e63656c6564000000000000000000000000000000000000000000006064820152608401610b9b565b6000808683805190602001206040516020016143049291907f190100000000000000000000000000000000000000000000000000000000000081526002810192909252602282015260420190565b604051602081830303815290604052805190602001209050614328818787876145d3565b979650505050505050565b6000614388826040518060400160405280602081526020017f5361666545524332303a206c6f772d6c6576656c2063616c6c206661696c6564815250856001600160a01b03166147b69092919063ffffffff16565b805190915015612e3257808060200190518101906143a6919061511f565b612e325760405162461bcd60e51b815260206004820152602a60248201527f5361666545524332303a204552433230206f7065726174696f6e20646964206e60448201527f6f742073756363656564000000000000000000000000000000000000000000006064820152608401610b9b565b81421161448d5760405162461bcd60e51b815260206004820152602860248201527f46454950333030393a20617574686f72697a6174696f6e206973206e6f74207960448201527f65742076616c69640000000000000000000000000000000000000000000000006064820152608401610b9b565b8042106145025760405162461bcd60e51b815260206004820152602160248201527f454950333030393a20617574686f72697a6174696f6e2069732065787069726560448201527f64000000000000000000000000000000000000000000000000000000000000006064820152608401610b9b565b614215848461421b565b6001600160a01b038216600081815261013560209081526040808320858452909152808220805460ff19166001179055518392917f98de503528ee59b575ef0c0a2576a82497bfc029a5685b209e9ec333479b10a591a35050565b6145708161412e565b6040516001600160a01b038216907fbc7cd75a20ee27fd9adebab32041f755214dbc6bffa90cc0225b39da2e5c2d3b90600090a250565b60606145cc838360405180606001604052806027815260200161515e602791396147cd565b9392505050565b60007f7fffffffffffffffffffffffffffffff5d576e7357a4501ddfe92f46681b20a082111561466b5760405162461bcd60e51b815260206004820152602660248201527f45435265636f7665723a20696e76616c6964207369676e61747572652027732760448201527f2076616c756500000000000000000000000000000000000000000000000000006064820152608401610b9b565b8360ff16601b1415801561468357508360ff16601c14155b156146f65760405162461bcd60e51b815260206004820152602660248201527f45435265636f7665723a20696e76616c6964207369676e61747572652027762760448201527f2076616c756500000000000000000000000000000000000000000000000000006064820152608401610b9b565b6040805160008082526020820180845288905260ff871692820192909252606081018590526080810184905260019060a0016020604051602081039080840390855afa15801561474a573d6000803e3d6000fd5b5050604051601f1901519150506001600160a01b0381166147ad5760405162461bcd60e51b815260206004820152601c60248201527f45435265636f7665723a20696e76616c6964207369676e6174757265000000006044820152606401610b9b565b95945050505050565b60606147c584846000856148b8565b949350505050565b6060833b6148435760405162461bcd60e51b815260206004820152602660248201527f416464726573733a2064656c65676174652063616c6c20746f206e6f6e2d636f60448201527f6e747261637400000000000000000000000000000000000000000000000000006064820152608401610b9b565b600080856001600160a01b03168560405161485e9190615141565b600060405180830381855af49150503d8060008114614899576040519150601f19603f3d011682016040523d82523d6000602084013e61489e565b606091505b50915091506148ae8282866149e8565b9695505050505050565b6060824710156149305760405162461bcd60e51b815260206004820152602660248201527f416464726573733a20696e73756666696369656e742062616c616e636520666f60448201527f722063616c6c00000000000000000000000000000000000000000000000000006064820152608401610b9b565b843b61497e5760405162461bcd60e51b815260206004820152601d60248201527f416464726573733a2063616c6c20746f206e6f6e2d636f6e74726163740000006044820152606401610b9b565b600080866001600160a01b0316858760405161499a9190615141565b60006040518083038185875af1925050503d80600081146149d7576040519150601f19603f3d011682016040523d82523d6000602084013e6149dc565b606091505b50915091506143288282865b606083156149f75750816145cc565b825115614a075782518084602001fd5b8160405162461bcd60e51b8152600401610b9b9190614b61565b828054614a2d9061501b565b90600052602060002090601f016020900481019282614a4f5760008555614a95565b82601f10614a6857805160ff1916838001178555614a95565b82800160010185558215614a95579182015b82811115614a95578251825591602001919060010190614a7a565b50614aa1929150614b20565b5090565b828054614ab19061501b565b90600052602060002090601f016020900481019282614ad35760008555614a95565b82601f10614ae45780548555614a95565b82800160010185558215614a9557600052602060002091601f016020900482015b82811115614a95578254825591600101919060010190614b05565b5b80821115614aa15760008155600101614b21565b60005b83811015614b50578181015183820152602001614b38565b838111156142155750506000910152565b6020815260008251806020840152614b80816040850160208701614b35565b601f01601f19169190910160400192915050565b6001600160a01b03811681146118f157600080fd5b803561116381614b94565b60008060408385031215614bc757600080fd5b8235614bd281614b94565b946020939093013593505050565b600080600060608486031215614bf557600080fd5b8335614c0081614b94565b92506020840135614c1081614b94565b929592945050506040919091013590565b600060208284031215614c3357600080fd5b81356145cc81614b94565b7f4e487b7100000000000000000000000000000000000000000000000000000000600052604160045260246000fd5b600067ffffffffffffffff80841115614c8857614c88614c3e565b604051601f8501601f19908116603f01168101908282118183101715614cb057614cb0614c3e565b81604052809350858152868686011115614cc957600080fd5b858560208301376000602087830101525050509392505050565b600082601f830112614cf457600080fd5b6145cc83833560208501614c6d565b803560ff8116811461116357600080fd5b600080600080600080600080610100898b031215614d3157600080fd5b883567ffffffffffffffff80821115614d4957600080fd5b614d558c838d01614ce3565b995060208b0135915080821115614d6b57600080fd5b614d778c838d01614ce3565b985060408b0135915080821115614d8d57600080fd5b50614d9a8b828c01614ce3565b965050614da960608a01614d03565b9450614db760808a01614ba9565b9350614dc560a08a01614ba9565b9250614dd360c08a01614ba9565b9150614de160e08a01614ba9565b90509295985092959890939650565b600060208284031215614e0257600080fd5b5035919050565b60008060408385031215614e1c57600080fd5b8235614e2781614b94565b9150602083013567ffffffffffffffff811115614e4357600080fd5b8301601f81018513614e5457600080fd5b614e6385823560208401614c6d565b9150509250929050565b600080600080600060a08688031215614e8557600080fd5b8535614e9081614b94565b945060208601359350614ea560408701614d03565b94979396509394606081013594506080013592915050565b600060208284031215614ecf57600080fd5b813567ffffffffffffffff811115614ee657600080fd5b6147c584828501614ce3565b600080600080600080600060e0888a031215614f0d57600080fd5b8735614f1881614b94565b96506020880135614f2881614b94565b95506040880135945060608801359350614f4460808901614d03565b925060a0880135915060c0880135905092959891949750929550565b60008060408385031215614f7357600080fd5b8235614f7e81614b94565b91506020830135614f8e81614b94565b809150509250929050565b60008060008060008060008060006101208a8c031215614fb857600080fd5b8935614fc381614b94565b985060208a0135614fd381614b94565b975060408a0135965060608a0135955060808a0135945060a08a01359350614ffd60c08b01614d03565b925060e08a013591506101008a013590509295985092959850929598565b600181811c9082168061502f57607f821691505b60208210811415615069577f4e487b7100000000000000000000000000000000000000000000000000000000600052602260045260246000fd5b50919050565b7f4e487b7100000000000000000000000000000000000000000000000000000000600052601160045260246000fd5b6000828210156150b0576150b061506f565b500390565b600082198211156150c8576150c861506f565b500190565b6000602082840312156150df57600080fd5b5051919050565b60007fffffffffffffffffffffffffffffffffffffffffffffffffffffffffffffffff8214156151185761511861506f565b5060010190565b60006020828403121561513157600080fd5b815180151581146145cc57600080fd5b60008251615153818460208701614b35565b919091019291505056fe416464726573733a206c6f772d6c6576656c2064656c65676174652063616c6c206661696c6564a2646970667358221220d4150f2963c220df99400417db662e205f405bebe7dd6a857b6f537b0145dea764736f6c634300080b0033",
  "linkReferences": {},
  "deployedLinkReferences": {}
}