{
  "_format": "hh-sol-artifact-1",
  "contractName": "FiatTokenV2Test",
  "sourceName": "contracts/test/FiatTokenV2Test.sol",
  "abi": [
    {
      "anonymous": false,
      "inputs": [
        {
          "indexed": true,
          "internalType": "address",
          "name": "owner",
          "type": "address"
        },
        {
          "indexed": true,
          "internalType": "address",
          "name": "spender",
          "type": "address"
        },
        {
          "indexed": false,
          "internalType": "uint256",
          "name": "value",
          "type": "uint256"
        }
      ],
      "name": "Approval",
      "type": "event"
    },
    {
      "anonymous": false,
      "inputs": [
        {
          "indexed": true,
          "internalType": "address",
          "name": "authorizer",
          "type": "address"
        },
        {
          "indexed": true,
          "internalType": "bytes32",
          "name": "nonce",
          "type": "bytes32"
        }
      ],
      "name": "AuthorizationCanceled",
      "type": "event"
    },
    {
      "anonymous": false,
      "inputs": [
        {
          "indexed": true,
          "internalType": "address",
          "name": "authorizer",
          "type": "address"
        },
        {
          "indexed": true,
          "internalType": "bytes32",
          "name": "nonce",
          "type": "bytes32"
        }
      ],
      "name": "AuthorizationUsed",
      "type": "event"
    },
    {
      "anonymous": false,
      "inputs": [
        {
          "indexed": true,
          "internalType": "address",
          "name": "_account",
          "type": "address"
        }
      ],
      "name": "Blocklisted",
      "type": "event"
    },
    {
      "anonymous": false,
      "inputs": [
        {
          "indexed": true,
          "internalType": "address",
          "name": "newBlocklister",
          "type": "address"
        }
      ],
      "name": "BlocklisterChanged",
      "type": "event"
    },
    {
      "anonymous": false,
      "inputs": [
        {
          "indexed": true,
          "internalType": "address",
          "name": "burner",
          "type": "address"
        },
        {
          "indexed": false,
          "internalType": "uint256",
          "name": "amount",
          "type": "uint256"
        }
      ],
      "name": "Burn",
      "type": "event"
    },
    {
      "anonymous": false,
      "inputs": [
        {
          "indexed": true,
          "internalType": "address",
          "name": "newMasterMinter",
          "type": "address"
        }
      ],
      "name": "MasterMinterChanged",
      "type": "event"
    },
    {
      "anonymous": false,
      "inputs": [
        {
          "indexed": true,
          "internalType": "address",
          "name": "minter",
          "type": "address"
        },
        {
          "indexed": true,
          "internalType": "address",
          "name": "to",
          "type": "address"
        },
        {
          "indexed": false,
          "internalType": "uint256",
          "name": "amount",
          "type": "uint256"
        }
      ],
      "name": "Mint",
      "type": "event"
    },
    {
      "anonymous": false,
      "inputs": [
        {
          "indexed": true,
          "internalType": "address",
          "name": "minter",
          "type": "address"
        },
        {
          "indexed": false,
          "internalType": "uint256",
          "name": "minterAllowedAmount",
          "type": "uint256"
        }
      ],
      "name": "MinterConfigured",
      "type": "event"
    },
    {
      "anonymous": false,
      "inputs": [
        {
          "indexed": true,
          "internalType": "address",
          "name": "oldMinter",
          "type": "address"
        }
      ],
      "name": "MinterRemoved",
      "type": "event"
    },
    {
      "anonymous": false,
      "inputs": [
        {
          "indexed": true,
          "internalType": "address",
          "name": "previousOwner",
          "type": "address"
        },
        {
          "indexed": true,
          "internalType": "address",
          "name": "newOwner",
          "type": "address"
        }
      ],
      "name": "OwnershipTransferred",
      "type": "event"
    },
    {
      "anonymous": false,
      "inputs": [],
      "name": "Pause",
      "type": "event"
    },
    {
      "anonymous": false,
      "inputs": [
        {
          "indexed": true,
          "internalType": "address",
          "name": "newAddress",
          "type": "address"
        }
      ],
      "name": "PauserChanged",
      "type": "event"
    },
    {
      "anonymous": false,
      "inputs": [
        {
          "indexed": true,
          "internalType": "address",
          "name": "newRescuer",
          "type": "address"
        }
      ],
      "name": "RescuerChanged",
      "type": "event"
    },
    {
      "anonymous": false,
      "inputs": [
        {
          "indexed": true,
          "internalType": "address",
          "name": "from",
          "type": "address"
        },
        {
          "indexed": true,
          "internalType": "address",
          "name": "to",
          "type": "address"
        },
        {
          "indexed": false,
          "internalType": "uint256",
          "name": "value",
          "type": "uint256"
        }
      ],
      "name": "Transfer",
      "type": "event"
    },
    {
      "anonymous": false,
      "inputs": [
        {
          "indexed": true,
          "internalType": "address",
          "name": "_account",
          "type": "address"
        }
      ],
      "name": "UnBlocklisted",
      "type": "event"
    },
    {
      "anonymous": false,
      "inputs": [
        {
          "indexed": true,
          "internalType": "address",
          "name": "_account",
          "type": "address"
        }
      ],
      "name": "UnWhitelisted",
      "type": "event"
    },
    {
      "anonymous": false,
      "inputs": [],
      "name": "Unpause",
      "type": "event"
    },
    {
      "anonymous": false,
      "inputs": [
        {
          "indexed": true,
          "internalType": "address",
          "name": "implementation",
          "type": "address"
        }
      ],
      "name": "Upgraded",
      "type": "event"
    },
    {
      "anonymous": false,
      "inputs": [
        {
          "indexed": true,
          "internalType": "address",
          "name": "_account",
          "type": "address"
        }
      ],
      "name": "Whitelisted",
      "type": "event"
    },
    {
      "anonymous": false,
      "inputs": [
        {
          "indexed": true,
          "internalType": "address",
          "name": "newWhitelister",
          "type": "address"
        }
      ],
      "name": "WhitelisterChanged",
      "type": "event"
    },
    {
      "inputs": [],
      "name": "CANCEL_AUTHORIZATION_TYPEHASH",
      "outputs": [
        {
          "internalType": "bytes32",
          "name": "",
          "type": "bytes32"
        }
      ],
      "stateMutability": "view",
      "type": "function"
    },
    {
      "inputs": [],
      "name": "PERMIT_TYPEHASH",
      "outputs": [
        {
          "internalType": "bytes32",
          "name": "",
          "type": "bytes32"
        }
      ],
      "stateMutability": "view",
      "type": "function"
    },
    {
      "inputs": [],
      "name": "RECEIVE_WITH_AUTHORIZATION_TYPEHASH",
      "outputs": [
        {
          "internalType": "bytes32",
          "name": "",
          "type": "bytes32"
        }
      ],
      "stateMutability": "view",
      "type": "function"
    },
    {
      "inputs": [],
      "name": "TRANSFER_WITH_AUTHORIZATION_TYPEHASH",
      "outputs": [
        {
          "internalType": "bytes32",
          "name": "",
          "type": "bytes32"
        }
      ],
      "stateMutability": "view",
      "type": "function"
    },
    {
      "inputs": [],
      "name": "_domainSeparatorV4",
      "outputs": [
        {
          "internalType": "bytes32",
          "name": "",
          "type": "bytes32"
        }
      ],
      "stateMutability": "view",
      "type": "function"
    },
    {
      "inputs": [
        {
          "internalType": "address",
          "name": "owner",
          "type": "address"
        },
        {
          "internalType": "address",
          "name": "spender",
          "type": "address"
        }
      ],
      "name": "allowance",
      "outputs": [
        {
          "internalType": "uint256",
          "name": "",
          "type": "uint256"
        }
      ],
      "stateMutability": "view",
      "type": "function"
    },
    {
      "inputs": [
        {
          "internalType": "address",
          "name": "spender",
          "type": "address"
        },
        {
          "internalType": "uint256",
          "name": "value",
          "type": "uint256"
        }
      ],
      "name": "approve",
      "outputs": [
        {
          "internalType": "bool",
          "name": "",
          "type": "bool"
        }
      ],
      "stateMutability": "nonpayable",
      "type": "function"
    },
    {
      "inputs": [
        {
          "internalType": "address",
          "name": "owner",
          "type": "address"
        },
        {
          "internalType": "address",
          "name": "spender",
          "type": "address"
        },
        {
          "internalType": "uint256",
          "name": "value",
          "type": "uint256"
        }
      ],
      "name": "approveTest",
      "outputs": [],
      "stateMutability": "nonpayable",
      "type": "function"
    },
    {
      "inputs": [
        {
          "internalType": "address",
          "name": "authorizer",
          "type": "address"
        },
        {
          "internalType": "bytes32",
          "name": "nonce",
          "type": "bytes32"
        }
      ],
      "name": "authorizationState",
      "outputs": [
        {
          "internalType": "bool",
          "name": "",
          "type": "bool"
        }
      ],
      "stateMutability": "view",
      "type": "function"
    },
    {
      "inputs": [
        {
          "internalType": "address",
          "name": "account",
          "type": "address"
        }
      ],
      "name": "balanceOf",
      "outputs": [
        {
          "internalType": "uint256",
          "name": "",
          "type": "uint256"
        }
      ],
      "stateMutability": "view",
      "type": "function"
    },
    {
      "inputs": [
        {
          "internalType": "address",
          "name": "_account",
          "type": "address"
        }
      ],
      "name": "blocklist",
      "outputs": [],
      "stateMutability": "nonpayable",
      "type": "function"
    },
    {
      "inputs": [],
      "name": "blocklister",
      "outputs": [
        {
          "internalType": "address",
          "name": "",
          "type": "address"
        }
      ],
      "stateMutability": "view",
      "type": "function"
    },
    {
      "inputs": [
        {
          "internalType": "uint256",
          "name": "_amount",
          "type": "uint256"
        }
      ],
      "name": "burn",
      "outputs": [],
      "stateMutability": "nonpayable",
      "type": "function"
    },
    {
      "inputs": [
        {
          "internalType": "address",
          "name": "authorizer",
          "type": "address"
        },
        {
          "internalType": "bytes32",
          "name": "nonce",
          "type": "bytes32"
        },
        {
          "internalType": "uint8",
          "name": "v",
          "type": "uint8"
        },
        {
          "internalType": "bytes32",
          "name": "r",
          "type": "bytes32"
        },
        {
          "internalType": "bytes32",
          "name": "s",
          "type": "bytes32"
        }
      ],
      "name": "cancelAuthorization",
      "outputs": [],
      "stateMutability": "nonpayable",
      "type": "function"
    },
    {
      "inputs": [
        {
          "internalType": "address",
          "name": "minter",
          "type": "address"
        },
        {
          "internalType": "uint256",
          "name": "minterAllowedAmount",
          "type": "uint256"
        }
      ],
      "name": "configureMinter",
      "outputs": [
        {
          "internalType": "bool",
          "name": "",
          "type": "bool"
        }
      ],
      "stateMutability": "nonpayable",
      "type": "function"
    },
    {
      "inputs": [],
      "name": "currency",
      "outputs": [
        {
          "internalType": "string",
          "name": "",
          "type": "string"
        }
      ],
      "stateMutability": "view",
      "type": "function"
    },
    {
      "inputs": [],
      "name": "decimals",
      "outputs": [
        {
          "internalType": "uint8",
          "name": "",
          "type": "uint8"
        }
      ],
      "stateMutability": "view",
      "type": "function"
    },
    {
      "inputs": [
        {
          "internalType": "address",
          "name": "spender",
          "type": "address"
        },
        {
          "internalType": "uint256",
          "name": "decrement",
          "type": "uint256"
        }
      ],
      "name": "decreaseAllowance",
      "outputs": [
        {
          "internalType": "bool",
          "name": "",
          "type": "bool"
        }
      ],
      "stateMutability": "nonpayable",
      "type": "function"
    },
    {
      "inputs": [
        {
          "internalType": "address",
          "name": "spender",
          "type": "address"
        },
        {
          "internalType": "uint256",
          "name": "increment",
          "type": "uint256"
        }
      ],
      "name": "increaseAllowance",
      "outputs": [
        {
          "internalType": "bool",
          "name": "",
          "type": "bool"
        }
      ],
      "stateMutability": "nonpayable",
      "type": "function"
    },
    {
      "inputs": [
        {
          "internalType": "string",
          "name": "tokenName",
          "type": "string"
        },
        {
          "internalType": "string",
          "name": "tokenSymbol",
          "type": "string"
        },
        {
          "internalType": "string",
          "name": "tokenCurrency",
          "type": "string"
        },
        {
          "internalType": "uint8",
          "name": "tokenDecimals",
          "type": "uint8"
        },
        {
          "internalType": "address",
          "name": "newMasterMinter",
          "type": "address"
        },
        {
          "internalType": "address",
          "name": "newPauser",
          "type": "address"
        },
        {
          "internalType": "address",
          "name": "newBlocklister",
          "type": "address"
        },
        {
          "internalType": "address",
          "name": "newOwner",
          "type": "address"
        }
      ],
      "name": "initialize",
      "outputs": [],
      "stateMutability": "nonpayable",
      "type": "function"
    },
    {
      "inputs": [
        {
          "internalType": "address",
          "name": "_account",
          "type": "address"
        }
      ],
      "name": "isBlocklisted",
      "outputs": [
        {
          "internalType": "bool",
          "name": "",
          "type": "bool"
        }
      ],
      "stateMutability": "view",
      "type": "function"
    },
    {
      "inputs": [
        {
          "internalType": "address",
          "name": "account",
          "type": "address"
        }
      ],
      "name": "isMinter",
      "outputs": [
        {
          "internalType": "bool",
          "name": "",
          "type": "bool"
        }
      ],
      "stateMutability": "view",
      "type": "function"
    },
    {
      "inputs": [
        {
          "internalType": "address",
          "name": "_account",
          "type": "address"
        }
      ],
      "name": "isWhitelisted",
      "outputs": [
        {
          "internalType": "bool",
          "name": "",
          "type": "bool"
        }
      ],
      "stateMutability": "view",
      "type": "function"
    },
    {
      "inputs": [],
      "name": "masterMinter",
      "outputs": [
        {
          "internalType": "address",
          "name": "",
          "type": "address"
        }
      ],
      "stateMutability": "view",
      "type": "function"
    },
    {
      "inputs": [
        {
          "internalType": "address",
          "name": "_to",
          "type": "address"
        },
        {
          "internalType": "uint256",
          "name": "_amount",
          "type": "uint256"
        }
      ],
      "name": "mint",
      "outputs": [
        {
          "internalType": "bool",
          "name": "",
          "type": "bool"
        }
      ],
      "stateMutability": "nonpayable",
      "type": "function"
    },
    {
      "inputs": [
        {
          "internalType": "address",
          "name": "minter",
          "type": "address"
        }
      ],
      "name": "minterAllowance",
      "outputs": [
        {
          "internalType": "uint256",
          "name": "",
          "type": "uint256"
        }
      ],
      "stateMutability": "view",
      "type": "function"
    },
    {
      "inputs": [],
      "name": "name",
      "outputs": [
        {
          "internalType": "string",
          "name": "",
          "type": "string"
        }
      ],
      "stateMutability": "view",
      "type": "function"
    },
    {
      "inputs": [
        {
          "internalType": "address",
          "name": "owner",
          "type": "address"
        }
      ],
      "name": "nonces",
      "outputs": [
        {
          "internalType": "uint256",
          "name": "",
          "type": "uint256"
        }
      ],
      "stateMutability": "view",
      "type": "function"
    },
    {
      "inputs": [],
      "name": "owner",
      "outputs": [
        {
          "internalType": "address",
          "name": "",
          "type": "address"
        }
      ],
      "stateMutability": "view",
      "type": "function"
    },
    {
      "inputs": [],
      "name": "pause",
      "outputs": [],
      "stateMutability": "nonpayable",
      "type": "function"
    },
    {
      "inputs": [],
      "name": "paused",
      "outputs": [
        {
          "internalType": "bool",
          "name": "",
          "type": "bool"
        }
      ],
      "stateMutability": "view",
      "type": "function"
    },
    {
      "inputs": [],
      "name": "pauser",
      "outputs": [
        {
          "internalType": "address",
          "name": "",
          "type": "address"
        }
      ],
      "stateMutability": "view",
      "type": "function"
    },
    {
      "inputs": [
        {
          "internalType": "address",
          "name": "owner",
          "type": "address"
        },
        {
          "internalType": "address",
          "name": "spender",
          "type": "address"
        },
        {
          "internalType": "uint256",
          "name": "value",
          "type": "uint256"
        },
        {
          "internalType": "uint256",
          "name": "deadline",
          "type": "uint256"
        },
        {
          "internalType": "uint8",
          "name": "v",
          "type": "uint8"
        },
        {
          "internalType": "bytes32",
          "name": "r",
          "type": "bytes32"
        },
        {
          "internalType": "bytes32",
          "name": "s",
          "type": "bytes32"
        }
      ],
      "name": "permit",
      "outputs": [],
      "stateMutability": "nonpayable",
      "type": "function"
    },
    {
      "inputs": [],
      "name": "proxiableUUID",
      "outputs": [
        {
          "internalType": "bytes32",
          "name": "",
          "type": "bytes32"
        }
      ],
      "stateMutability": "view",
      "type": "function"
    },
    {
      "inputs": [
        {
          "internalType": "address",
          "name": "from",
          "type": "address"
        },
        {
          "internalType": "address",
          "name": "to",
          "type": "address"
        },
        {
          "internalType": "uint256",
          "name": "value",
          "type": "uint256"
        },
        {
          "internalType": "uint256",
          "name": "validAfter",
          "type": "uint256"
        },
        {
          "internalType": "uint256",
          "name": "validBefore",
          "type": "uint256"
        },
        {
          "internalType": "bytes32",
          "name": "nonce",
          "type": "bytes32"
        },
        {
          "internalType": "uint8",
          "name": "v",
          "type": "uint8"
        },
        {
          "internalType": "bytes32",
          "name": "r",
          "type": "bytes32"
        },
        {
          "internalType": "bytes32",
          "name": "s",
          "type": "bytes32"
        }
      ],
      "name": "receiveWithAuthorization",
      "outputs": [],
      "stateMutability": "nonpayable",
      "type": "function"
    },
    {
      "inputs": [
        {
          "internalType": "address",
          "name": "minter",
          "type": "address"
        }
      ],
      "name": "removeMinter",
      "outputs": [
        {
          "internalType": "bool",
          "name": "",
          "type": "bool"
        }
      ],
      "stateMutability": "nonpayable",
      "type": "function"
    },
    {
      "inputs": [
        {
          "internalType": "contract IERC20",
          "name": "tokenContract",
          "type": "address"
        },
        {
          "internalType": "address",
          "name": "to",
          "type": "address"
        },
        {
          "internalType": "uint256",
          "name": "amount",
          "type": "uint256"
        }
      ],
      "name": "rescueERC20",
      "outputs": [],
      "stateMutability": "nonpayable",
      "type": "function"
    },
    {
      "inputs": [],
      "name": "rescuer",
      "outputs": [
        {
          "internalType": "address",
          "name": "",
          "type": "address"
        }
      ],
      "stateMutability": "view",
      "type": "function"
    },
    {
      "inputs": [],
      "name": "symbol",
      "outputs": [
        {
          "internalType": "string",
          "name": "",
          "type": "string"
        }
      ],
      "stateMutability": "view",
      "type": "function"
    },
    {
      "inputs": [],
      "name": "totalSupply",
      "outputs": [
        {
          "internalType": "uint256",
          "name": "",
          "type": "uint256"
        }
      ],
      "stateMutability": "view",
      "type": "function"
    },
    {
      "inputs": [
        {
          "internalType": "address",
          "name": "to",
          "type": "address"
        },
        {
          "internalType": "uint256",
          "name": "value",
          "type": "uint256"
        }
      ],
      "name": "transfer",
      "outputs": [
        {
          "internalType": "bool",
          "name": "",
          "type": "bool"
        }
      ],
      "stateMutability": "nonpayable",
      "type": "function"
    },
    {
      "inputs": [
        {
          "internalType": "address",
          "name": "from",
          "type": "address"
        },
        {
          "internalType": "address",
          "name": "to",
          "type": "address"
        },
        {
          "internalType": "uint256",
          "name": "value",
          "type": "uint256"
        }
      ],
      "name": "transferFrom",
      "outputs": [
        {
          "internalType": "bool",
          "name": "",
          "type": "bool"
        }
      ],
      "stateMutability": "nonpayable",
      "type": "function"
    },
    {
      "inputs": [
        {
          "internalType": "address",
          "name": "newOwner",
          "type": "address"
        }
      ],
      "name": "transferOwnership",
      "outputs": [],
      "stateMutability": "nonpayable",
      "type": "function"
    },
    {
      "inputs": [
        {
          "internalType": "address",
          "name": "from",
          "type": "address"
        },
        {
          "internalType": "address",
          "name": "to",
          "type": "address"
        },
        {
          "internalType": "uint256",
          "name": "value",
          "type": "uint256"
        },
        {
          "internalType": "uint256",
          "name": "validAfter",
          "type": "uint256"
        },
        {
          "internalType": "uint256",
          "name": "validBefore",
          "type": "uint256"
        },
        {
          "internalType": "bytes32",
          "name": "nonce",
          "type": "bytes32"
        },
        {
          "internalType": "uint8",
          "name": "v",
          "type": "uint8"
        },
        {
          "internalType": "bytes32",
          "name": "r",
          "type": "bytes32"
        },
        {
          "internalType": "bytes32",
          "name": "s",
          "type": "bytes32"
        }
      ],
      "name": "transferWithAuthorization",
      "outputs": [],
      "stateMutability": "nonpayable",
      "type": "function"
    },
    {
      "inputs": [
        {
          "internalType": "address",
          "name": "_account",
          "type": "address"
        }
      ],
      "name": "unBlocklist",
      "outputs": [],
      "stateMutability": "nonpayable",
      "type": "function"
    },
    {
      "inputs": [
        {
          "internalType": "address",
          "name": "_account",
          "type": "address"
        }
      ],
      "name": "unWhitelist",
      "outputs": [],
      "stateMutability": "nonpayable",
      "type": "function"
    },
    {
      "inputs": [],
      "name": "unpause",
      "outputs": [],
      "stateMutability": "nonpayable",
      "type": "function"
    },
    {
      "inputs": [
        {
          "internalType": "address",
          "name": "_newBlocklister",
          "type": "address"
        }
      ],
      "name": "updateBlocklister",
      "outputs": [],
      "stateMutability": "nonpayable",
      "type": "function"
    },
    {
      "inputs": [
        {
          "internalType": "address",
          "name": "_newMasterMinter",
          "type": "address"
        }
      ],
      "name": "updateMasterMinter",
      "outputs": [],
      "stateMutability": "nonpayable",
      "type": "function"
    },
    {
      "inputs": [
        {
          "internalType": "address",
          "name": "_newPauser",
          "type": "address"
        }
      ],
      "name": "updatePauser",
      "outputs": [],
      "stateMutability": "nonpayable",
      "type": "function"
    },
    {
      "inputs": [
        {
          "internalType": "address",
          "name": "newRescuer",
          "type": "address"
        }
      ],
      "name": "updateRescuer",
      "outputs": [],
      "stateMutability": "nonpayable",
      "type": "function"
    },
    {
      "inputs": [
        {
          "internalType": "address",
          "name": "_newWhitelister",
          "type": "address"
        }
      ],
      "name": "updateWhitelister",
      "outputs": [],
      "stateMutability": "nonpayable",
      "type": "function"
    },
    {
      "inputs": [
        {
          "internalType": "address",
          "name": "newImplementation",
          "type": "address"
        }
      ],
      "name": "upgradeTo",
      "outputs": [],
      "stateMutability": "nonpayable",
      "type": "function"
    },
    {
      "inputs": [
        {
          "internalType": "address",
          "name": "newImplementation",
          "type": "address"
        },
        {
          "internalType": "bytes",
          "name": "data",
          "type": "bytes"
        }
      ],
      "name": "upgradeToAndCall",
      "outputs": [],
      "stateMutability": "payable",
      "type": "function"
    },
    {
      "inputs": [
        {
          "internalType": "address",
          "name": "_account",
          "type": "address"
        }
      ],
      "name": "whitelist",
      "outputs": [],
      "stateMutability": "nonpayable",
      "type": "function"
    },
    {
      "inputs": [],
      "name": "whitelister",
      "outputs": [
        {
          "internalType": "address",
          "name": "",
          "type": "address"
        }
      ],
      "stateMutability": "view",
      "type": "function"
    }
  ],
  "bytecode": "0x60a06040526065805460ff60a01b19169055306080526000610206553480156200002857600080fd5b5062000034336200003a565b6200008c565b603280546001600160a01b038381166001600160a01b0319831681179093556040519116919082907f8be0079c531659141344cd1fd0a4f28419497f9722a3daafe3b4186f6b6457e090600090a35050565b6080516159c2620000c460003960008181611955015281816119eb015281816127d70152818161286d015261296801526159c26000f3fe60806040526004361061036b5760003560e01c80637ecebe00116101c6578063b2118a8d116100f7578063e5c7160b11610095578063ef55bec61161006f578063ef55bec614610b12578063f21af00714610b32578063f2fde38b14610b52578063f9b5aa9214610b7257600080fd5b8063e5c7160b14610a8b578063e94a010214610aab578063eefa3cde14610af257600080fd5b8063d9169487116100d1578063d9169487146109db578063dd62ed3e14610a0f578063e3ee160e14610a56578063e5a6b10f14610a7657600080fd5b8063b2118a8d1461097b578063b54d94971461099b578063d505accf146109bb57600080fd5b80639b19251a11610164578063a457c2d71161013e578063a457c2d7146108e1578063a9059cbb14610901578063aa20e1e414610921578063aa271e1a1461094157600080fd5b80639b19251a1461086d5780639fd0506d1461088d578063a0cc6a68146108ad57600080fd5b80638a6db9c3116101a05780638a6db9c3146107ca5780638da5cb5b146108015780638e204c431461081f57806395d89b411461085857600080fd5b80637ecebe001461074a5780637f2eecc3146107815780638456cb59146107b557600080fd5b806339509351116102a05780634f1ef2861161023e5780635a049a70116102185780635a049a70146106bd5780635c975abb146106dd57806370a08231146106fe5780637b134b4c1461073557600080fd5b80634f1ef2861461067557806352d1902d14610688578063554bab3c1461069d57600080fd5b806340c10f191161027a57806340c10f19146105f557806342966c6814610615578063458b35ee146106355780634e44d9561461065557600080fd5b806339509351146105865780633af32abf146105a65780633f4ba83a146105e057600080fd5b806330adf81f1161030d5780633357162b116102e75780633357162b1461050757806335d99f35146105275780633659cfe61461054857806338a631831461056857600080fd5b806330adf81f14610486578063313ce567146104ba57806331b23020146104e757600080fd5b806322758a4a1161034957806322758a4a146103eb57806323b872dd146104245780632ab60045146104445780633092afd51461046657600080fd5b806306fdde0314610370578063095ea7b31461039b57806318160ddd146103cb575b600080fd5b34801561037c57600080fd5b50610385610b92565b604051610392919061539e565b60405180910390f35b3480156103a757600080fd5b506103bb6103b63660046153f1565b610c21565b6040519015158152602001610392565b3480156103d757600080fd5b50610206545b604051908152602001610392565b3480156103f757600080fd5b5061020a5461040c906001600160a01b031681565b6040516001600160a01b039091168152602001610392565b34801561043057600080fd5b506103bb61043f36600461541d565b610e04565b34801561045057600080fd5b5061046461045f36600461545e565b61114d565b005b34801561047257600080fd5b506103bb61048136600461545e565b61127a565b34801561049257600080fd5b506103dd7f6e71edae12b1b97f4d1f60370fef10105fa2faae0126114a169c64845d6126c981565b3480156104c657600080fd5b50610201546104d59060ff1681565b60405160ff9091168152602001610392565b3480156104f357600080fd5b5061046461050236600461545e565b61135c565b34801561051357600080fd5b50610464610522366004615551565b611425565b34801561053357600080fd5b506102035461040c906001600160a01b031681565b34801561055457600080fd5b5061046461056336600461545e565b61194a565b34801561057457600080fd5b5060cc546001600160a01b031661040c565b34801561059257600080fd5b506103bb6105a13660046153f1565b611ae8565b3480156105b257600080fd5b506103bb6105c136600461545e565b6001600160a01b03166000908152610209602052604090205460ff1690565b3480156105ec57600080fd5b50610464611ce7565b34801561060157600080fd5b506103bb6106103660046153f1565b611dba565b34801561062157600080fd5b5061046461063036600461562d565b61227c565b34801561064157600080fd5b5061046461065036600461545e565b612561565b34801561066157600080fd5b506103bb6106703660046153f1565b61268f565b610464610683366004615646565b6127cc565b34801561069457600080fd5b506103dd61295b565b3480156106a957600080fd5b506104646106b836600461545e565b612a20565b3480156106c957600080fd5b506104646106d83660046156aa565b612b4d565b3480156106e957600080fd5b506065546103bb90600160a01b900460ff1681565b34801561070a57600080fd5b506103dd61071936600461545e565b6001600160a01b03166000908152610204602052604090205490565b34801561074157600080fd5b506103dd612bae565b34801561075657600080fd5b506103dd61076536600461545e565b6001600160a01b03166000908152610168602052604090205490565b34801561078d57600080fd5b506103dd7fd099cc98ef71107a616c4f0f941f04c322d8e254fe26b3c6668db87aae413de881565b3480156107c157600080fd5b50610464612d54565b3480156107d657600080fd5b506103dd6107e536600461545e565b6001600160a01b03166000908152610208602052604090205490565b34801561080d57600080fd5b506032546001600160a01b031661040c565b34801561082b57600080fd5b506103bb61083a36600461545e565b6001600160a01b031660009081526099602052604090205460ff1690565b34801561086457600080fd5b50610385612e2d565b34801561087957600080fd5b5061046461088836600461545e565b612e3b565b34801561089957600080fd5b5060655461040c906001600160a01b031681565b3480156108b957600080fd5b506103dd7f7c7c6cdb67a18743f49ec6fa9b35f50d52ed05cbed4cc592e13b44501c1a226781565b3480156108ed57600080fd5b506103bb6108fc3660046153f1565b612f09565b34801561090d57600080fd5b506103bb61091c3660046153f1565b613056565b34801561092d57600080fd5b5061046461093c36600461545e565b613227565b34801561094d57600080fd5b506103bb61095c36600461545e565b6001600160a01b03166000908152610207602052604090205460ff1690565b34801561098757600080fd5b5061046461099636600461541d565b613355565b3480156109a757600080fd5b5060985461040c906001600160a01b031681565b3480156109c757600080fd5b506104646109d63660046156fa565b6133ed565b3480156109e757600080fd5b506103dd7f158b0a9edf7a828aad02f63cd515c68ef2f50ba807396f6d12842833a159742981565b348015610a1b57600080fd5b506103dd610a2a366004615768565b6001600160a01b0391821660009081526102056020908152604080832093909416825291909152205490565b348015610a6257600080fd5b50610464610a713660046157a1565b6135d7565b348015610a8257600080fd5b506103856137c5565b348015610a9757600080fd5b50610464610aa636600461545e565b6137d3565b348015610ab757600080fd5b506103bb610ac63660046153f1565b6001600160a01b0391909116600090815261013560209081526040808320938352929052205460ff1690565b348015610afe57600080fd5b50610464610b0d36600461541d565b61389f565b348015610b1e57600080fd5b50610464610b2d3660046157a1565b6138aa565b348015610b3e57600080fd5b50610464610b4d36600461545e565b613a89565b348015610b5e57600080fd5b50610464610b6d36600461545e565b613b54565b348015610b7e57600080fd5b50610464610b8d36600461545e565b613c33565b6101ff8054610ba090615823565b80601f0160208091040260200160405190810160405280929190818152602001828054610bcc90615823565b8015610c195780601f10610bee57610100808354040283529160200191610c19565b820191906000526020600020905b815481529060010190602001808311610bfc57829003601f168201915b505050505081565b606554600090600160a01b900460ff1615610c765760405162461bcd60e51b815260206004820152601060248201526f14185d5cd8589b194e881c185d5cd95960821b60448201526064015b60405180910390fd5b3360008181526099602052604090205460ff1615610ce45760405162461bcd60e51b815260206004820152602560248201527f426c6f636b6c69737461626c653a206163636f756e7420697320626c6f636b6c6044820152641a5cdd195960da1b6064820152608401610c6d565b6001600160a01b038416600090815260996020526040902054849060ff1615610d5d5760405162461bcd60e51b815260206004820152602560248201527f426c6f636b6c69737461626c653a206163636f756e7420697320626c6f636b6c6044820152641a5cdd195960da1b6064820152608401610c6d565b338469152d02c7e14af6800000811115610dec576001600160a01b0382166000908152610209602052604090205460ff16610dec5760405162461bcd60e51b815260206004820152602960248201527f57686974656c69737461626c653a206163636f756e74206973206e6f742077686044820152681a5d195b1a5cdd195960ba1b6064820152608401610c6d565b610df7338888613d60565b5060019695505050505050565b606554600090600160a01b900460ff1615610e545760405162461bcd60e51b815260206004820152601060248201526f14185d5cd8589b194e881c185d5cd95960821b6044820152606401610c6d565b3360008181526099602052604090205460ff1615610ec25760405162461bcd60e51b815260206004820152602560248201527f426c6f636b6c69737461626c653a206163636f756e7420697320626c6f636b6c6044820152641a5cdd195960da1b6064820152608401610c6d565b6001600160a01b038516600090815260996020526040902054859060ff1615610f3b5760405162461bcd60e51b815260206004820152602560248201527f426c6f636b6c69737461626c653a206163636f756e7420697320626c6f636b6c6044820152641a5cdd195960da1b6064820152608401610c6d565b6001600160a01b038516600090815260996020526040902054859060ff1615610fb45760405162461bcd60e51b815260206004820152602560248201527f426c6f636b6c69737461626c653a206163636f756e7420697320626c6f636b6c6044820152641a5cdd195960da1b6064820152608401610c6d565b868569152d02c7e14af6800000811115611043576001600160a01b0382166000908152610209602052604090205460ff166110435760405162461bcd60e51b815260206004820152602960248201527f57686974656c69737461626c653a206163636f756e74206973206e6f742077686044820152681a5d195b1a5cdd195960ba1b6064820152608401610c6d565b6001600160a01b0389166000908152610205602090815260408083203384529091529020548711156110dd5760405162461bcd60e51b815260206004820152602860248201527f45524332303a207472616e7366657220616d6f756e742065786365656473206160448201527f6c6c6f77616e63650000000000000000000000000000000000000000000000006064820152608401610c6d565b6110e8898989613eb1565b6001600160a01b0389166000908152610205602090815260408083203384529091529020546111189088906158a6565b6001600160a01b038a166000908152610205602090815260408083203384529091529020556001955050505050509392505050565b6032546001600160a01b031633146111a75760405162461bcd60e51b815260206004820181905260248201527f4f776e61626c653a2063616c6c6572206973206e6f7420746865206f776e65726044820152606401610c6d565b6001600160a01b0381166112235760405162461bcd60e51b815260206004820152602a60248201527f526573637561626c653a206e6577207265736375657220697320746865207a6560448201527f726f2061646472657373000000000000000000000000000000000000000000006064820152608401610c6d565b60cc805473ffffffffffffffffffffffffffffffffffffffff19166001600160a01b0383169081179091556040517fe475e580d85111348e40d8ca33cfdd74c30fe1655c2d8537a13abc10065ffa5a90600090a250565b610203546000906001600160a01b031633146112fe5760405162461bcd60e51b815260206004820152602960248201527f46696174546f6b656e3a2063616c6c6572206973206e6f7420746865206d617360448201527f7465724d696e74657200000000000000000000000000000000000000000000006064820152608401610c6d565b6001600160a01b038216600081815261020760209081526040808320805460ff19169055610208909152808220829055517fe94479a9f7e1952cc78f2d6baab678adc1b772d936c6583def489e524cb666929190a25060015b919050565b6098546001600160a01b031633146113dc5760405162461bcd60e51b815260206004820152602c60248201527f426c6f636b6c69737461626c653a2063616c6c6572206973206e6f742074686560448201527f20626c6f636b6c697374657200000000000000000000000000000000000000006064820152608401610c6d565b6001600160a01b038116600081815260996020526040808220805460ff19169055517fbc3fe0fc667d12a7a22748747f024a7d971127ffc48f6622675d3e97a2591a519190a250565b61020354600160a01b900460ff16156114a65760405162461bcd60e51b815260206004820152602a60248201527f46696174546f6b656e3a20636f6e747261637420697320616c7265616479206960448201527f6e697469616c697a6564000000000000000000000000000000000000000000006064820152608401610c6d565b6001600160a01b0384166115225760405162461bcd60e51b815260206004820152602f60248201527f46696174546f6b656e3a206e6577206d61737465724d696e746572206973207460448201527f6865207a65726f206164647265737300000000000000000000000000000000006064820152608401610c6d565b6001600160a01b03831661159e5760405162461bcd60e51b815260206004820152602960248201527f46696174546f6b656e3a206e65772070617573657220697320746865207a657260448201527f6f206164647265737300000000000000000000000000000000000000000000006064820152608401610c6d565b6001600160a01b03821661161a5760405162461bcd60e51b815260206004820152602e60248201527f46696174546f6b656e3a206e657720626c6f636b6c697374657220697320746860448201527f65207a65726f20616464726573730000000000000000000000000000000000006064820152608401610c6d565b6001600160a01b0381166116965760405162461bcd60e51b815260206004820152602860248201527f46696174546f6b656e3a206e6577206f776e657220697320746865207a65726f60448201527f20616464726573730000000000000000000000000000000000000000000000006064820152608401610c6d565b87516116aa906101ff9060208b019061525e565b5086516116bf906102009060208a019061525e565b5085516116d49061020290602089019061525e565b50610201805460ff191660ff8716179055610203805473ffffffffffffffffffffffffffffffffffffffff199081166001600160a01b03878116919091179092556065805482168684161790556098805490911691841691909117905561173a816140e3565b306000908152609960205260409020805460ff191660011790556101ff80546118a4919061176790615823565b80601f016020809104026020016040519081016040528092919081815260200182805461179390615823565b80156117e05780601f106117b5576101008083540402835291602001916117e0565b820191906000526020600020905b8154815290600101906020018083116117c357829003601f168201915b5050604080518082018252600181527f310000000000000000000000000000000000000000000000000000000000000060209182015285519581019590952081517f8b73c3c69bb8fe3d512ecc4cf759cc79239f7b179b0ffacaa9a75d522b39400f81880152808301919091527fc89efdaa54c0f20c7adf612882df0950f5a951637e0307cdcb4c672f298b8bc660608201524660808201523060a0808301919091528251808303909101815260c090910190915280519401939093209392505050565b60ff5546610100556101ff805461010191906118bf90615823565b6118ca9291906152e2565b506040805180820190915260018082527f31000000000000000000000000000000000000000000000000000000000000006020909201918252611910916101029161525e565b505061020380547fffffffffffffffffffffff00ffffffffffffffffffffffffffffffffffffffff16600160a01b17905550505050505050565b306001600160a01b037f00000000000000000000000000000000000000000000000000000000000000001614156119e95760405162461bcd60e51b815260206004820152602c60248201527f46756e6374696f6e206d7573742062652063616c6c6564207468726f7567682060448201527f64656c656761746563616c6c00000000000000000000000000000000000000006064820152608401610c6d565b7f00000000000000000000000000000000000000000000000000000000000000006001600160a01b0316611a447f360894a13ba1a3210667c828492db98dca3e2076cc3735a920a3ca505d382bbc546001600160a01b031690565b6001600160a01b031614611ac05760405162461bcd60e51b815260206004820152602c60248201527f46756e6374696f6e206d7573742062652063616c6c6564207468726f7567682060448201527f6163746976652070726f787900000000000000000000000000000000000000006064820152608401610c6d565b611ac981614142565b60408051600080825260208201909252611ae59183919061419c565b50565b606554600090600160a01b900460ff1615611b385760405162461bcd60e51b815260206004820152601060248201526f14185d5cd8589b194e881c185d5cd95960821b6044820152606401610c6d565b3360008181526099602052604090205460ff1615611ba65760405162461bcd60e51b815260206004820152602560248201527f426c6f636b6c69737461626c653a206163636f756e7420697320626c6f636b6c6044820152641a5cdd195960da1b6064820152608401610c6d565b6001600160a01b038416600090815260996020526040902054849060ff1615611c1f5760405162461bcd60e51b815260206004820152602560248201527f426c6f636b6c69737461626c653a206163636f756e7420697320626c6f636b6c6044820152641a5cdd195960da1b6064820152608401610c6d565b336000818152610205602090815260408083206001600160a01b038a168452909152902054611c4f9086906158bd565b69152d02c7e14af6800000811115611cdc576001600160a01b0382166000908152610209602052604090205460ff16611cdc5760405162461bcd60e51b815260206004820152602960248201527f57686974656c69737461626c653a206163636f756e74206973206e6f742077686044820152681a5d195b1a5cdd195960ba1b6064820152608401610c6d565b610df733888861433c565b6065546001600160a01b03163314611d675760405162461bcd60e51b815260206004820152602260248201527f5061757361626c653a2063616c6c6572206973206e6f7420746865207061757360448201527f65720000000000000000000000000000000000000000000000000000000000006064820152608401610c6d565b606580547fffffffffffffffffffffff00ffffffffffffffffffffffffffffffffffffffff1690556040517f7805862f689e2f13df9f062ff482ad3ad112aca9e0847911ed832e158c525b3390600090a1565b606554600090600160a01b900460ff1615611e0a5760405162461bcd60e51b815260206004820152601060248201526f14185d5cd8589b194e881c185d5cd95960821b6044820152606401610c6d565b336000908152610207602052604090205460ff16611e905760405162461bcd60e51b815260206004820152602160248201527f46696174546f6b656e3a2063616c6c6572206973206e6f742061206d696e746560448201527f72000000000000000000000000000000000000000000000000000000000000006064820152608401610c6d565b3360008181526099602052604090205460ff1615611efe5760405162461bcd60e51b815260206004820152602560248201527f426c6f636b6c69737461626c653a206163636f756e7420697320626c6f636b6c6044820152641a5cdd195960da1b6064820152608401610c6d565b6001600160a01b038416600090815260996020526040902054849060ff1615611f775760405162461bcd60e51b815260206004820152602560248201527f426c6f636b6c69737461626c653a206163636f756e7420697320626c6f636b6c6044820152641a5cdd195960da1b6064820152608401610c6d565b338469152d02c7e14af6800000811115612006576001600160a01b0382166000908152610209602052604090205460ff166120065760405162461bcd60e51b815260206004820152602960248201527f57686974656c69737461626c653a206163636f756e74206973206e6f742077686044820152681a5d195b1a5cdd195960ba1b6064820152608401610c6d565b6001600160a01b0387166120825760405162461bcd60e51b815260206004820152602360248201527f46696174546f6b656e3a206d696e7420746f20746865207a65726f206164647260448201527f65737300000000000000000000000000000000000000000000000000000000006064820152608401610c6d565b600086116120f85760405162461bcd60e51b815260206004820152602960248201527f46696174546f6b656e3a206d696e7420616d6f756e74206e6f7420677265617460448201527f6572207468616e203000000000000000000000000000000000000000000000006064820152608401610c6d565b33600090815261020860205260409020548087111561217f5760405162461bcd60e51b815260206004820152602e60248201527f46696174546f6b656e3a206d696e7420616d6f756e742065786365656473206d60448201527f696e746572416c6c6f77616e63650000000000000000000000000000000000006064820152608401610c6d565b866102065461218e91906158bd565b610206556001600160a01b038816600090815261020460205260409020546121b79088906158bd565b6001600160a01b038916600090815261020460205260409020556121db87826158a6565b336000818152610208602090815260409182902093909355518981526001600160a01b038b16927fab8530f87dc9b59234c4623bf917212bb2536d647574c8e7e5da92c2ede0c9f8910160405180910390a36040518781526001600160a01b038916906000907fddf252ad1be2c89b69c2b068fc378daa952ba7f163c4a11628f55a4df523b3ef9060200160405180910390a3506001979650505050505050565b606554600160a01b900460ff16156122c95760405162461bcd60e51b815260206004820152601060248201526f14185d5cd8589b194e881c185d5cd95960821b6044820152606401610c6d565b336000908152610207602052604090205460ff1661234f5760405162461bcd60e51b815260206004820152602160248201527f46696174546f6b656e3a2063616c6c6572206973206e6f742061206d696e746560448201527f72000000000000000000000000000000000000000000000000000000000000006064820152608401610c6d565b3360008181526099602052604090205460ff16156123bd5760405162461bcd60e51b815260206004820152602560248201527f426c6f636b6c69737461626c653a206163636f756e7420697320626c6f636b6c6044820152641a5cdd195960da1b6064820152608401610c6d565b3360009081526102046020526040902054826124415760405162461bcd60e51b815260206004820152602960248201527f46696174546f6b656e3a206275726e20616d6f756e74206e6f7420677265617460448201527f6572207468616e203000000000000000000000000000000000000000000000006064820152608401610c6d565b828110156124b75760405162461bcd60e51b815260206004820152602660248201527f46696174546f6b656e3a206275726e20616d6f756e742065786365656473206260448201527f616c616e636500000000000000000000000000000000000000000000000000006064820152608401610c6d565b82610206546124c691906158a6565b610206556124d483826158a6565b3360008181526102046020526040908190209290925590517fcc16f5dbb4873280815c1ee09dbd06736cffcc184412cf7a71a0fdb75d397ca59061251b9086815260200190565b60405180910390a260405183815260009033907fddf252ad1be2c89b69c2b068fc378daa952ba7f163c4a11628f55a4df523b3ef906020015b60405180910390a3505050565b6032546001600160a01b031633146125bb5760405162461bcd60e51b815260206004820181905260248201527f4f776e61626c653a2063616c6c6572206973206e6f7420746865206f776e65726044820152606401610c6d565b6001600160a01b0381166126375760405162461bcd60e51b815260206004820152603260248201527f57686974656c69737461626c653a206e65772077686974656c6973746572206960448201527f7320746865207a65726f206164647265737300000000000000000000000000006064820152608401610c6d565b61020a805473ffffffffffffffffffffffffffffffffffffffff19166001600160a01b0383169081179091556040517f800d1de693142e2c37ef233754d1d9e7edc8ae28d34204ddf3e180c02d0b009e90600090a250565b606554600090600160a01b900460ff16156126df5760405162461bcd60e51b815260206004820152601060248201526f14185d5cd8589b194e881c185d5cd95960821b6044820152606401610c6d565b610203546001600160a01b031633146127605760405162461bcd60e51b815260206004820152602960248201527f46696174546f6b656e3a2063616c6c6572206973206e6f7420746865206d617360448201527f7465724d696e74657200000000000000000000000000000000000000000000006064820152608401610c6d565b6001600160a01b038316600081815261020760209081526040808320805460ff1916600117905561020882529182902085905590518481527f46980fca912ef9bcdbd36877427b6b90e860769f604e89c0e67720cece530d20910160405180910390a250600192915050565b306001600160a01b037f000000000000000000000000000000000000000000000000000000000000000016141561286b5760405162461bcd60e51b815260206004820152602c60248201527f46756e6374696f6e206d7573742062652063616c6c6564207468726f7567682060448201527f64656c656761746563616c6c00000000000000000000000000000000000000006064820152608401610c6d565b7f00000000000000000000000000000000000000000000000000000000000000006001600160a01b03166128c67f360894a13ba1a3210667c828492db98dca3e2076cc3735a920a3ca505d382bbc546001600160a01b031690565b6001600160a01b0316146129425760405162461bcd60e51b815260206004820152602c60248201527f46756e6374696f6e206d7573742062652063616c6c6564207468726f7567682060448201527f6163746976652070726f787900000000000000000000000000000000000000006064820152608401610c6d565b61294b82614142565b6129578282600161419c565b5050565b6000306001600160a01b037f000000000000000000000000000000000000000000000000000000000000000016146129fb5760405162461bcd60e51b815260206004820152603860248201527f555550535570677261646561626c653a206d757374206e6f742062652063616c60448201527f6c6564207468726f7567682064656c656761746563616c6c00000000000000006064820152608401610c6d565b507f360894a13ba1a3210667c828492db98dca3e2076cc3735a920a3ca505d382bbc90565b6032546001600160a01b03163314612a7a5760405162461bcd60e51b815260206004820181905260248201527f4f776e61626c653a2063616c6c6572206973206e6f7420746865206f776e65726044820152606401610c6d565b6001600160a01b038116612af65760405162461bcd60e51b815260206004820152602860248201527f5061757361626c653a206e65772070617573657220697320746865207a65726f60448201527f20616464726573730000000000000000000000000000000000000000000000006064820152608401610c6d565b6065805473ffffffffffffffffffffffffffffffffffffffff19166001600160a01b0383169081179091556040517fb80482a293ca2e013eda8683c9bd7fc8347cfdaeea5ede58cba46df502c2a60490600090a250565b606554600160a01b900460ff1615612b9a5760405162461bcd60e51b815260206004820152601060248201526f14185d5cd8589b194e881c185d5cd95960821b6044820152606401610c6d565b612ba7858585858561437b565b5050505050565b600061010054461415612bc2575060ff5490565b612d4f6101018054612bd390615823565b80601f0160208091040260200160405190810160405280929190818152602001828054612bff90615823565b8015612c4c5780601f10612c2157610100808354040283529160200191612c4c565b820191906000526020600020905b815481529060010190602001808311612c2f57829003601f168201915b50505050506101028054612c5f90615823565b80601f0160208091040260200160405190810160405280929190818152602001828054612c8b90615823565b8015612cd85780601f10612cad57610100808354040283529160200191612cd8565b820191906000526020600020905b815481529060010190602001808311612cbb57829003601f168201915b50505050508151602092830120815191830191909120604080517f8b73c3c69bb8fe3d512ecc4cf759cc79239f7b179b0ffacaa9a75d522b39400f818601528082019390935260608301919091524660808301523060a0808401919091528151808403909101815260c09092019052805191012090565b905090565b6065546001600160a01b03163314612dd45760405162461bcd60e51b815260206004820152602260248201527f5061757361626c653a2063616c6c6572206973206e6f7420746865207061757360448201527f65720000000000000000000000000000000000000000000000000000000000006064820152608401610c6d565b606580547fffffffffffffffffffffff00ffffffffffffffffffffffffffffffffffffffff16600160a01b1790556040517f6985a02210a168e66602d3235cb6db0e70f92b3ba4d376a33c0f3d9434bff62590600090a1565b6102008054610ba090615823565b61020a546001600160a01b03163314612ebc5760405162461bcd60e51b815260206004820152602c60248201527f57686974656c69737461626c653a2063616c6c6572206973206e6f742074686560448201527f2077686974656c697374657200000000000000000000000000000000000000006064820152608401610c6d565b6001600160a01b03811660008181526102096020526040808220805460ff19166001179055517faab7954e9d246b167ef88aeddad35209ca2489d95a8aeb59e288d9b19fae5a549190a250565b606554600090600160a01b900460ff1615612f595760405162461bcd60e51b815260206004820152601060248201526f14185d5cd8589b194e881c185d5cd95960821b6044820152606401610c6d565b3360008181526099602052604090205460ff1615612fc75760405162461bcd60e51b815260206004820152602560248201527f426c6f636b6c69737461626c653a206163636f756e7420697320626c6f636b6c6044820152641a5cdd195960da1b6064820152608401610c6d565b6001600160a01b038416600090815260996020526040902054849060ff16156130405760405162461bcd60e51b815260206004820152602560248201527f426c6f636b6c69737461626c653a206163636f756e7420697320626c6f636b6c6044820152641a5cdd195960da1b6064820152608401610c6d565b61304b3386866144a3565b506001949350505050565b606554600090600160a01b900460ff16156130a65760405162461bcd60e51b815260206004820152601060248201526f14185d5cd8589b194e881c185d5cd95960821b6044820152606401610c6d565b3360008181526099602052604090205460ff16156131145760405162461bcd60e51b815260206004820152602560248201527f426c6f636b6c69737461626c653a206163636f756e7420697320626c6f636b6c6044820152641a5cdd195960da1b6064820152608401610c6d565b6001600160a01b038416600090815260996020526040902054849060ff161561318d5760405162461bcd60e51b815260206004820152602560248201527f426c6f636b6c69737461626c653a206163636f756e7420697320626c6f636b6c6044820152641a5cdd195960da1b6064820152608401610c6d565b338469152d02c7e14af680000081111561321c576001600160a01b0382166000908152610209602052604090205460ff1661321c5760405162461bcd60e51b815260206004820152602960248201527f57686974656c69737461626c653a206163636f756e74206973206e6f742077686044820152681a5d195b1a5cdd195960ba1b6064820152608401610c6d565b610df7338888613eb1565b6032546001600160a01b031633146132815760405162461bcd60e51b815260206004820181905260248201527f4f776e61626c653a2063616c6c6572206973206e6f7420746865206f776e65726044820152606401610c6d565b6001600160a01b0381166132fd5760405162461bcd60e51b815260206004820152602f60248201527f46696174546f6b656e3a206e6577206d61737465724d696e746572206973207460448201527f6865207a65726f206164647265737300000000000000000000000000000000006064820152608401610c6d565b610203805473ffffffffffffffffffffffffffffffffffffffff19166001600160a01b0383169081179091556040517fdb66dfa9c6b8f5226fe9aac7e51897ae8ee94ac31dc70bb6c9900b2574b707e690600090a250565b60cc546001600160a01b031633146133d45760405162461bcd60e51b8152602060048201526024808201527f526573637561626c653a2063616c6c6572206973206e6f74207468652072657360448201527f63756572000000000000000000000000000000000000000000000000000000006064820152608401610c6d565b6133e86001600160a01b0384168383614579565b505050565b606554600160a01b900460ff161561343a5760405162461bcd60e51b815260206004820152601060248201526f14185d5cd8589b194e881c185d5cd95960821b6044820152606401610c6d565b6001600160a01b038716600090815260996020526040902054879060ff16156134b35760405162461bcd60e51b815260206004820152602560248201527f426c6f636b6c69737461626c653a206163636f756e7420697320626c6f636b6c6044820152641a5cdd195960da1b6064820152608401610c6d565b6001600160a01b038716600090815260996020526040902054879060ff161561352c5760405162461bcd60e51b815260206004820152602560248201527f426c6f636b6c69737461626c653a206163636f756e7420697320626c6f636b6c6044820152641a5cdd195960da1b6064820152608401610c6d565b888769152d02c7e14af68000008111156135bb576001600160a01b0382166000908152610209602052604090205460ff166135bb5760405162461bcd60e51b815260206004820152602960248201527f57686974656c69737461626c653a206163636f756e74206973206e6f742077686044820152681a5d195b1a5cdd195960ba1b6064820152608401610c6d565b6135ca8b8b8b8b8b8b8b6145f9565b5050505050505050505050565b606554600160a01b900460ff16156136245760405162461bcd60e51b815260206004820152601060248201526f14185d5cd8589b194e881c185d5cd95960821b6044820152606401610c6d565b6001600160a01b038916600090815260996020526040902054899060ff161561369d5760405162461bcd60e51b815260206004820152602560248201527f426c6f636b6c69737461626c653a206163636f756e7420697320626c6f636b6c6044820152641a5cdd195960da1b6064820152608401610c6d565b6001600160a01b038916600090815260996020526040902054899060ff16156137165760405162461bcd60e51b815260206004820152602560248201527f426c6f636b6c69737461626c653a206163636f756e7420697320626c6f636b6c6044820152641a5cdd195960da1b6064820152608401610c6d565b8a8969152d02c7e14af68000008111156137a5576001600160a01b0382166000908152610209602052604090205460ff166137a55760405162461bcd60e51b815260206004820152602960248201527f57686974656c69737461626c653a206163636f756e74206973206e6f742077686044820152681a5d195b1a5cdd195960ba1b6064820152608401610c6d565b6137b68d8d8d8d8d8d8d8d8d614764565b50505050505050505050505050565b6102028054610ba090615823565b6098546001600160a01b031633146138535760405162461bcd60e51b815260206004820152602c60248201527f426c6f636b6c69737461626c653a2063616c6c6572206973206e6f742074686560448201527f20626c6f636b6c697374657200000000000000000000000000000000000000006064820152608401610c6d565b6001600160a01b038116600081815260996020526040808220805460ff19166001179055517f917c251bb231c4b997a420bebe47edad5c20e70715da16c38e9b2e172e44ab929190a250565b6133e8838383613d60565b606554600160a01b900460ff16156138f75760405162461bcd60e51b815260206004820152601060248201526f14185d5cd8589b194e881c185d5cd95960821b6044820152606401610c6d565b6001600160a01b038916600090815260996020526040902054899060ff16156139705760405162461bcd60e51b815260206004820152602560248201527f426c6f636b6c69737461626c653a206163636f756e7420697320626c6f636b6c6044820152641a5cdd195960da1b6064820152608401610c6d565b6001600160a01b038916600090815260996020526040902054899060ff16156139e95760405162461bcd60e51b815260206004820152602560248201527f426c6f636b6c69737461626c653a206163636f756e7420697320626c6f636b6c6044820152641a5cdd195960da1b6064820152608401610c6d565b8a8969152d02c7e14af6800000811115613a78576001600160a01b0382166000908152610209602052604090205460ff16613a785760405162461bcd60e51b815260206004820152602960248201527f57686974656c69737461626c653a206163636f756e74206973206e6f742077686044820152681a5d195b1a5cdd195960ba1b6064820152608401610c6d565b6137b68d8d8d8d8d8d8d8d8d614875565b61020a546001600160a01b03163314613b0a5760405162461bcd60e51b815260206004820152602c60248201527f57686974656c69737461626c653a2063616c6c6572206973206e6f742074686560448201527f2077686974656c697374657200000000000000000000000000000000000000006064820152608401610c6d565b6001600160a01b03811660008181526102096020526040808220805460ff19169055517f7cdb51b0cc2e541ad7e9471c358de415f5dbaff6cca78e3393d445346c610c1b9190a250565b6032546001600160a01b03163314613bae5760405162461bcd60e51b815260206004820181905260248201527f4f776e61626c653a2063616c6c6572206973206e6f7420746865206f776e65726044820152606401610c6d565b6001600160a01b038116613c2a5760405162461bcd60e51b815260206004820152602660248201527f4f776e61626c653a206e6577206f776e657220697320746865207a65726f206160448201527f64647265737300000000000000000000000000000000000000000000000000006064820152608401610c6d565b611ae5816140e3565b6032546001600160a01b03163314613c8d5760405162461bcd60e51b815260206004820181905260248201527f4f776e61626c653a2063616c6c6572206973206e6f7420746865206f776e65726044820152606401610c6d565b6001600160a01b038116613d095760405162461bcd60e51b815260206004820152603260248201527f426c6f636b6c69737461626c653a206e657720626c6f636b6c6973746572206960448201527f7320746865207a65726f206164647265737300000000000000000000000000006064820152608401610c6d565b6098805473ffffffffffffffffffffffffffffffffffffffff19166001600160a01b0383169081179091556040517f68f10ceb42d30acc930aaaedf5b94559e14fc4f22496dc2c1b38b1b1b5231f9890600090a250565b6001600160a01b038316613ddb5760405162461bcd60e51b8152602060048201526024808201527f45524332303a20617070726f76652066726f6d20746865207a65726f2061646460448201527f72657373000000000000000000000000000000000000000000000000000000006064820152608401610c6d565b6001600160a01b038216613e575760405162461bcd60e51b815260206004820152602260248201527f45524332303a20617070726f766520746f20746865207a65726f20616464726560448201527f73730000000000000000000000000000000000000000000000000000000000006064820152608401610c6d565b6001600160a01b038381166000818152610205602090815260408083209487168084529482529182902085905590518481527f8c5be1e5ebec7d5bd14f71427d1e84f3dd0314c0f7b2291e5b200ac8c7c3b9259101612554565b6001600160a01b038316613f2d5760405162461bcd60e51b815260206004820152602560248201527f45524332303a207472616e736665722066726f6d20746865207a65726f20616460448201527f64726573730000000000000000000000000000000000000000000000000000006064820152608401610c6d565b6001600160a01b038216613fa95760405162461bcd60e51b815260206004820152602360248201527f45524332303a207472616e7366657220746f20746865207a65726f206164647260448201527f65737300000000000000000000000000000000000000000000000000000000006064820152608401610c6d565b6001600160a01b038316600090815261020460205260409020548111156140385760405162461bcd60e51b815260206004820152602660248201527f45524332303a207472616e7366657220616d6f756e742065786365656473206260448201527f616c616e636500000000000000000000000000000000000000000000000000006064820152608401610c6d565b6001600160a01b0383166000908152610204602052604090205461405d9082906158a6565b6001600160a01b0380851660009081526102046020526040808220939093559084168152205461408e9082906158bd565b6001600160a01b038084166000818152610204602052604090819020939093559151908516907fddf252ad1be2c89b69c2b068fc378daa952ba7f163c4a11628f55a4df523b3ef906125549085815260200190565b603280546001600160a01b0383811673ffffffffffffffffffffffffffffffffffffffff19831681179093556040519116919082907f8be0079c531659141344cd1fd0a4f28419497f9722a3daafe3b4186f6b6457e090600090a35050565b6032546001600160a01b03163314611ae55760405162461bcd60e51b815260206004820181905260248201527f4f776e61626c653a2063616c6c6572206973206e6f7420746865206f776e65726044820152606401610c6d565b7f4910fdfa16fed3260ed0e7147f7cc6da11a60208b5b9406d12a635614ffd91435460ff16156141cf576133e88361496b565b826001600160a01b03166352d1902d6040518163ffffffff1660e01b8152600401602060405180830381865afa925050508015614229575060408051601f3d908101601f19168201909252614226918101906158d5565b60015b61429b5760405162461bcd60e51b815260206004820152602e60248201527f45524331393637557067726164653a206e657720696d706c656d656e7461746960448201527f6f6e206973206e6f7420555550530000000000000000000000000000000000006064820152608401610c6d565b7f360894a13ba1a3210667c828492db98dca3e2076cc3735a920a3ca505d382bbc81146143305760405162461bcd60e51b815260206004820152602960248201527f45524331393637557067726164653a20756e737570706f727465642070726f7860448201527f6961626c655555494400000000000000000000000000000000000000000000006064820152608401610c6d565b506133e8838383614a2d565b6001600160a01b03808416600090815261020560209081526040808320938616835292905220546133e890849084906143769085906158bd565b613d60565b6143858585614a58565b604080517f158b0a9edf7a828aad02f63cd515c68ef2f50ba807396f6d12842833a159742960208201526001600160a01b0387168183018190526060808301889052835180840390910181526080909201909252906143ee6143e5612bae565b86868686614af3565b6001600160a01b0316146144445760405162461bcd60e51b815260206004820152601a60248201527f454950333030393a20696e76616c6964207369676e61747572650000000000006044820152606401610c6d565b6001600160a01b038616600081815261013560209081526040808320898452909152808220805460ff19166001179055518792917f1cdd46ff242716cdaa72d159d339a485b3438398348d68f09d7c8c0a59353d8191a3505050505050565b6001600160a01b038084166000908152610205602090815260408083209386168352929052205481111561453f5760405162461bcd60e51b815260206004820152602560248201527f45524332303a2064656372656173656420616c6c6f77616e63652062656c6f7760448201527f207a65726f0000000000000000000000000000000000000000000000000000006064820152608401610c6d565b6001600160a01b03808416600090815261020560209081526040808320938616835292905220546133e890849084906143769085906158a6565b604080516001600160a01b038416602482015260448082018490528251808303909101815260649091019091526020810180517bffffffffffffffffffffffffffffffffffffffffffffffffffffffff167fa9059cbb000000000000000000000000000000000000000000000000000000001790526133e8908490614b70565b428410156146495760405162461bcd60e51b815260206004820152601a60248201527f454950323631323a207065726d697420697320657870697265640000000000006044820152606401610c6d565b6001600160a01b03871660009081526101686020526040812080547f6e71edae12b1b97f4d1f60370fef10105fa2faae0126114a169c64845d6126c9918a918a918a919086614697836158ee565b909155506040805160208101969096526001600160a01b0394851690860152929091166060840152608083015260a082015260c0810186905260e0016040516020818303038152906040529050876001600160a01b03166146f96143e5612bae565b6001600160a01b03161461474f5760405162461bcd60e51b815260206004820152601a60248201527f454950323631323a20696e76616c6964207369676e61747572650000000000006044820152606401610c6d565b61475a888888613d60565b5050505050505050565b61477089858888614c55565b604080517f7c7c6cdb67a18743f49ec6fa9b35f50d52ed05cbed4cc592e13b44501c1a226760208201526001600160a01b03808c169282019290925290891660608201526080810188905260a0810187905260c0810186905260e08101859052600090610100015b6040516020818303038152906040529050896001600160a01b03166147fe6143e5612bae565b6001600160a01b0316146148545760405162461bcd60e51b815260206004820152601a60248201527f454950333030393a20696e76616c6964207369676e61747572650000000000006044820152606401610c6d565b61485e8a86614d49565b6148698a8a8a613eb1565b50505050505050505050565b6001600160a01b03881633146148f35760405162461bcd60e51b815260206004820152602160248201527f454950333030393a2063616c6c6572206d75737420626520746865207061796560448201527f65000000000000000000000000000000000000000000000000000000000000006064820152608401610c6d565b6148ff89858888614c55565b604080517fd099cc98ef71107a616c4f0f941f04c322d8e254fe26b3c6668db87aae413de860208201526001600160a01b03808c169282019290925290891660608201526080810188905260a0810187905260c0810186905260e08101859052600090610100016147d8565b803b6149df5760405162461bcd60e51b815260206004820152602d60248201527f455243313936373a206e657720696d706c656d656e746174696f6e206973206e60448201527f6f74206120636f6e7472616374000000000000000000000000000000000000006064820152608401610c6d565b7f360894a13ba1a3210667c828492db98dca3e2076cc3735a920a3ca505d382bbc805473ffffffffffffffffffffffffffffffffffffffff19166001600160a01b0392909216919091179055565b614a3683614da4565b600082511180614a435750805b156133e857614a528383614de4565b50505050565b6001600160a01b03821660009081526101356020908152604080832084845290915290205460ff16156129575760405162461bcd60e51b815260206004820152602a60248201527f454950333030393a20617574686f72697a6174696f6e2069732075736564206f60448201527f722063616e63656c6564000000000000000000000000000000000000000000006064820152608401610c6d565b600080868380519060200120604051602001614b419291907f190100000000000000000000000000000000000000000000000000000000000081526002810192909252602282015260420190565b604051602081830303815290604052805190602001209050614b6581878787614e10565b979650505050505050565b6000614bc5826040518060400160405280602081526020017f5361666545524332303a206c6f772d6c6576656c2063616c6c206661696c6564815250856001600160a01b0316614ff39092919063ffffffff16565b8051909150156133e85780806020019051810190614be39190615927565b6133e85760405162461bcd60e51b815260206004820152602a60248201527f5361666545524332303a204552433230206f7065726174696f6e20646964206e60448201527f6f742073756363656564000000000000000000000000000000000000000000006064820152608401610c6d565b814211614cca5760405162461bcd60e51b815260206004820152602860248201527f46454950333030393a20617574686f72697a6174696f6e206973206e6f74207960448201527f65742076616c69640000000000000000000000000000000000000000000000006064820152608401610c6d565b804210614d3f5760405162461bcd60e51b815260206004820152602160248201527f454950333030393a20617574686f72697a6174696f6e2069732065787069726560448201527f64000000000000000000000000000000000000000000000000000000000000006064820152608401610c6d565b614a528484614a58565b6001600160a01b038216600081815261013560209081526040808320858452909152808220805460ff19166001179055518392917f98de503528ee59b575ef0c0a2576a82497bfc029a5685b209e9ec333479b10a591a35050565b614dad8161496b565b6040516001600160a01b038216907fbc7cd75a20ee27fd9adebab32041f755214dbc6bffa90cc0225b39da2e5c2d3b90600090a250565b6060614e0983836040518060600160405280602781526020016159666027913961500a565b9392505050565b60007f7fffffffffffffffffffffffffffffff5d576e7357a4501ddfe92f46681b20a0821115614ea85760405162461bcd60e51b815260206004820152602660248201527f45435265636f7665723a20696e76616c6964207369676e61747572652027732760448201527f2076616c756500000000000000000000000000000000000000000000000000006064820152608401610c6d565b8360ff16601b14158015614ec057508360ff16601c14155b15614f335760405162461bcd60e51b815260206004820152602660248201527f45435265636f7665723a20696e76616c6964207369676e61747572652027762760448201527f2076616c756500000000000000000000000000000000000000000000000000006064820152608401610c6d565b6040805160008082526020820180845288905260ff871692820192909252606081018590526080810184905260019060a0016020604051602081039080840390855afa158015614f87573d6000803e3d6000fd5b5050604051601f1901519150506001600160a01b038116614fea5760405162461bcd60e51b815260206004820152601c60248201527f45435265636f7665723a20696e76616c6964207369676e6174757265000000006044820152606401610c6d565b95945050505050565b606061500284846000856150f5565b949350505050565b6060833b6150805760405162461bcd60e51b815260206004820152602660248201527f416464726573733a2064656c65676174652063616c6c20746f206e6f6e2d636f60448201527f6e747261637400000000000000000000000000000000000000000000000000006064820152608401610c6d565b600080856001600160a01b03168560405161509b9190615949565b600060405180830381855af49150503d80600081146150d6576040519150601f19603f3d011682016040523d82523d6000602084013e6150db565b606091505b50915091506150eb828286615225565b9695505050505050565b60608247101561516d5760405162461bcd60e51b815260206004820152602660248201527f416464726573733a20696e73756666696369656e742062616c616e636520666f60448201527f722063616c6c00000000000000000000000000000000000000000000000000006064820152608401610c6d565b843b6151bb5760405162461bcd60e51b815260206004820152601d60248201527f416464726573733a2063616c6c20746f206e6f6e2d636f6e74726163740000006044820152606401610c6d565b600080866001600160a01b031685876040516151d79190615949565b60006040518083038185875af1925050503d8060008114615214576040519150601f19603f3d011682016040523d82523d6000602084013e615219565b606091505b5091509150614b658282865b60608315615234575081614e09565b8251156152445782518084602001fd5b8160405162461bcd60e51b8152600401610c6d919061539e565b82805461526a90615823565b90600052602060002090601f01602090048101928261528c57600085556152d2565b82601f106152a557805160ff19168380011785556152d2565b828001600101855582156152d2579182015b828111156152d25782518255916020019190600101906152b7565b506152de92915061535d565b5090565b8280546152ee90615823565b90600052602060002090601f01602090048101928261531057600085556152d2565b82601f1061532157805485556152d2565b828001600101855582156152d257600052602060002091601f016020900482015b828111156152d2578254825591600101919060010190615342565b5b808211156152de576000815560010161535e565b60005b8381101561538d578181015183820152602001615375565b83811115614a525750506000910152565b60208152600082518060208401526153bd816040850160208701615372565b601f01601f19169190910160400192915050565b6001600160a01b0381168114611ae557600080fd5b8035611357816153d1565b6000806040838503121561540457600080fd5b823561540f816153d1565b946020939093013593505050565b60008060006060848603121561543257600080fd5b833561543d816153d1565b9250602084013561544d816153d1565b929592945050506040919091013590565b60006020828403121561547057600080fd5b8135614e09816153d1565b7f4e487b7100000000000000000000000000000000000000000000000000000000600052604160045260246000fd5b600067ffffffffffffffff808411156154c5576154c561547b565b604051601f8501601f19908116603f011681019082821181831017156154ed576154ed61547b565b8160405280935085815286868601111561550657600080fd5b858560208301376000602087830101525050509392505050565b600082601f83011261553157600080fd5b614e09838335602085016154aa565b803560ff8116811461135757600080fd5b600080600080600080600080610100898b03121561556e57600080fd5b883567ffffffffffffffff8082111561558657600080fd5b6155928c838d01615520565b995060208b01359150808211156155a857600080fd5b6155b48c838d01615520565b985060408b01359150808211156155ca57600080fd5b506155d78b828c01615520565b9650506155e660608a01615540565b94506155f460808a016153e6565b935061560260a08a016153e6565b925061561060c08a016153e6565b915061561e60e08a016153e6565b90509295985092959890939650565b60006020828403121561563f57600080fd5b5035919050565b6000806040838503121561565957600080fd5b8235615664816153d1565b9150602083013567ffffffffffffffff81111561568057600080fd5b8301601f8101851361569157600080fd5b6156a0858235602084016154aa565b9150509250929050565b600080600080600060a086880312156156c257600080fd5b85356156cd816153d1565b9450602086013593506156e260408701615540565b94979396509394606081013594506080013592915050565b600080600080600080600060e0888a03121561571557600080fd5b8735615720816153d1565b96506020880135615730816153d1565b9550604088013594506060880135935061574c60808901615540565b925060a0880135915060c0880135905092959891949750929550565b6000806040838503121561577b57600080fd5b8235615786816153d1565b91506020830135615796816153d1565b809150509250929050565b60008060008060008060008060006101208a8c0312156157c057600080fd5b89356157cb816153d1565b985060208a01356157db816153d1565b975060408a0135965060608a0135955060808a0135945060a08a0135935061580560c08b01615540565b925060e08a013591506101008a013590509295985092959850929598565b600181811c9082168061583757607f821691505b60208210811415615871577f4e487b7100000000000000000000000000000000000000000000000000000000600052602260045260246000fd5b50919050565b7f4e487b7100000000000000000000000000000000000000000000000000000000600052601160045260246000fd5b6000828210156158b8576158b8615877565b500390565b600082198211156158d0576158d0615877565b500190565b6000602082840312156158e757600080fd5b5051919050565b60007fffffffffffffffffffffffffffffffffffffffffffffffffffffffffffffffff82141561592057615920615877565b5060010190565b60006020828403121561593957600080fd5b81518015158114614e0957600080fd5b6000825161595b818460208701615372565b919091019291505056fe416464726573733a206c6f772d6c6576656c2064656c65676174652063616c6c206661696c6564a26469706673582212209644060353be79ec6e6ecc6365b71e6c744605945af4797becc4e6ae199b65ed64736f6c634300080b0033",
  "linkReferences": {},
  "deployedLinkReferences": {}
}