{
  "_format": "hh-sol-artifact-1",
  "contractName": "EIP712Domain",
  "sourceName": "contracts/v1/EIP712Domain.sol",
  "abi": [
    {
      "inputs": [],
      "name": "_domainSeparatorV4",
      "outputs": [
        {
          "internalType": "bytes32",
          "name": "",
          "type": "bytes32"
        }
      ],
      "stateMutability": "view",
      "type": "function"
    }
  ],
  "bytecode": "0x608060405234801561001057600080fd5b50610277806100206000396000f3fe608060405234801561001057600080fd5b506004361061002b5760003560e01c80637b134b4c14610030575b600080fd5b61003861004a565b60405190815260200160405180910390f35b600060015446141561005d575060005490565b6101e86002805461006d906101ed565b80601f0160208091040260200160405190810160405280929190818152602001828054610099906101ed565b80156100e65780601f106100bb576101008083540402835291602001916100e6565b820191906000526020600020905b8154815290600101906020018083116100c957829003601f168201915b5050505050600380546100f8906101ed565b80601f0160208091040260200160405190810160405280929190818152602001828054610124906101ed565b80156101715780601f1061014657610100808354040283529160200191610171565b820191906000526020600020905b81548152906001019060200180831161015457829003601f168201915b50505050508151602092830120815191830191909120604080517f8b73c3c69bb8fe3d512ecc4cf759cc79239f7b179b0ffacaa9a75d522b39400f818601528082019390935260608301919091524660808301523060a0808401919091528151808403909101815260c09092019052805191012090565b905090565b600181811c9082168061020157607f821691505b6020821081141561023b577f4e487b7100000000000000000000000000000000000000000000000000000000600052602260045260246000fd5b5091905056fea2646970667358221220dd067231cf8e8d28f624d8795dbe20f3ba8b143543c87e4e2f094699b4889f1964736f6c634300080b0033",
  "linkReferences": {},
  "deployedLinkReferences": {}
}