{
  "_format": "hh-sol-artifact-1",
  "contractName": "ContractCall",
  "sourceName": "contracts/test/ContractCall.sol",
  "abi": [
    {
      "inputs": [
        {
          "internalType": "address",
          "name": "target",
          "type": "address"
        },
        {
          "internalType": "bytes",
          "name": "data",
          "type": "bytes"
        }
      ],
      "name": "functionCall",
      "outputs": [],
      "stateMutability": "nonpayable",
      "type": "function"
    }
  ],
  "bytecode": "0x608060405234801561001057600080fd5b50610463806100206000396000f3fe608060405234801561001057600080fd5b506004361061002b5760003560e01c8063a0b5ffb014610030575b600080fd5b61004361003e3660046102d1565b610045565b005b61006573ffffffffffffffffffffffffffffffffffffffff83168261006a565b505050565b60606100ac83836040518060400160405280601e81526020017f416464726573733a206c6f772d6c6576656c2063616c6c206661696c656400008152506100b3565b9392505050565b60606100c284846000856100ca565b949350505050565b606082471015610161576040517f08c379a000000000000000000000000000000000000000000000000000000000815260206004820152602660248201527f416464726573733a20696e73756666696369656e742062616c616e636520666f60448201527f722063616c6c000000000000000000000000000000000000000000000000000060648201526084015b60405180910390fd5b843b6101c9576040517f08c379a000000000000000000000000000000000000000000000000000000000815260206004820152601d60248201527f416464726573733a2063616c6c20746f206e6f6e2d636f6e74726163740000006044820152606401610158565b6000808673ffffffffffffffffffffffffffffffffffffffff1685876040516101f291906103de565b60006040518083038185875af1925050503d806000811461022f576040519150601f19603f3d011682016040523d82523d6000602084013e610234565b606091505b509150915061024482828661024f565b979650505050505050565b6060831561025e5750816100ac565b82511561026e5782518084602001fd5b816040517f08c379a000000000000000000000000000000000000000000000000000000000815260040161015891906103fa565b7f4e487b7100000000000000000000000000000000000000000000000000000000600052604160045260246000fd5b600080604083850312156102e457600080fd5b823573ffffffffffffffffffffffffffffffffffffffff8116811461030857600080fd5b9150602083013567ffffffffffffffff8082111561032557600080fd5b818501915085601f83011261033957600080fd5b81358181111561034b5761034b6102a2565b604051601f8201601f19908116603f01168101908382118183101715610373576103736102a2565b8160405282815288602084870101111561038c57600080fd5b8260208601602083013760006020848301015280955050505050509250929050565b60005b838110156103c95781810151838201526020016103b1565b838111156103d8576000848401525b50505050565b600082516103f08184602087016103ae565b9190910192915050565b60208152600082518060208401526104198160408501602087016103ae565b601f01601f1916919091016040019291505056fea26469706673582212201b4cb27f1cfc5154279ea8a2b3a11d7ba906b9c09c0e2ebe7a4583f5ac40dee364736f6c634300080b0033",
  "linkReferences": {},
  "deployedLinkReferences": {}
}