{
  "_format": "hh-sol-artifact-1",
  "contractName": "Pausable",
  "sourceName": "contracts/v1/Pausable.sol",
  "abi": [
    {
      "anonymous": false,
      "inputs": [
        {
          "indexed": true,
          "internalType": "address",
          "name": "previousOwner",
          "type": "address"
        },
        {
          "indexed": true,
          "internalType": "address",
          "name": "newOwner",
          "type": "address"
        }
      ],
      "name": "OwnershipTransferred",
      "type": "event"
    },
    {
      "anonymous": false,
      "inputs": [],
      "name": "Pause",
      "type": "event"
    },
    {
      "anonymous": false,
      "inputs": [
        {
          "indexed": true,
          "internalType": "address",
          "name": "newAddress",
          "type": "address"
        }
      ],
      "name": "PauserChanged",
      "type": "event"
    },
    {
      "anonymous": false,
      "inputs": [],
      "name": "Unpause",
      "type": "event"
    },
    {
      "inputs": [],
      "name": "owner",
      "outputs": [
        {
          "internalType": "address",
          "name": "",
          "type": "address"
        }
      ],
      "stateMutability": "view",
      "type": "function"
    },
    {
      "inputs": [],
      "name": "pause",
      "outputs": [],
      "stateMutability": "nonpayable",
      "type": "function"
    },
    {
      "inputs": [],
      "name": "paused",
      "outputs": [
        {
          "internalType": "bool",
          "name": "",
          "type": "bool"
        }
      ],
      "stateMutability": "view",
      "type": "function"
    },
    {
      "inputs": [],
      "name": "pauser",
      "outputs": [
        {
          "internalType": "address",
          "name": "",
          "type": "address"
        }
      ],
      "stateMutability": "view",
      "type": "function"
    },
    {
      "inputs": [
        {
          "internalType": "address",
          "name": "newOwner",
          "type": "address"
        }
      ],
      "name": "transferOwnership",
      "outputs": [],
      "stateMutability": "nonpayable",
      "type": "function"
    },
    {
      "inputs": [],
      "name": "unpause",
      "outputs": [],
      "stateMutability": "nonpayable",
      "type": "function"
    },
    {
      "inputs": [
        {
          "internalType": "address",
          "name": "_newPauser",
          "type": "address"
        }
      ],
      "name": "updatePauser",
      "outputs": [],
      "stateMutability": "nonpayable",
      "type": "function"
    }
  ],
  "bytecode": "0x60806040526065805460ff60a01b1916905534801561001d57600080fd5b506100273361002c565b61007e565b603280546001600160a01b038381166001600160a01b0319831681179093556040519116919082907f8be0079c531659141344cd1fd0a4f28419497f9722a3daafe3b4186f6b6457e090600090a35050565b6106748061008d6000396000f3fe608060405234801561001057600080fd5b506004361061007d5760003560e01c80638456cb591161005b5780638456cb59146100d95780638da5cb5b146100e15780639fd0506d14610120578063f2fde38b1461014057600080fd5b80633f4ba83a14610082578063554bab3c1461008c5780635c975abb1461009f575b600080fd5b61008a610153565b005b61008a61009a366004610601565b610238565b6065546100c49074010000000000000000000000000000000000000000900460ff1681565b60405190151581526020015b60405180910390f35b61008a610397565b60325473ffffffffffffffffffffffffffffffffffffffff165b60405173ffffffffffffffffffffffffffffffffffffffff90911681526020016100d0565b6065546100fb9073ffffffffffffffffffffffffffffffffffffffff1681565b61008a61014e366004610601565b61048e565b60655473ffffffffffffffffffffffffffffffffffffffff1633146101e55760405162461bcd60e51b815260206004820152602260248201527f5061757361626c653a2063616c6c6572206973206e6f7420746865207061757360448201527f657200000000000000000000000000000000000000000000000000000000000060648201526084015b60405180910390fd5b606580547fffffffffffffffffffffff00ffffffffffffffffffffffffffffffffffffffff1690556040517f7805862f689e2f13df9f062ff482ad3ad112aca9e0847911ed832e158c525b3390600090a1565b60325473ffffffffffffffffffffffffffffffffffffffff16331461029f5760405162461bcd60e51b815260206004820181905260248201527f4f776e61626c653a2063616c6c6572206973206e6f7420746865206f776e657260448201526064016101dc565b73ffffffffffffffffffffffffffffffffffffffff81166103285760405162461bcd60e51b815260206004820152602860248201527f5061757361626c653a206e65772070617573657220697320746865207a65726f60448201527f206164647265737300000000000000000000000000000000000000000000000060648201526084016101dc565b606580547fffffffffffffffffffffffff00000000000000000000000000000000000000001673ffffffffffffffffffffffffffffffffffffffff83169081179091556040517fb80482a293ca2e013eda8683c9bd7fc8347cfdaeea5ede58cba46df502c2a60490600090a250565b60655473ffffffffffffffffffffffffffffffffffffffff1633146104245760405162461bcd60e51b815260206004820152602260248201527f5061757361626c653a2063616c6c6572206973206e6f7420746865207061757360448201527f657200000000000000000000000000000000000000000000000000000000000060648201526084016101dc565b606580547fffffffffffffffffffffff00ffffffffffffffffffffffffffffffffffffffff16740100000000000000000000000000000000000000001790556040517f6985a02210a168e66602d3235cb6db0e70f92b3ba4d376a33c0f3d9434bff62590600090a1565b60325473ffffffffffffffffffffffffffffffffffffffff1633146104f55760405162461bcd60e51b815260206004820181905260248201527f4f776e61626c653a2063616c6c6572206973206e6f7420746865206f776e657260448201526064016101dc565b73ffffffffffffffffffffffffffffffffffffffff811661057e5760405162461bcd60e51b815260206004820152602660248201527f4f776e61626c653a206e6577206f776e657220697320746865207a65726f206160448201527f646472657373000000000000000000000000000000000000000000000000000060648201526084016101dc565b6105878161058a565b50565b6032805473ffffffffffffffffffffffffffffffffffffffff8381167fffffffffffffffffffffffff0000000000000000000000000000000000000000831681179093556040519116919082907f8be0079c531659141344cd1fd0a4f28419497f9722a3daafe3b4186f6b6457e090600090a35050565b60006020828403121561061357600080fd5b813573ffffffffffffffffffffffffffffffffffffffff8116811461063757600080fd5b939250505056fea26469706673582212205aa3473a29c9ca0cb495050d5cd6d6d2a6c2d847b70793e0f568dbf055567ab064736f6c634300080b0033",
  "linkReferences": {},
  "deployedLinkReferences": {}
}