{
  "_format": "hh-sol-artifact-1",
  "contractName": "Rescuable",
  "sourceName": "contracts/v1/Rescuable.sol",
  "abi": [
    {
      "anonymous": false,
      "inputs": [
        {
          "indexed": true,
          "internalType": "address",
          "name": "previousOwner",
          "type": "address"
        },
        {
          "indexed": true,
          "internalType": "address",
          "name": "newOwner",
          "type": "address"
        }
      ],
      "name": "OwnershipTransferred",
      "type": "event"
    },
    {
      "anonymous": false,
      "inputs": [
        {
          "indexed": true,
          "internalType": "address",
          "name": "newRescuer",
          "type": "address"
        }
      ],
      "name": "RescuerChanged",
      "type": "event"
    },
    {
      "inputs": [],
      "name": "owner",
      "outputs": [
        {
          "internalType": "address",
          "name": "",
          "type": "address"
        }
      ],
      "stateMutability": "view",
      "type": "function"
    },
    {
      "inputs": [
        {
          "internalType": "contract IERC20",
          "name": "tokenContract",
          "type": "address"
        },
        {
          "internalType": "address",
          "name": "to",
          "type": "address"
        },
        {
          "internalType": "uint256",
          "name": "amount",
          "type": "uint256"
        }
      ],
      "name": "rescueERC20",
      "outputs": [],
      "stateMutability": "nonpayable",
      "type": "function"
    },
    {
      "inputs": [],
      "name": "rescuer",
      "outputs": [
        {
          "internalType": "address",
          "name": "",
          "type": "address"
        }
      ],
      "stateMutability": "view",
      "type": "function"
    },
    {
      "inputs": [
        {
          "internalType": "address",
          "name": "newOwner",
          "type": "address"
        }
      ],
      "name": "transferOwnership",
      "outputs": [],
      "stateMutability": "nonpayable",
      "type": "function"
    },
    {
      "inputs": [
        {
          "internalType": "address",
          "name": "newRescuer",
          "type": "address"
        }
      ],
      "name": "updateRescuer",
      "outputs": [],
      "stateMutability": "nonpayable",
      "type": "function"
    }
  ],
  "bytecode": "0x608060405234801561001057600080fd5b5061001a3361001f565b610071565b603280546001600160a01b038381166001600160a01b0319831681179093556040519116919082907f8be0079c531659141344cd1fd0a4f28419497f9722a3daafe3b4186f6b6457e090600090a35050565b610860806100806000396000f3fe608060405234801561001057600080fd5b50600436106100675760003560e01c80638da5cb5b116100505780638da5cb5b146100aa578063b2118a8d146100bb578063f2fde38b146100ce57600080fd5b80632ab600451461006c57806338a6318314610081575b600080fd5b61007f61007a36600461070d565b6100e1565b005b6065546001600160a01b03165b6040516001600160a01b03909116815260200160405180910390f35b6032546001600160a01b031661008e565b61007f6100c936600461072a565b61021e565b61007f6100dc36600461070d565b6102b6565b6032546001600160a01b031633146101405760405162461bcd60e51b815260206004820181905260248201527f4f776e61626c653a2063616c6c6572206973206e6f7420746865206f776e657260448201526064015b60405180910390fd5b6001600160a01b0381166101bc5760405162461bcd60e51b815260206004820152602a60248201527f526573637561626c653a206e6577207265736375657220697320746865207a6560448201527f726f2061646472657373000000000000000000000000000000000000000000006064820152608401610137565b606580547fffffffffffffffffffffffff0000000000000000000000000000000000000000166001600160a01b0383169081179091556040517fe475e580d85111348e40d8ca33cfdd74c30fe1655c2d8537a13abc10065ffa5a90600090a250565b6065546001600160a01b0316331461029d5760405162461bcd60e51b8152602060048201526024808201527f526573637561626c653a2063616c6c6572206973206e6f74207468652072657360448201527f63756572000000000000000000000000000000000000000000000000000000006064820152608401610137565b6102b16001600160a01b0384168383610398565b505050565b6032546001600160a01b031633146103105760405162461bcd60e51b815260206004820181905260248201527f4f776e61626c653a2063616c6c6572206973206e6f7420746865206f776e65726044820152606401610137565b6001600160a01b03811661038c5760405162461bcd60e51b815260206004820152602660248201527f4f776e61626c653a206e6577206f776e657220697320746865207a65726f206160448201527f64647265737300000000000000000000000000000000000000000000000000006064820152608401610137565b61039581610418565b50565b604080516001600160a01b038416602482015260448082018490528251808303909101815260649091019091526020810180517bffffffffffffffffffffffffffffffffffffffffffffffffffffffff167fa9059cbb000000000000000000000000000000000000000000000000000000001790526102b1908490610482565b603280546001600160a01b038381167fffffffffffffffffffffffff0000000000000000000000000000000000000000831681179093556040519116919082907f8be0079c531659141344cd1fd0a4f28419497f9722a3daafe3b4186f6b6457e090600090a35050565b60006104d7826040518060400160405280602081526020017f5361666545524332303a206c6f772d6c6576656c2063616c6c206661696c6564815250856001600160a01b03166105679092919063ffffffff16565b8051909150156102b157808060200190518101906104f5919061076b565b6102b15760405162461bcd60e51b815260206004820152602a60248201527f5361666545524332303a204552433230206f7065726174696f6e20646964206e60448201527f6f742073756363656564000000000000000000000000000000000000000000006064820152608401610137565b60606105768484600085610580565b90505b9392505050565b6060824710156105f85760405162461bcd60e51b815260206004820152602660248201527f416464726573733a20696e73756666696369656e742062616c616e636520666f60448201527f722063616c6c00000000000000000000000000000000000000000000000000006064820152608401610137565b843b6106465760405162461bcd60e51b815260206004820152601d60248201527f416464726573733a2063616c6c20746f206e6f6e2d636f6e74726163740000006044820152606401610137565b600080866001600160a01b0316858760405161066291906107bd565b60006040518083038185875af1925050503d806000811461069f576040519150601f19603f3d011682016040523d82523d6000602084013e6106a4565b606091505b50915091506106b48282866106bf565b979650505050505050565b606083156106ce575081610579565b8251156106de5782518084602001fd5b8160405162461bcd60e51b815260040161013791906107d9565b6001600160a01b038116811461039557600080fd5b60006020828403121561071f57600080fd5b8135610579816106f8565b60008060006060848603121561073f57600080fd5b833561074a816106f8565b9250602084013561075a816106f8565b929592945050506040919091013590565b60006020828403121561077d57600080fd5b8151801515811461057957600080fd5b60005b838110156107a8578181015183820152602001610790565b838111156107b7576000848401525b50505050565b600082516107cf81846020870161078d565b9190910192915050565b60208152600082518060208401526107f881604085016020870161078d565b601f017fffffffffffffffffffffffffffffffffffffffffffffffffffffffffffffffe016919091016040019291505056fea2646970667358221220910aba80e38fea0b0ec75812ab7a9f4e4ce3c197d7a0b6ce42cedb56bd0141e164736f6c634300080b0033",
  "linkReferences": {},
  "deployedLinkReferences": {}
}