{
  "_format": "hh-sol-artifact-1",
  "contractName": "UUPSUpgradeableUnsafeMock",
  "sourceName": "contracts/test/UUPSUpgradeableMock.sol",
  "abi": [
    {
      "anonymous": false,
      "inputs": [
        {
          "indexed": true,
          "internalType": "address",
          "name": "owner",
          "type": "address"
        },
        {
          "indexed": true,
          "internalType": "address",
          "name": "spender",
          "type": "address"
        },
        {
          "indexed": false,
          "internalType": "uint256",
          "name": "value",
          "type": "uint256"
        }
      ],
      "name": "Approval",
      "type": "event"
    },
    {
      "anonymous": false,
      "inputs": [
        {
          "indexed": true,
          "internalType": "address",
          "name": "authorizer",
          "type": "address"
        },
        {
          "indexed": true,
          "internalType": "bytes32",
          "name": "nonce",
          "type": "bytes32"
        }
      ],
      "name": "AuthorizationCanceled",
      "type": "event"
    },
    {
      "anonymous": false,
      "inputs": [
        {
          "indexed": true,
          "internalType": "address",
          "name": "authorizer",
          "type": "address"
        },
        {
          "indexed": true,
          "internalType": "bytes32",
          "name": "nonce",
          "type": "bytes32"
        }
      ],
      "name": "AuthorizationUsed",
      "type": "event"
    },
    {
      "anonymous": false,
      "inputs": [
        {
          "indexed": true,
          "internalType": "address",
          "name": "_account",
          "type": "address"
        }
      ],
      "name": "Blocklisted",
      "type": "event"
    },
    {
      "anonymous": false,
      "inputs": [
        {
          "indexed": true,
          "internalType": "address",
          "name": "newBlocklister",
          "type": "address"
        }
      ],
      "name": "BlocklisterChanged",
      "type": "event"
    },
    {
      "anonymous": false,
      "inputs": [
        {
          "indexed": true,
          "internalType": "address",
          "name": "burner",
          "type": "address"
        },
        {
          "indexed": false,
          "internalType": "uint256",
          "name": "amount",
          "type": "uint256"
        }
      ],
      "name": "Burn",
      "type": "event"
    },
    {
      "anonymous": false,
      "inputs": [
        {
          "indexed": true,
          "internalType": "address",
          "name": "newMasterMinter",
          "type": "address"
        }
      ],
      "name": "MasterMinterChanged",
      "type": "event"
    },
    {
      "anonymous": false,
      "inputs": [
        {
          "indexed": true,
          "internalType": "address",
          "name": "minter",
          "type": "address"
        },
        {
          "indexed": true,
          "internalType": "address",
          "name": "to",
          "type": "address"
        },
        {
          "indexed": false,
          "internalType": "uint256",
          "name": "amount",
          "type": "uint256"
        }
      ],
      "name": "Mint",
      "type": "event"
    },
    {
      "anonymous": false,
      "inputs": [
        {
          "indexed": true,
          "internalType": "address",
          "name": "minter",
          "type": "address"
        },
        {
          "indexed": false,
          "internalType": "uint256",
          "name": "minterAllowedAmount",
          "type": "uint256"
        }
      ],
      "name": "MinterConfigured",
      "type": "event"
    },
    {
      "anonymous": false,
      "inputs": [
        {
          "indexed": true,
          "internalType": "address",
          "name": "oldMinter",
          "type": "address"
        }
      ],
      "name": "MinterRemoved",
      "type": "event"
    },
    {
      "anonymous": false,
      "inputs": [
        {
          "indexed": true,
          "internalType": "address",
          "name": "previousOwner",
          "type": "address"
        },
        {
          "indexed": true,
          "internalType": "address",
          "name": "newOwner",
          "type": "address"
        }
      ],
      "name": "OwnershipTransferred",
      "type": "event"
    },
    {
      "anonymous": false,
      "inputs": [],
      "name": "Pause",
      "type": "event"
    },
    {
      "anonymous": false,
      "inputs": [
        {
          "indexed": true,
          "internalType": "address",
          "name": "newAddress",
          "type": "address"
        }
      ],
      "name": "PauserChanged",
      "type": "event"
    },
    {
      "anonymous": false,
      "inputs": [
        {
          "indexed": true,
          "internalType": "address",
          "name": "newRescuer",
          "type": "address"
        }
      ],
      "name": "RescuerChanged",
      "type": "event"
    },
    {
      "anonymous": false,
      "inputs": [
        {
          "indexed": true,
          "internalType": "address",
          "name": "from",
          "type": "address"
        },
        {
          "indexed": true,
          "internalType": "address",
          "name": "to",
          "type": "address"
        },
        {
          "indexed": false,
          "internalType": "uint256",
          "name": "value",
          "type": "uint256"
        }
      ],
      "name": "Transfer",
      "type": "event"
    },
    {
      "anonymous": false,
      "inputs": [
        {
          "indexed": true,
          "internalType": "address",
          "name": "_account",
          "type": "address"
        }
      ],
      "name": "UnBlocklisted",
      "type": "event"
    },
    {
      "anonymous": false,
      "inputs": [],
      "name": "Unpause",
      "type": "event"
    },
    {
      "anonymous": false,
      "inputs": [
        {
          "indexed": true,
          "internalType": "address",
          "name": "implementation",
          "type": "address"
        }
      ],
      "name": "Upgraded",
      "type": "event"
    },
    {
      "inputs": [],
      "name": "CANCEL_AUTHORIZATION_TYPEHASH",
      "outputs": [
        {
          "internalType": "bytes32",
          "name": "",
          "type": "bytes32"
        }
      ],
      "stateMutability": "view",
      "type": "function"
    },
    {
      "inputs": [],
      "name": "PERMIT_TYPEHASH",
      "outputs": [
        {
          "internalType": "bytes32",
          "name": "",
          "type": "bytes32"
        }
      ],
      "stateMutability": "view",
      "type": "function"
    },
    {
      "inputs": [],
      "name": "RECEIVE_WITH_AUTHORIZATION_TYPEHASH",
      "outputs": [
        {
          "internalType": "bytes32",
          "name": "",
          "type": "bytes32"
        }
      ],
      "stateMutability": "view",
      "type": "function"
    },
    {
      "inputs": [],
      "name": "TRANSFER_WITH_AUTHORIZATION_TYPEHASH",
      "outputs": [
        {
          "internalType": "bytes32",
          "name": "",
          "type": "bytes32"
        }
      ],
      "stateMutability": "view",
      "type": "function"
    },
    {
      "inputs": [],
      "name": "_domainSeparatorV4",
      "outputs": [
        {
          "internalType": "bytes32",
          "name": "",
          "type": "bytes32"
        }
      ],
      "stateMutability": "view",
      "type": "function"
    },
    {
      "inputs": [
        {
          "internalType": "address",
          "name": "owner",
          "type": "address"
        },
        {
          "internalType": "address",
          "name": "spender",
          "type": "address"
        }
      ],
      "name": "allowance",
      "outputs": [
        {
          "internalType": "uint256",
          "name": "",
          "type": "uint256"
        }
      ],
      "stateMutability": "view",
      "type": "function"
    },
    {
      "inputs": [
        {
          "internalType": "address",
          "name": "spender",
          "type": "address"
        },
        {
          "internalType": "uint256",
          "name": "value",
          "type": "uint256"
        }
      ],
      "name": "approve",
      "outputs": [
        {
          "internalType": "bool",
          "name": "",
          "type": "bool"
        }
      ],
      "stateMutability": "nonpayable",
      "type": "function"
    },
    {
      "inputs": [
        {
          "internalType": "address",
          "name": "authorizer",
          "type": "address"
        },
        {
          "internalType": "bytes32",
          "name": "nonce",
          "type": "bytes32"
        }
      ],
      "name": "authorizationState",
      "outputs": [
        {
          "internalType": "bool",
          "name": "",
          "type": "bool"
        }
      ],
      "stateMutability": "view",
      "type": "function"
    },
    {
      "inputs": [
        {
          "internalType": "address",
          "name": "account",
          "type": "address"
        }
      ],
      "name": "balanceOf",
      "outputs": [
        {
          "internalType": "uint256",
          "name": "",
          "type": "uint256"
        }
      ],
      "stateMutability": "view",
      "type": "function"
    },
    {
      "inputs": [
        {
          "internalType": "address",
          "name": "_account",
          "type": "address"
        }
      ],
      "name": "blocklist",
      "outputs": [],
      "stateMutability": "nonpayable",
      "type": "function"
    },
    {
      "inputs": [],
      "name": "blocklister",
      "outputs": [
        {
          "internalType": "address",
          "name": "",
          "type": "address"
        }
      ],
      "stateMutability": "view",
      "type": "function"
    },
    {
      "inputs": [
        {
          "internalType": "uint256",
          "name": "_amount",
          "type": "uint256"
        }
      ],
      "name": "burn",
      "outputs": [],
      "stateMutability": "nonpayable",
      "type": "function"
    },
    {
      "inputs": [
        {
          "internalType": "address",
          "name": "authorizer",
          "type": "address"
        },
        {
          "internalType": "bytes32",
          "name": "nonce",
          "type": "bytes32"
        },
        {
          "internalType": "uint8",
          "name": "v",
          "type": "uint8"
        },
        {
          "internalType": "bytes32",
          "name": "r",
          "type": "bytes32"
        },
        {
          "internalType": "bytes32",
          "name": "s",
          "type": "bytes32"
        }
      ],
      "name": "cancelAuthorization",
      "outputs": [],
      "stateMutability": "nonpayable",
      "type": "function"
    },
    {
      "inputs": [
        {
          "internalType": "address",
          "name": "minter",
          "type": "address"
        },
        {
          "internalType": "uint256",
          "name": "minterAllowedAmount",
          "type": "uint256"
        }
      ],
      "name": "configureMinter",
      "outputs": [
        {
          "internalType": "bool",
          "name": "",
          "type": "bool"
        }
      ],
      "stateMutability": "nonpayable",
      "type": "function"
    },
    {
      "inputs": [],
      "name": "currency",
      "outputs": [
        {
          "internalType": "string",
          "name": "",
          "type": "string"
        }
      ],
      "stateMutability": "view",
      "type": "function"
    },
    {
      "inputs": [],
      "name": "decimals",
      "outputs": [
        {
          "internalType": "uint8",
          "name": "",
          "type": "uint8"
        }
      ],
      "stateMutability": "view",
      "type": "function"
    },
    {
      "inputs": [
        {
          "internalType": "address",
          "name": "spender",
          "type": "address"
        },
        {
          "internalType": "uint256",
          "name": "decrement",
          "type": "uint256"
        }
      ],
      "name": "decreaseAllowance",
      "outputs": [
        {
          "internalType": "bool",
          "name": "",
          "type": "bool"
        }
      ],
      "stateMutability": "nonpayable",
      "type": "function"
    },
    {
      "inputs": [
        {
          "internalType": "address",
          "name": "spender",
          "type": "address"
        },
        {
          "internalType": "uint256",
          "name": "increment",
          "type": "uint256"
        }
      ],
      "name": "increaseAllowance",
      "outputs": [
        {
          "internalType": "bool",
          "name": "",
          "type": "bool"
        }
      ],
      "stateMutability": "nonpayable",
      "type": "function"
    },
    {
      "inputs": [
        {
          "internalType": "string",
          "name": "tokenName",
          "type": "string"
        },
        {
          "internalType": "string",
          "name": "tokenSymbol",
          "type": "string"
        },
        {
          "internalType": "string",
          "name": "tokenCurrency",
          "type": "string"
        },
        {
          "internalType": "uint8",
          "name": "tokenDecimals",
          "type": "uint8"
        },
        {
          "internalType": "address",
          "name": "newMasterMinter",
          "type": "address"
        },
        {
          "internalType": "address",
          "name": "newPauser",
          "type": "address"
        },
        {
          "internalType": "address",
          "name": "newBlocklister",
          "type": "address"
        },
        {
          "internalType": "address",
          "name": "newOwner",
          "type": "address"
        }
      ],
      "name": "initialize",
      "outputs": [],
      "stateMutability": "nonpayable",
      "type": "function"
    },
    {
      "inputs": [
        {
          "internalType": "address",
          "name": "_account",
          "type": "address"
        }
      ],
      "name": "isBlocklisted",
      "outputs": [
        {
          "internalType": "bool",
          "name": "",
          "type": "bool"
        }
      ],
      "stateMutability": "view",
      "type": "function"
    },
    {
      "inputs": [
        {
          "internalType": "address",
          "name": "account",
          "type": "address"
        }
      ],
      "name": "isMinter",
      "outputs": [
        {
          "internalType": "bool",
          "name": "",
          "type": "bool"
        }
      ],
      "stateMutability": "view",
      "type": "function"
    },
    {
      "inputs": [],
      "name": "masterMinter",
      "outputs": [
        {
          "internalType": "address",
          "name": "",
          "type": "address"
        }
      ],
      "stateMutability": "view",
      "type": "function"
    },
    {
      "inputs": [
        {
          "internalType": "address",
          "name": "_to",
          "type": "address"
        },
        {
          "internalType": "uint256",
          "name": "_amount",
          "type": "uint256"
        }
      ],
      "name": "mint",
      "outputs": [
        {
          "internalType": "bool",
          "name": "",
          "type": "bool"
        }
      ],
      "stateMutability": "nonpayable",
      "type": "function"
    },
    {
      "inputs": [
        {
          "internalType": "address",
          "name": "minter",
          "type": "address"
        }
      ],
      "name": "minterAllowance",
      "outputs": [
        {
          "internalType": "uint256",
          "name": "",
          "type": "uint256"
        }
      ],
      "stateMutability": "view",
      "type": "function"
    },
    {
      "inputs": [],
      "name": "name",
      "outputs": [
        {
          "internalType": "string",
          "name": "",
          "type": "string"
        }
      ],
      "stateMutability": "view",
      "type": "function"
    },
    {
      "inputs": [
        {
          "internalType": "address",
          "name": "owner",
          "type": "address"
        }
      ],
      "name": "nonces",
      "outputs": [
        {
          "internalType": "uint256",
          "name": "",
          "type": "uint256"
        }
      ],
      "stateMutability": "view",
      "type": "function"
    },
    {
      "inputs": [],
      "name": "owner",
      "outputs": [
        {
          "internalType": "address",
          "name": "",
          "type": "address"
        }
      ],
      "stateMutability": "view",
      "type": "function"
    },
    {
      "inputs": [],
      "name": "pause",
      "outputs": [],
      "stateMutability": "nonpayable",
      "type": "function"
    },
    {
      "inputs": [],
      "name": "paused",
      "outputs": [
        {
          "internalType": "bool",
          "name": "",
          "type": "bool"
        }
      ],
      "stateMutability": "view",
      "type": "function"
    },
    {
      "inputs": [],
      "name": "pauser",
      "outputs": [
        {
          "internalType": "address",
          "name": "",
          "type": "address"
        }
      ],
      "stateMutability": "view",
      "type": "function"
    },
    {
      "inputs": [
        {
          "internalType": "address",
          "name": "owner",
          "type": "address"
        },
        {
          "internalType": "address",
          "name": "spender",
          "type": "address"
        },
        {
          "internalType": "uint256",
          "name": "value",
          "type": "uint256"
        },
        {
          "internalType": "uint256",
          "name": "deadline",
          "type": "uint256"
        },
        {
          "internalType": "uint8",
          "name": "v",
          "type": "uint8"
        },
        {
          "internalType": "bytes32",
          "name": "r",
          "type": "bytes32"
        },
        {
          "internalType": "bytes32",
          "name": "s",
          "type": "bytes32"
        }
      ],
      "name": "permit",
      "outputs": [],
      "stateMutability": "nonpayable",
      "type": "function"
    },
    {
      "inputs": [],
      "name": "proxiableUUID",
      "outputs": [
        {
          "internalType": "bytes32",
          "name": "",
          "type": "bytes32"
        }
      ],
      "stateMutability": "view",
      "type": "function"
    },
    {
      "inputs": [
        {
          "internalType": "address",
          "name": "from",
          "type": "address"
        },
        {
          "internalType": "address",
          "name": "to",
          "type": "address"
        },
        {
          "internalType": "uint256",
          "name": "value",
          "type": "uint256"
        },
        {
          "internalType": "uint256",
          "name": "validAfter",
          "type": "uint256"
        },
        {
          "internalType": "uint256",
          "name": "validBefore",
          "type": "uint256"
        },
        {
          "internalType": "bytes32",
          "name": "nonce",
          "type": "bytes32"
        },
        {
          "internalType": "uint8",
          "name": "v",
          "type": "uint8"
        },
        {
          "internalType": "bytes32",
          "name": "r",
          "type": "bytes32"
        },
        {
          "internalType": "bytes32",
          "name": "s",
          "type": "bytes32"
        }
      ],
      "name": "receiveWithAuthorization",
      "outputs": [],
      "stateMutability": "nonpayable",
      "type": "function"
    },
    {
      "inputs": [
        {
          "internalType": "address",
          "name": "minter",
          "type": "address"
        }
      ],
      "name": "removeMinter",
      "outputs": [
        {
          "internalType": "bool",
          "name": "",
          "type": "bool"
        }
      ],
      "stateMutability": "nonpayable",
      "type": "function"
    },
    {
      "inputs": [
        {
          "internalType": "contract IERC20",
          "name": "tokenContract",
          "type": "address"
        },
        {
          "internalType": "address",
          "name": "to",
          "type": "address"
        },
        {
          "internalType": "uint256",
          "name": "amount",
          "type": "uint256"
        }
      ],
      "name": "rescueERC20",
      "outputs": [],
      "stateMutability": "nonpayable",
      "type": "function"
    },
    {
      "inputs": [],
      "name": "rescuer",
      "outputs": [
        {
          "internalType": "address",
          "name": "",
          "type": "address"
        }
      ],
      "stateMutability": "view",
      "type": "function"
    },
    {
      "inputs": [],
      "name": "symbol",
      "outputs": [
        {
          "internalType": "string",
          "name": "",
          "type": "string"
        }
      ],
      "stateMutability": "view",
      "type": "function"
    },
    {
      "inputs": [],
      "name": "totalSupply",
      "outputs": [
        {
          "internalType": "uint256",
          "name": "",
          "type": "uint256"
        }
      ],
      "stateMutability": "view",
      "type": "function"
    },
    {
      "inputs": [
        {
          "internalType": "address",
          "name": "to",
          "type": "address"
        },
        {
          "internalType": "uint256",
          "name": "value",
          "type": "uint256"
        }
      ],
      "name": "transfer",
      "outputs": [
        {
          "internalType": "bool",
          "name": "",
          "type": "bool"
        }
      ],
      "stateMutability": "nonpayable",
      "type": "function"
    },
    {
      "inputs": [
        {
          "internalType": "address",
          "name": "from",
          "type": "address"
        },
        {
          "internalType": "address",
          "name": "to",
          "type": "address"
        },
        {
          "internalType": "uint256",
          "name": "value",
          "type": "uint256"
        }
      ],
      "name": "transferFrom",
      "outputs": [
        {
          "internalType": "bool",
          "name": "",
          "type": "bool"
        }
      ],
      "stateMutability": "nonpayable",
      "type": "function"
    },
    {
      "inputs": [
        {
          "internalType": "address",
          "name": "newOwner",
          "type": "address"
        }
      ],
      "name": "transferOwnership",
      "outputs": [],
      "stateMutability": "nonpayable",
      "type": "function"
    },
    {
      "inputs": [
        {
          "internalType": "address",
          "name": "from",
          "type": "address"
        },
        {
          "internalType": "address",
          "name": "to",
          "type": "address"
        },
        {
          "internalType": "uint256",
          "name": "value",
          "type": "uint256"
        },
        {
          "internalType": "uint256",
          "name": "validAfter",
          "type": "uint256"
        },
        {
          "internalType": "uint256",
          "name": "validBefore",
          "type": "uint256"
        },
        {
          "internalType": "bytes32",
          "name": "nonce",
          "type": "bytes32"
        },
        {
          "internalType": "uint8",
          "name": "v",
          "type": "uint8"
        },
        {
          "internalType": "bytes32",
          "name": "r",
          "type": "bytes32"
        },
        {
          "internalType": "bytes32",
          "name": "s",
          "type": "bytes32"
        }
      ],
      "name": "transferWithAuthorization",
      "outputs": [],
      "stateMutability": "nonpayable",
      "type": "function"
    },
    {
      "inputs": [
        {
          "internalType": "address",
          "name": "_account",
          "type": "address"
        }
      ],
      "name": "unBlocklist",
      "outputs": [],
      "stateMutability": "nonpayable",
      "type": "function"
    },
    {
      "inputs": [],
      "name": "unpause",
      "outputs": [],
      "stateMutability": "nonpayable",
      "type": "function"
    },
    {
      "inputs": [
        {
          "internalType": "address",
          "name": "_newBlocklister",
          "type": "address"
        }
      ],
      "name": "updateBlocklister",
      "outputs": [],
      "stateMutability": "nonpayable",
      "type": "function"
    },
    {
      "inputs": [
        {
          "internalType": "address",
          "name": "_newMasterMinter",
          "type": "address"
        }
      ],
      "name": "updateMasterMinter",
      "outputs": [],
      "stateMutability": "nonpayable",
      "type": "function"
    },
    {
      "inputs": [
        {
          "internalType": "address",
          "name": "_newPauser",
          "type": "address"
        }
      ],
      "name": "updatePauser",
      "outputs": [],
      "stateMutability": "nonpayable",
      "type": "function"
    },
    {
      "inputs": [
        {
          "internalType": "address",
          "name": "newRescuer",
          "type": "address"
        }
      ],
      "name": "updateRescuer",
      "outputs": [],
      "stateMutability": "nonpayable",
      "type": "function"
    },
    {
      "inputs": [
        {
          "internalType": "address",
          "name": "newImplementation",
          "type": "address"
        }
      ],
      "name": "upgradeTo",
      "outputs": [],
      "stateMutability": "nonpayable",
      "type": "function"
    },
    {
      "inputs": [
        {
          "internalType": "address",
          "name": "newImplementation",
          "type": "address"
        },
        {
          "internalType": "bytes",
          "name": "data",
          "type": "bytes"
        }
      ],
      "name": "upgradeToAndCall",
      "outputs": [],
      "stateMutability": "payable",
      "type": "function"
    }
  ],
  "bytecode": "0x60a06040526065805460ff60a01b19169055306080526000610206553480156200002857600080fd5b5062000034336200003a565b6200008c565b603280546001600160a01b038381166001600160a01b0319831681179093556040519116919082907f8be0079c531659141344cd1fd0a4f28419497f9722a3daafe3b4186f6b6457e090600090a35050565b608051614c0a620000a860003960006121ae0152614c0a6000f3fe6080604052600436106103295760003560e01c80637ecebe00116101a5578063aa271e1a116100ec578063e3ee160e11610095578063e94a01021161006f578063e94a0102146109ce578063ef55bec614610a15578063f2fde38b14610a35578063f9b5aa9214610a5557600080fd5b8063e3ee160e14610979578063e5a6b10f14610999578063e5c7160b146109ae57600080fd5b8063d505accf116100c6578063d505accf146108de578063d9169487146108fe578063dd62ed3e1461093257600080fd5b8063aa271e1a14610864578063b2118a8d1461089e578063b54d9497146108be57600080fd5b806395d89b411161014e578063a457c2d711610128578063a457c2d714610804578063a9059cbb14610824578063aa20e1e41461084457600080fd5b806395d89b411461079b5780639fd0506d146107b0578063a0cc6a68146107d057600080fd5b80638a6db9c31161017f5780638a6db9c31461070d5780638da5cb5b146107445780638e204c431461076257600080fd5b80637ecebe001461068d5780637f2eecc3146106c45780638456cb59146106f857600080fd5b806338a63183116102745780634f1ef2861161021d5780635a049a70116101f75780635a049a70146106005780635c975abb1461062057806370a08231146106415780637b134b4c1461067857600080fd5b80634f1ef286146105b857806352d1902d146105cb578063554bab3c146105e057600080fd5b806340c10f191161024e57806340c10f191461055857806342966c68146105785780634e44d9561461059857600080fd5b806338a631831461050557806339509351146105235780633f4ba83a1461054357600080fd5b806330adf81f116102d65780633357162b116102b05780633357162b1461048c57806335d99f35146104ac5780633659cfe6146104e557600080fd5b806330adf81f1461040b578063313ce5671461043f57806331b230201461046c57600080fd5b806323b872dd1161030757806323b872dd146103a95780632ab60045146103c95780633092afd5146103eb57600080fd5b806306fdde031461032e578063095ea7b31461035957806318160ddd14610389575b600080fd5b34801561033a57600080fd5b50610343610a75565b60405161035091906145ff565b60405180910390f35b34801561036557600080fd5b50610379610374366004614652565b610b04565b6040519015158152602001610350565b34801561039557600080fd5b50610206545b604051908152602001610350565b3480156103b557600080fd5b506103796103c436600461467e565b610c56565b3480156103d557600080fd5b506103e96103e43660046146bf565b610f0e565b005b3480156103f757600080fd5b506103796104063660046146bf565b61103b565b34801561041757600080fd5b5061039b7f6e71edae12b1b97f4d1f60370fef10105fa2faae0126114a169c64845d6126c981565b34801561044b57600080fd5b506102015461045a9060ff1681565b60405160ff9091168152602001610350565b34801561047857600080fd5b506103e96104873660046146bf565b61111d565b34801561049857600080fd5b506103e96104a73660046147b2565b6111e6565b3480156104b857600080fd5b50610203546104cd906001600160a01b031681565b6040516001600160a01b039091168152602001610350565b3480156104f157600080fd5b506103e96105003660046146bf565b61170b565b34801561051157600080fd5b5060cc546001600160a01b03166104cd565b34801561052f57600080fd5b5061037961053e366004614652565b611729565b34801561054f57600080fd5b506103e961186b565b34801561056457600080fd5b50610379610573366004614652565b61193e565b34801561058457600080fd5b506103e961059336600461488e565b611d6f565b3480156105a457600080fd5b506103796105b3366004614652565b612054565b6103e96105c63660046148a7565b612191565b3480156105d757600080fd5b5061039b6121a1565b3480156105ec57600080fd5b506103e96105fb3660046146bf565b612266565b34801561060c57600080fd5b506103e961061b36600461490b565b612393565b34801561062c57600080fd5b5060655461037990600160a01b900460ff1681565b34801561064d57600080fd5b5061039b61065c3660046146bf565b6001600160a01b03166000908152610204602052604090205490565b34801561068457600080fd5b5061039b6123f4565b34801561069957600080fd5b5061039b6106a83660046146bf565b6001600160a01b03166000908152610168602052604090205490565b3480156106d057600080fd5b5061039b7fd099cc98ef71107a616c4f0f941f04c322d8e254fe26b3c6668db87aae413de881565b34801561070457600080fd5b506103e961259a565b34801561071957600080fd5b5061039b6107283660046146bf565b6001600160a01b03166000908152610208602052604090205490565b34801561075057600080fd5b506032546001600160a01b03166104cd565b34801561076e57600080fd5b5061037961077d3660046146bf565b6001600160a01b031660009081526099602052604090205460ff1690565b3480156107a757600080fd5b50610343612673565b3480156107bc57600080fd5b506065546104cd906001600160a01b031681565b3480156107dc57600080fd5b5061039b7f7c7c6cdb67a18743f49ec6fa9b35f50d52ed05cbed4cc592e13b44501c1a226781565b34801561081057600080fd5b5061037961081f366004614652565b612681565b34801561083057600080fd5b5061037961083f366004614652565b6127c3565b34801561085057600080fd5b506103e961085f3660046146bf565b612905565b34801561087057600080fd5b5061037961087f3660046146bf565b6001600160a01b03166000908152610207602052604090205460ff1690565b3480156108aa57600080fd5b506103e96108b936600461467e565b612a33565b3480156108ca57600080fd5b506098546104cd906001600160a01b031681565b3480156108ea57600080fd5b506103e96108f936600461495b565b612acb565b34801561090a57600080fd5b5061039b7f158b0a9edf7a828aad02f63cd515c68ef2f50ba807396f6d12842833a159742981565b34801561093e57600080fd5b5061039b61094d3660046149c9565b6001600160a01b0391821660009081526102056020908152604080832093909416825291909152205490565b34801561098557600080fd5b506103e9610994366004614a02565b612c24565b3480156109a557600080fd5b50610343612d81565b3480156109ba57600080fd5b506103e96109c93660046146bf565b612d8f565b3480156109da57600080fd5b506103796109e9366004614652565b6001600160a01b0391909116600090815261013560209081526040808320938352929052205460ff1690565b348015610a2157600080fd5b506103e9610a30366004614a02565b612e5b565b348015610a4157600080fd5b506103e9610a503660046146bf565b612fab565b348015610a6157600080fd5b506103e9610a703660046146bf565b61308a565b6101ff8054610a8390614a84565b80601f0160208091040260200160405190810160405280929190818152602001828054610aaf90614a84565b8015610afc5780601f10610ad157610100808354040283529160200191610afc565b820191906000526020600020905b815481529060010190602001808311610adf57829003601f168201915b505050505081565b606554600090600160a01b900460ff1615610b595760405162461bcd60e51b815260206004820152601060248201526f14185d5cd8589b194e881c185d5cd95960821b60448201526064015b60405180910390fd5b3360008181526099602052604090205460ff1615610bc75760405162461bcd60e51b815260206004820152602560248201527f426c6f636b6c69737461626c653a206163636f756e7420697320626c6f636b6c6044820152641a5cdd195960da1b6064820152608401610b50565b6001600160a01b038416600090815260996020526040902054849060ff1615610c405760405162461bcd60e51b815260206004820152602560248201527f426c6f636b6c69737461626c653a206163636f756e7420697320626c6f636b6c6044820152641a5cdd195960da1b6064820152608401610b50565b610c4b3386866131b7565b506001949350505050565b606554600090600160a01b900460ff1615610ca65760405162461bcd60e51b815260206004820152601060248201526f14185d5cd8589b194e881c185d5cd95960821b6044820152606401610b50565b3360008181526099602052604090205460ff1615610d145760405162461bcd60e51b815260206004820152602560248201527f426c6f636b6c69737461626c653a206163636f756e7420697320626c6f636b6c6044820152641a5cdd195960da1b6064820152608401610b50565b6001600160a01b038516600090815260996020526040902054859060ff1615610d8d5760405162461bcd60e51b815260206004820152602560248201527f426c6f636b6c69737461626c653a206163636f756e7420697320626c6f636b6c6044820152641a5cdd195960da1b6064820152608401610b50565b6001600160a01b038516600090815260996020526040902054859060ff1615610e065760405162461bcd60e51b815260206004820152602560248201527f426c6f636b6c69737461626c653a206163636f756e7420697320626c6f636b6c6044820152641a5cdd195960da1b6064820152608401610b50565b6001600160a01b038716600090815261020560209081526040808320338452909152902054851115610ea05760405162461bcd60e51b815260206004820152602860248201527f45524332303a207472616e7366657220616d6f756e742065786365656473206160448201527f6c6c6f77616e63650000000000000000000000000000000000000000000000006064820152608401610b50565b610eab878787613308565b6001600160a01b038716600090815261020560209081526040808320338452909152902054610edb908690614b07565b6001600160a01b038816600090815261020560209081526040808320338452909152902055600193505050509392505050565b6032546001600160a01b03163314610f685760405162461bcd60e51b815260206004820181905260248201527f4f776e61626c653a2063616c6c6572206973206e6f7420746865206f776e65726044820152606401610b50565b6001600160a01b038116610fe45760405162461bcd60e51b815260206004820152602a60248201527f526573637561626c653a206e6577207265736375657220697320746865207a6560448201527f726f2061646472657373000000000000000000000000000000000000000000006064820152608401610b50565b60cc805473ffffffffffffffffffffffffffffffffffffffff19166001600160a01b0383169081179091556040517fe475e580d85111348e40d8ca33cfdd74c30fe1655c2d8537a13abc10065ffa5a90600090a250565b610203546000906001600160a01b031633146110bf5760405162461bcd60e51b815260206004820152602960248201527f46696174546f6b656e3a2063616c6c6572206973206e6f7420746865206d617360448201527f7465724d696e74657200000000000000000000000000000000000000000000006064820152608401610b50565b6001600160a01b038216600081815261020760209081526040808320805460ff19169055610208909152808220829055517fe94479a9f7e1952cc78f2d6baab678adc1b772d936c6583def489e524cb666929190a25060015b919050565b6098546001600160a01b0316331461119d5760405162461bcd60e51b815260206004820152602c60248201527f426c6f636b6c69737461626c653a2063616c6c6572206973206e6f742074686560448201527f20626c6f636b6c697374657200000000000000000000000000000000000000006064820152608401610b50565b6001600160a01b038116600081815260996020526040808220805460ff19169055517fbc3fe0fc667d12a7a22748747f024a7d971127ffc48f6622675d3e97a2591a519190a250565b61020354600160a01b900460ff16156112675760405162461bcd60e51b815260206004820152602a60248201527f46696174546f6b656e3a20636f6e747261637420697320616c7265616479206960448201527f6e697469616c697a6564000000000000000000000000000000000000000000006064820152608401610b50565b6001600160a01b0384166112e35760405162461bcd60e51b815260206004820152602f60248201527f46696174546f6b656e3a206e6577206d61737465724d696e746572206973207460448201527f6865207a65726f206164647265737300000000000000000000000000000000006064820152608401610b50565b6001600160a01b03831661135f5760405162461bcd60e51b815260206004820152602960248201527f46696174546f6b656e3a206e65772070617573657220697320746865207a657260448201527f6f206164647265737300000000000000000000000000000000000000000000006064820152608401610b50565b6001600160a01b0382166113db5760405162461bcd60e51b815260206004820152602e60248201527f46696174546f6b656e3a206e657720626c6f636b6c697374657220697320746860448201527f65207a65726f20616464726573730000000000000000000000000000000000006064820152608401610b50565b6001600160a01b0381166114575760405162461bcd60e51b815260206004820152602860248201527f46696174546f6b656e3a206e6577206f776e657220697320746865207a65726f60448201527f20616464726573730000000000000000000000000000000000000000000000006064820152608401610b50565b875161146b906101ff9060208b01906144bf565b508651611480906102009060208a01906144bf565b508551611495906102029060208901906144bf565b50610201805460ff191660ff8716179055610203805473ffffffffffffffffffffffffffffffffffffffff199081166001600160a01b0387811691909117909255606580548216868416179055609880549091169184169190911790556114fb8161353a565b306000908152609960205260409020805460ff191660011790556101ff8054611665919061152890614a84565b80601f016020809104026020016040519081016040528092919081815260200182805461155490614a84565b80156115a15780601f10611576576101008083540402835291602001916115a1565b820191906000526020600020905b81548152906001019060200180831161158457829003601f168201915b5050604080518082018252600181527f310000000000000000000000000000000000000000000000000000000000000060209182015285519581019590952081517f8b73c3c69bb8fe3d512ecc4cf759cc79239f7b179b0ffacaa9a75d522b39400f81880152808301919091527fc89efdaa54c0f20c7adf612882df0950f5a951637e0307cdcb4c672f298b8bc660608201524660808201523060a0808301919091528251808303909101815260c090910190915280519401939093209392505050565b60ff5546610100556101ff8054610101919061168090614a84565b61168b929190614543565b506040805180820190915260018082527f310000000000000000000000000000000000000000000000000000000000000060209092019182526116d191610102916144bf565b505061020380547fffffffffffffffffffffff00ffffffffffffffffffffffffffffffffffffffff16600160a01b17905550505050505050565b61172681604051806020016040528060008152506000613599565b50565b606554600090600160a01b900460ff16156117795760405162461bcd60e51b815260206004820152601060248201526f14185d5cd8589b194e881c185d5cd95960821b6044820152606401610b50565b3360008181526099602052604090205460ff16156117e75760405162461bcd60e51b815260206004820152602560248201527f426c6f636b6c69737461626c653a206163636f756e7420697320626c6f636b6c6044820152641a5cdd195960da1b6064820152608401610b50565b6001600160a01b038416600090815260996020526040902054849060ff16156118605760405162461bcd60e51b815260206004820152602560248201527f426c6f636b6c69737461626c653a206163636f756e7420697320626c6f636b6c6044820152641a5cdd195960da1b6064820152608401610b50565b610c4b3386866135c4565b6065546001600160a01b031633146118eb5760405162461bcd60e51b815260206004820152602260248201527f5061757361626c653a2063616c6c6572206973206e6f7420746865207061757360448201527f65720000000000000000000000000000000000000000000000000000000000006064820152608401610b50565b606580547fffffffffffffffffffffff00ffffffffffffffffffffffffffffffffffffffff1690556040517f7805862f689e2f13df9f062ff482ad3ad112aca9e0847911ed832e158c525b3390600090a1565b606554600090600160a01b900460ff161561198e5760405162461bcd60e51b815260206004820152601060248201526f14185d5cd8589b194e881c185d5cd95960821b6044820152606401610b50565b336000908152610207602052604090205460ff16611a145760405162461bcd60e51b815260206004820152602160248201527f46696174546f6b656e3a2063616c6c6572206973206e6f742061206d696e746560448201527f72000000000000000000000000000000000000000000000000000000000000006064820152608401610b50565b3360008181526099602052604090205460ff1615611a825760405162461bcd60e51b815260206004820152602560248201527f426c6f636b6c69737461626c653a206163636f756e7420697320626c6f636b6c6044820152641a5cdd195960da1b6064820152608401610b50565b6001600160a01b038416600090815260996020526040902054849060ff1615611afb5760405162461bcd60e51b815260206004820152602560248201527f426c6f636b6c69737461626c653a206163636f756e7420697320626c6f636b6c6044820152641a5cdd195960da1b6064820152608401610b50565b6001600160a01b038516611b775760405162461bcd60e51b815260206004820152602360248201527f46696174546f6b656e3a206d696e7420746f20746865207a65726f206164647260448201527f65737300000000000000000000000000000000000000000000000000000000006064820152608401610b50565b60008411611bed5760405162461bcd60e51b815260206004820152602960248201527f46696174546f6b656e3a206d696e7420616d6f756e74206e6f7420677265617460448201527f6572207468616e203000000000000000000000000000000000000000000000006064820152608401610b50565b336000908152610208602052604090205480851115611c745760405162461bcd60e51b815260206004820152602e60248201527f46696174546f6b656e3a206d696e7420616d6f756e742065786365656473206d60448201527f696e746572416c6c6f77616e63650000000000000000000000000000000000006064820152608401610b50565b8461020654611c839190614b1e565b610206556001600160a01b03861660009081526102046020526040902054611cac908690614b1e565b6001600160a01b03871660009081526102046020526040902055611cd08582614b07565b336000818152610208602090815260409182902093909355518781526001600160a01b038916927fab8530f87dc9b59234c4623bf917212bb2536d647574c8e7e5da92c2ede0c9f8910160405180910390a36040518581526001600160a01b038716906000907fddf252ad1be2c89b69c2b068fc378daa952ba7f163c4a11628f55a4df523b3ef9060200160405180910390a350600195945050505050565b606554600160a01b900460ff1615611dbc5760405162461bcd60e51b815260206004820152601060248201526f14185d5cd8589b194e881c185d5cd95960821b6044820152606401610b50565b336000908152610207602052604090205460ff16611e425760405162461bcd60e51b815260206004820152602160248201527f46696174546f6b656e3a2063616c6c6572206973206e6f742061206d696e746560448201527f72000000000000000000000000000000000000000000000000000000000000006064820152608401610b50565b3360008181526099602052604090205460ff1615611eb05760405162461bcd60e51b815260206004820152602560248201527f426c6f636b6c69737461626c653a206163636f756e7420697320626c6f636b6c6044820152641a5cdd195960da1b6064820152608401610b50565b336000908152610204602052604090205482611f345760405162461bcd60e51b815260206004820152602960248201527f46696174546f6b656e3a206275726e20616d6f756e74206e6f7420677265617460448201527f6572207468616e203000000000000000000000000000000000000000000000006064820152608401610b50565b82811015611faa5760405162461bcd60e51b815260206004820152602660248201527f46696174546f6b656e3a206275726e20616d6f756e742065786365656473206260448201527f616c616e636500000000000000000000000000000000000000000000000000006064820152608401610b50565b8261020654611fb99190614b07565b61020655611fc78382614b07565b3360008181526102046020526040908190209290925590517fcc16f5dbb4873280815c1ee09dbd06736cffcc184412cf7a71a0fdb75d397ca59061200e9086815260200190565b60405180910390a260405183815260009033907fddf252ad1be2c89b69c2b068fc378daa952ba7f163c4a11628f55a4df523b3ef906020015b60405180910390a3505050565b606554600090600160a01b900460ff16156120a45760405162461bcd60e51b815260206004820152601060248201526f14185d5cd8589b194e881c185d5cd95960821b6044820152606401610b50565b610203546001600160a01b031633146121255760405162461bcd60e51b815260206004820152602960248201527f46696174546f6b656e3a2063616c6c6572206973206e6f7420746865206d617360448201527f7465724d696e74657200000000000000000000000000000000000000000000006064820152608401610b50565b6001600160a01b038316600081815261020760209081526040808320805460ff1916600117905561020882529182902085905590518481527f46980fca912ef9bcdbd36877427b6b90e860769f604e89c0e67720cece530d20910160405180910390a250600192915050565b61219d82826000613599565b5050565b6000306001600160a01b037f000000000000000000000000000000000000000000000000000000000000000016146122415760405162461bcd60e51b815260206004820152603860248201527f555550535570677261646561626c653a206d757374206e6f742062652063616c60448201527f6c6564207468726f7567682064656c656761746563616c6c00000000000000006064820152608401610b50565b507f360894a13ba1a3210667c828492db98dca3e2076cc3735a920a3ca505d382bbc90565b6032546001600160a01b031633146122c05760405162461bcd60e51b815260206004820181905260248201527f4f776e61626c653a2063616c6c6572206973206e6f7420746865206f776e65726044820152606401610b50565b6001600160a01b03811661233c5760405162461bcd60e51b815260206004820152602860248201527f5061757361626c653a206e65772070617573657220697320746865207a65726f60448201527f20616464726573730000000000000000000000000000000000000000000000006064820152608401610b50565b6065805473ffffffffffffffffffffffffffffffffffffffff19166001600160a01b0383169081179091556040517fb80482a293ca2e013eda8683c9bd7fc8347cfdaeea5ede58cba46df502c2a60490600090a250565b606554600160a01b900460ff16156123e05760405162461bcd60e51b815260206004820152601060248201526f14185d5cd8589b194e881c185d5cd95960821b6044820152606401610b50565b6123ed8585858585613603565b5050505050565b600061010054461415612408575060ff5490565b612595610101805461241990614a84565b80601f016020809104026020016040519081016040528092919081815260200182805461244590614a84565b80156124925780601f1061246757610100808354040283529160200191612492565b820191906000526020600020905b81548152906001019060200180831161247557829003601f168201915b505050505061010280546124a590614a84565b80601f01602080910402602001604051908101604052809291908181526020018280546124d190614a84565b801561251e5780601f106124f35761010080835404028352916020019161251e565b820191906000526020600020905b81548152906001019060200180831161250157829003601f168201915b50505050508151602092830120815191830191909120604080517f8b73c3c69bb8fe3d512ecc4cf759cc79239f7b179b0ffacaa9a75d522b39400f818601528082019390935260608301919091524660808301523060a0808401919091528151808403909101815260c09092019052805191012090565b905090565b6065546001600160a01b0316331461261a5760405162461bcd60e51b815260206004820152602260248201527f5061757361626c653a2063616c6c6572206973206e6f7420746865207061757360448201527f65720000000000000000000000000000000000000000000000000000000000006064820152608401610b50565b606580547fffffffffffffffffffffff00ffffffffffffffffffffffffffffffffffffffff16600160a01b1790556040517f6985a02210a168e66602d3235cb6db0e70f92b3ba4d376a33c0f3d9434bff62590600090a1565b6102008054610a8390614a84565b606554600090600160a01b900460ff16156126d15760405162461bcd60e51b815260206004820152601060248201526f14185d5cd8589b194e881c185d5cd95960821b6044820152606401610b50565b3360008181526099602052604090205460ff161561273f5760405162461bcd60e51b815260206004820152602560248201527f426c6f636b6c69737461626c653a206163636f756e7420697320626c6f636b6c6044820152641a5cdd195960da1b6064820152608401610b50565b6001600160a01b038416600090815260996020526040902054849060ff16156127b85760405162461bcd60e51b815260206004820152602560248201527f426c6f636b6c69737461626c653a206163636f756e7420697320626c6f636b6c6044820152641a5cdd195960da1b6064820152608401610b50565b610c4b33868661372b565b606554600090600160a01b900460ff16156128135760405162461bcd60e51b815260206004820152601060248201526f14185d5cd8589b194e881c185d5cd95960821b6044820152606401610b50565b3360008181526099602052604090205460ff16156128815760405162461bcd60e51b815260206004820152602560248201527f426c6f636b6c69737461626c653a206163636f756e7420697320626c6f636b6c6044820152641a5cdd195960da1b6064820152608401610b50565b6001600160a01b038416600090815260996020526040902054849060ff16156128fa5760405162461bcd60e51b815260206004820152602560248201527f426c6f636b6c69737461626c653a206163636f756e7420697320626c6f636b6c6044820152641a5cdd195960da1b6064820152608401610b50565b610c4b338686613308565b6032546001600160a01b0316331461295f5760405162461bcd60e51b815260206004820181905260248201527f4f776e61626c653a2063616c6c6572206973206e6f7420746865206f776e65726044820152606401610b50565b6001600160a01b0381166129db5760405162461bcd60e51b815260206004820152602f60248201527f46696174546f6b656e3a206e6577206d61737465724d696e746572206973207460448201527f6865207a65726f206164647265737300000000000000000000000000000000006064820152608401610b50565b610203805473ffffffffffffffffffffffffffffffffffffffff19166001600160a01b0383169081179091556040517fdb66dfa9c6b8f5226fe9aac7e51897ae8ee94ac31dc70bb6c9900b2574b707e690600090a250565b60cc546001600160a01b03163314612ab25760405162461bcd60e51b8152602060048201526024808201527f526573637561626c653a2063616c6c6572206973206e6f74207468652072657360448201527f63756572000000000000000000000000000000000000000000000000000000006064820152608401610b50565b612ac66001600160a01b0384168383613801565b505050565b606554600160a01b900460ff1615612b185760405162461bcd60e51b815260206004820152601060248201526f14185d5cd8589b194e881c185d5cd95960821b6044820152606401610b50565b6001600160a01b038716600090815260996020526040902054879060ff1615612b915760405162461bcd60e51b815260206004820152602560248201527f426c6f636b6c69737461626c653a206163636f756e7420697320626c6f636b6c6044820152641a5cdd195960da1b6064820152608401610b50565b6001600160a01b038716600090815260996020526040902054879060ff1615612c0a5760405162461bcd60e51b815260206004820152602560248201527f426c6f636b6c69737461626c653a206163636f756e7420697320626c6f636b6c6044820152641a5cdd195960da1b6064820152608401610b50565b612c1989898989898989613881565b505050505050505050565b606554600160a01b900460ff1615612c715760405162461bcd60e51b815260206004820152601060248201526f14185d5cd8589b194e881c185d5cd95960821b6044820152606401610b50565b6001600160a01b038916600090815260996020526040902054899060ff1615612cea5760405162461bcd60e51b815260206004820152602560248201527f426c6f636b6c69737461626c653a206163636f756e7420697320626c6f636b6c6044820152641a5cdd195960da1b6064820152608401610b50565b6001600160a01b038916600090815260996020526040902054899060ff1615612d635760405162461bcd60e51b815260206004820152602560248201527f426c6f636b6c69737461626c653a206163636f756e7420697320626c6f636b6c6044820152641a5cdd195960da1b6064820152608401610b50565b612d748b8b8b8b8b8b8b8b8b6139ec565b5050505050505050505050565b6102028054610a8390614a84565b6098546001600160a01b03163314612e0f5760405162461bcd60e51b815260206004820152602c60248201527f426c6f636b6c69737461626c653a2063616c6c6572206973206e6f742074686560448201527f20626c6f636b6c697374657200000000000000000000000000000000000000006064820152608401610b50565b6001600160a01b038116600081815260996020526040808220805460ff19166001179055517f917c251bb231c4b997a420bebe47edad5c20e70715da16c38e9b2e172e44ab929190a250565b606554600160a01b900460ff1615612ea85760405162461bcd60e51b815260206004820152601060248201526f14185d5cd8589b194e881c185d5cd95960821b6044820152606401610b50565b6001600160a01b038916600090815260996020526040902054899060ff1615612f215760405162461bcd60e51b815260206004820152602560248201527f426c6f636b6c69737461626c653a206163636f756e7420697320626c6f636b6c6044820152641a5cdd195960da1b6064820152608401610b50565b6001600160a01b038916600090815260996020526040902054899060ff1615612f9a5760405162461bcd60e51b815260206004820152602560248201527f426c6f636b6c69737461626c653a206163636f756e7420697320626c6f636b6c6044820152641a5cdd195960da1b6064820152608401610b50565b612d748b8b8b8b8b8b8b8b8b613afd565b6032546001600160a01b031633146130055760405162461bcd60e51b815260206004820181905260248201527f4f776e61626c653a2063616c6c6572206973206e6f7420746865206f776e65726044820152606401610b50565b6001600160a01b0381166130815760405162461bcd60e51b815260206004820152602660248201527f4f776e61626c653a206e6577206f776e657220697320746865207a65726f206160448201527f64647265737300000000000000000000000000000000000000000000000000006064820152608401610b50565b6117268161353a565b6032546001600160a01b031633146130e45760405162461bcd60e51b815260206004820181905260248201527f4f776e61626c653a2063616c6c6572206973206e6f7420746865206f776e65726044820152606401610b50565b6001600160a01b0381166131605760405162461bcd60e51b815260206004820152603260248201527f426c6f636b6c69737461626c653a206e657720626c6f636b6c6973746572206960448201527f7320746865207a65726f206164647265737300000000000000000000000000006064820152608401610b50565b6098805473ffffffffffffffffffffffffffffffffffffffff19166001600160a01b0383169081179091556040517f68f10ceb42d30acc930aaaedf5b94559e14fc4f22496dc2c1b38b1b1b5231f9890600090a250565b6001600160a01b0383166132325760405162461bcd60e51b8152602060048201526024808201527f45524332303a20617070726f76652066726f6d20746865207a65726f2061646460448201527f72657373000000000000000000000000000000000000000000000000000000006064820152608401610b50565b6001600160a01b0382166132ae5760405162461bcd60e51b815260206004820152602260248201527f45524332303a20617070726f766520746f20746865207a65726f20616464726560448201527f73730000000000000000000000000000000000000000000000000000000000006064820152608401610b50565b6001600160a01b038381166000818152610205602090815260408083209487168084529482529182902085905590518481527f8c5be1e5ebec7d5bd14f71427d1e84f3dd0314c0f7b2291e5b200ac8c7c3b9259101612047565b6001600160a01b0383166133845760405162461bcd60e51b815260206004820152602560248201527f45524332303a207472616e736665722066726f6d20746865207a65726f20616460448201527f64726573730000000000000000000000000000000000000000000000000000006064820152608401610b50565b6001600160a01b0382166134005760405162461bcd60e51b815260206004820152602360248201527f45524332303a207472616e7366657220746f20746865207a65726f206164647260448201527f65737300000000000000000000000000000000000000000000000000000000006064820152608401610b50565b6001600160a01b0383166000908152610204602052604090205481111561348f5760405162461bcd60e51b815260206004820152602660248201527f45524332303a207472616e7366657220616d6f756e742065786365656473206260448201527f616c616e636500000000000000000000000000000000000000000000000000006064820152608401610b50565b6001600160a01b038316600090815261020460205260409020546134b4908290614b07565b6001600160a01b038085166000908152610204602052604080822093909355908416815220546134e5908290614b1e565b6001600160a01b038084166000818152610204602052604090819020939093559151908516907fddf252ad1be2c89b69c2b068fc378daa952ba7f163c4a11628f55a4df523b3ef906120479085815260200190565b603280546001600160a01b0383811673ffffffffffffffffffffffffffffffffffffffff19831681179093556040519116919082907f8be0079c531659141344cd1fd0a4f28419497f9722a3daafe3b4186f6b6457e090600090a35050565b6135a283613bf3565b6000825111806135af5750805b15612ac6576135be8383613c33565b50505050565b6001600160a01b0380841660009081526102056020908152604080832093861683529290522054612ac690849084906135fe908590614b1e565b6131b7565b61360d8585613c5f565b604080517f158b0a9edf7a828aad02f63cd515c68ef2f50ba807396f6d12842833a159742960208201526001600160a01b03871681830181905260608083018890528351808403909101815260809092019092529061367661366d6123f4565b86868686613cfa565b6001600160a01b0316146136cc5760405162461bcd60e51b815260206004820152601a60248201527f454950333030393a20696e76616c6964207369676e61747572650000000000006044820152606401610b50565b6001600160a01b038616600081815261013560209081526040808320898452909152808220805460ff19166001179055518792917f1cdd46ff242716cdaa72d159d339a485b3438398348d68f09d7c8c0a59353d8191a3505050505050565b6001600160a01b03808416600090815261020560209081526040808320938616835292905220548111156137c75760405162461bcd60e51b815260206004820152602560248201527f45524332303a2064656372656173656420616c6c6f77616e63652062656c6f7760448201527f207a65726f0000000000000000000000000000000000000000000000000000006064820152608401610b50565b6001600160a01b0380841660009081526102056020908152604080832093861683529290522054612ac690849084906135fe908590614b07565b604080516001600160a01b038416602482015260448082018490528251808303909101815260649091019091526020810180517bffffffffffffffffffffffffffffffffffffffffffffffffffffffff167fa9059cbb00000000000000000000000000000000000000000000000000000000179052612ac6908490613d77565b428410156138d15760405162461bcd60e51b815260206004820152601a60248201527f454950323631323a207065726d697420697320657870697265640000000000006044820152606401610b50565b6001600160a01b03871660009081526101686020526040812080547f6e71edae12b1b97f4d1f60370fef10105fa2faae0126114a169c64845d6126c9918a918a918a91908661391f83614b36565b909155506040805160208101969096526001600160a01b0394851690860152929091166060840152608083015260a082015260c0810186905260e0016040516020818303038152906040529050876001600160a01b031661398161366d6123f4565b6001600160a01b0316146139d75760405162461bcd60e51b815260206004820152601a60248201527f454950323631323a20696e76616c6964207369676e61747572650000000000006044820152606401610b50565b6139e28888886131b7565b5050505050505050565b6139f889858888613e5c565b604080517f7c7c6cdb67a18743f49ec6fa9b35f50d52ed05cbed4cc592e13b44501c1a226760208201526001600160a01b03808c169282019290925290891660608201526080810188905260a0810187905260c0810186905260e08101859052600090610100015b6040516020818303038152906040529050896001600160a01b0316613a8661366d6123f4565b6001600160a01b031614613adc5760405162461bcd60e51b815260206004820152601a60248201527f454950333030393a20696e76616c6964207369676e61747572650000000000006044820152606401610b50565b613ae68a86613f50565b613af18a8a8a613308565b50505050505050505050565b6001600160a01b0388163314613b7b5760405162461bcd60e51b815260206004820152602160248201527f454950333030393a2063616c6c6572206d75737420626520746865207061796560448201527f65000000000000000000000000000000000000000000000000000000000000006064820152608401610b50565b613b8789858888613e5c565b604080517fd099cc98ef71107a616c4f0f941f04c322d8e254fe26b3c6668db87aae413de860208201526001600160a01b03808c169282019290925290891660608201526080810188905260a0810187905260c0810186905260e0810185905260009061010001613a60565b613bfc81613fab565b6040516001600160a01b038216907fbc7cd75a20ee27fd9adebab32041f755214dbc6bffa90cc0225b39da2e5c2d3b90600090a250565b6060613c588383604051806060016040528060278152602001614bae6027913961406d565b9392505050565b6001600160a01b03821660009081526101356020908152604080832084845290915290205460ff161561219d5760405162461bcd60e51b815260206004820152602a60248201527f454950333030393a20617574686f72697a6174696f6e2069732075736564206f60448201527f722063616e63656c6564000000000000000000000000000000000000000000006064820152608401610b50565b600080868380519060200120604051602001613d489291907f190100000000000000000000000000000000000000000000000000000000000081526002810192909252602282015260420190565b604051602081830303815290604052805190602001209050613d6c81878787614158565b979650505050505050565b6000613dcc826040518060400160405280602081526020017f5361666545524332303a206c6f772d6c6576656c2063616c6c206661696c6564815250856001600160a01b031661433b9092919063ffffffff16565b805190915015612ac65780806020019051810190613dea9190614b6f565b612ac65760405162461bcd60e51b815260206004820152602a60248201527f5361666545524332303a204552433230206f7065726174696f6e20646964206e60448201527f6f742073756363656564000000000000000000000000000000000000000000006064820152608401610b50565b814211613ed15760405162461bcd60e51b815260206004820152602860248201527f46454950333030393a20617574686f72697a6174696f6e206973206e6f74207960448201527f65742076616c69640000000000000000000000000000000000000000000000006064820152608401610b50565b804210613f465760405162461bcd60e51b815260206004820152602160248201527f454950333030393a20617574686f72697a6174696f6e2069732065787069726560448201527f64000000000000000000000000000000000000000000000000000000000000006064820152608401610b50565b6135be8484613c5f565b6001600160a01b038216600081815261013560209081526040808320858452909152808220805460ff19166001179055518392917f98de503528ee59b575ef0c0a2576a82497bfc029a5685b209e9ec333479b10a591a35050565b803b61401f5760405162461bcd60e51b815260206004820152602d60248201527f455243313936373a206e657720696d706c656d656e746174696f6e206973206e60448201527f6f74206120636f6e7472616374000000000000000000000000000000000000006064820152608401610b50565b7f360894a13ba1a3210667c828492db98dca3e2076cc3735a920a3ca505d382bbc805473ffffffffffffffffffffffffffffffffffffffff19166001600160a01b0392909216919091179055565b6060833b6140e35760405162461bcd60e51b815260206004820152602660248201527f416464726573733a2064656c65676174652063616c6c20746f206e6f6e2d636f60448201527f6e747261637400000000000000000000000000000000000000000000000000006064820152608401610b50565b600080856001600160a01b0316856040516140fe9190614b91565b600060405180830381855af49150503d8060008114614139576040519150601f19603f3d011682016040523d82523d6000602084013e61413e565b606091505b509150915061414e828286614352565b9695505050505050565b60007f7fffffffffffffffffffffffffffffff5d576e7357a4501ddfe92f46681b20a08211156141f05760405162461bcd60e51b815260206004820152602660248201527f45435265636f7665723a20696e76616c6964207369676e61747572652027732760448201527f2076616c756500000000000000000000000000000000000000000000000000006064820152608401610b50565b8360ff16601b1415801561420857508360ff16601c14155b1561427b5760405162461bcd60e51b815260206004820152602660248201527f45435265636f7665723a20696e76616c6964207369676e61747572652027762760448201527f2076616c756500000000000000000000000000000000000000000000000000006064820152608401610b50565b6040805160008082526020820180845288905260ff871692820192909252606081018590526080810184905260019060a0016020604051602081039080840390855afa1580156142cf573d6000803e3d6000fd5b5050604051601f1901519150506001600160a01b0381166143325760405162461bcd60e51b815260206004820152601c60248201527f45435265636f7665723a20696e76616c6964207369676e6174757265000000006044820152606401610b50565b95945050505050565b606061434a848460008561438b565b949350505050565b60608315614361575081613c58565b8251156143715782518084602001fd5b8160405162461bcd60e51b8152600401610b5091906145ff565b6060824710156144035760405162461bcd60e51b815260206004820152602660248201527f416464726573733a20696e73756666696369656e742062616c616e636520666f60448201527f722063616c6c00000000000000000000000000000000000000000000000000006064820152608401610b50565b843b6144515760405162461bcd60e51b815260206004820152601d60248201527f416464726573733a2063616c6c20746f206e6f6e2d636f6e74726163740000006044820152606401610b50565b600080866001600160a01b0316858760405161446d9190614b91565b60006040518083038185875af1925050503d80600081146144aa576040519150601f19603f3d011682016040523d82523d6000602084013e6144af565b606091505b5091509150613d6c828286614352565b8280546144cb90614a84565b90600052602060002090601f0160209004810192826144ed5760008555614533565b82601f1061450657805160ff1916838001178555614533565b82800160010185558215614533579182015b82811115614533578251825591602001919060010190614518565b5061453f9291506145be565b5090565b82805461454f90614a84565b90600052602060002090601f0160209004810192826145715760008555614533565b82601f106145825780548555614533565b8280016001018555821561453357600052602060002091601f016020900482015b828111156145335782548255916001019190600101906145a3565b5b8082111561453f57600081556001016145bf565b60005b838110156145ee5781810151838201526020016145d6565b838111156135be5750506000910152565b602081526000825180602084015261461e8160408501602087016145d3565b601f01601f19169190910160400192915050565b6001600160a01b038116811461172657600080fd5b803561111881614632565b6000806040838503121561466557600080fd5b823561467081614632565b946020939093013593505050565b60008060006060848603121561469357600080fd5b833561469e81614632565b925060208401356146ae81614632565b929592945050506040919091013590565b6000602082840312156146d157600080fd5b8135613c5881614632565b7f4e487b7100000000000000000000000000000000000000000000000000000000600052604160045260246000fd5b600067ffffffffffffffff80841115614726576147266146dc565b604051601f8501601f19908116603f0116810190828211818310171561474e5761474e6146dc565b8160405280935085815286868601111561476757600080fd5b858560208301376000602087830101525050509392505050565b600082601f83011261479257600080fd5b613c588383356020850161470b565b803560ff8116811461111857600080fd5b600080600080600080600080610100898b0312156147cf57600080fd5b883567ffffffffffffffff808211156147e757600080fd5b6147f38c838d01614781565b995060208b013591508082111561480957600080fd5b6148158c838d01614781565b985060408b013591508082111561482b57600080fd5b506148388b828c01614781565b96505061484760608a016147a1565b945061485560808a01614647565b935061486360a08a01614647565b925061487160c08a01614647565b915061487f60e08a01614647565b90509295985092959890939650565b6000602082840312156148a057600080fd5b5035919050565b600080604083850312156148ba57600080fd5b82356148c581614632565b9150602083013567ffffffffffffffff8111156148e157600080fd5b8301601f810185136148f257600080fd5b6149018582356020840161470b565b9150509250929050565b600080600080600060a0868803121561492357600080fd5b853561492e81614632565b945060208601359350614943604087016147a1565b94979396509394606081013594506080013592915050565b600080600080600080600060e0888a03121561497657600080fd5b873561498181614632565b9650602088013561499181614632565b955060408801359450606088013593506149ad608089016147a1565b925060a0880135915060c0880135905092959891949750929550565b600080604083850312156149dc57600080fd5b82356149e781614632565b915060208301356149f781614632565b809150509250929050565b60008060008060008060008060006101208a8c031215614a2157600080fd5b8935614a2c81614632565b985060208a0135614a3c81614632565b975060408a0135965060608a0135955060808a0135945060a08a01359350614a6660c08b016147a1565b925060e08a013591506101008a013590509295985092959850929598565b600181811c90821680614a9857607f821691505b60208210811415614ad2577f4e487b7100000000000000000000000000000000000000000000000000000000600052602260045260246000fd5b50919050565b7f4e487b7100000000000000000000000000000000000000000000000000000000600052601160045260246000fd5b600082821015614b1957614b19614ad8565b500390565b60008219821115614b3157614b31614ad8565b500190565b60007fffffffffffffffffffffffffffffffffffffffffffffffffffffffffffffffff821415614b6857614b68614ad8565b5060010190565b600060208284031215614b8157600080fd5b81518015158114613c5857600080fd5b60008251614ba38184602087016145d3565b919091019291505056fe416464726573733a206c6f772d6c6576656c2064656c65676174652063616c6c206661696c6564a26469706673582212204e87fc6684b0c5fe60581e4d1fe1f88b0fedbaa2c3b22a44709abe0dba8718d364736f6c634300080b0033",
  "linkReferences": {},
  "deployedLinkReferences": {}
}