{
  "_format": "hh-sol-artifact-1",
  "contractName": "Blocklistable",
  "sourceName": "contracts/v1/Blocklistable.sol",
  "abi": [
    {
      "anonymous": false,
      "inputs": [
        {
          "indexed": true,
          "internalType": "address",
          "name": "_account",
          "type": "address"
        }
      ],
      "name": "Blocklisted",
      "type": "event"
    },
    {
      "anonymous": false,
      "inputs": [
        {
          "indexed": true,
          "internalType": "address",
          "name": "newBlocklister",
          "type": "address"
        }
      ],
      "name": "BlocklisterChanged",
      "type": "event"
    },
    {
      "anonymous": false,
      "inputs": [
        {
          "indexed": true,
          "internalType": "address",
          "name": "previousOwner",
          "type": "address"
        },
        {
          "indexed": true,
          "internalType": "address",
          "name": "newOwner",
          "type": "address"
        }
      ],
      "name": "OwnershipTransferred",
      "type": "event"
    },
    {
      "anonymous": false,
      "inputs": [
        {
          "indexed": true,
          "internalType": "address",
          "name": "_account",
          "type": "address"
        }
      ],
      "name": "UnBlocklisted",
      "type": "event"
    },
    {
      "inputs": [
        {
          "internalType": "address",
          "name": "_account",
          "type": "address"
        }
      ],
      "name": "blocklist",
      "outputs": [],
      "stateMutability": "nonpayable",
      "type": "function"
    },
    {
      "inputs": [],
      "name": "blocklister",
      "outputs": [
        {
          "internalType": "address",
          "name": "",
          "type": "address"
        }
      ],
      "stateMutability": "view",
      "type": "function"
    },
    {
      "inputs": [
        {
          "internalType": "address",
          "name": "_account",
          "type": "address"
        }
      ],
      "name": "isBlocklisted",
      "outputs": [
        {
          "internalType": "bool",
          "name": "",
          "type": "bool"
        }
      ],
      "stateMutability": "view",
      "type": "function"
    },
    {
      "inputs": [],
      "name": "owner",
      "outputs": [
        {
          "internalType": "address",
          "name": "",
          "type": "address"
        }
      ],
      "stateMutability": "view",
      "type": "function"
    },
    {
      "inputs": [
        {
          "internalType": "address",
          "name": "newOwner",
          "type": "address"
        }
      ],
      "name": "transferOwnership",
      "outputs": [],
      "stateMutability": "nonpayable",
      "type": "function"
    },
    {
      "inputs": [
        {
          "internalType": "address",
          "name": "_account",
          "type": "address"
        }
      ],
      "name": "unBlocklist",
      "outputs": [],
      "stateMutability": "nonpayable",
      "type": "function"
    },
    {
      "inputs": [
        {
          "internalType": "address",
          "name": "_newBlocklister",
          "type": "address"
        }
      ],
      "name": "updateBlocklister",
      "outputs": [],
      "stateMutability": "nonpayable",
      "type": "function"
    }
  ],
  "bytecode": "0x608060405234801561001057600080fd5b5061001a3361001f565b610071565b603280546001600160a01b038381166001600160a01b0319831681179093556040519116919082907f8be0079c531659141344cd1fd0a4f28419497f9722a3daafe3b4186f6b6457e090600090a35050565b6105cd806100806000396000f3fe608060405234801561001057600080fd5b506004361061007d5760003560e01c8063b54d94971161005b578063b54d9497146100fd578063e5c7160b14610110578063f2fde38b14610123578063f9b5aa921461013657600080fd5b806331b23020146100825780638da5cb5b146100975780638e204c43146100c1575b600080fd5b610095610090366004610567565b610149565b005b6032546001600160a01b03165b6040516001600160a01b0390911681526020015b60405180910390f35b6100ed6100cf366004610567565b6001600160a01b031660009081526066602052604090205460ff1690565b60405190151581526020016100b8565b6065546100a4906001600160a01b031681565b61009561011e366004610567565b610217565b610095610131366004610567565b6102e3565b610095610144366004610567565b6103c5565b6065546001600160a01b031633146101ce5760405162461bcd60e51b815260206004820152602c60248201527f426c6f636b6c69737461626c653a2063616c6c6572206973206e6f742074686560448201527f20626c6f636b6c6973746572000000000000000000000000000000000000000060648201526084015b60405180910390fd5b6001600160a01b038116600081815260666020526040808220805460ff19169055517fbc3fe0fc667d12a7a22748747f024a7d971127ffc48f6622675d3e97a2591a519190a250565b6065546001600160a01b031633146102975760405162461bcd60e51b815260206004820152602c60248201527f426c6f636b6c69737461626c653a2063616c6c6572206973206e6f742074686560448201527f20626c6f636b6c6973746572000000000000000000000000000000000000000060648201526084016101c5565b6001600160a01b038116600081815260666020526040808220805460ff19166001179055517f917c251bb231c4b997a420bebe47edad5c20e70715da16c38e9b2e172e44ab929190a250565b6032546001600160a01b0316331461033d5760405162461bcd60e51b815260206004820181905260248201527f4f776e61626c653a2063616c6c6572206973206e6f7420746865206f776e657260448201526064016101c5565b6001600160a01b0381166103b95760405162461bcd60e51b815260206004820152602660248201527f4f776e61626c653a206e6577206f776e657220697320746865207a65726f206160448201527f646472657373000000000000000000000000000000000000000000000000000060648201526084016101c5565b6103c2816104fd565b50565b6032546001600160a01b0316331461041f5760405162461bcd60e51b815260206004820181905260248201527f4f776e61626c653a2063616c6c6572206973206e6f7420746865206f776e657260448201526064016101c5565b6001600160a01b03811661049b5760405162461bcd60e51b815260206004820152603260248201527f426c6f636b6c69737461626c653a206e657720626c6f636b6c6973746572206960448201527f7320746865207a65726f2061646472657373000000000000000000000000000060648201526084016101c5565b606580547fffffffffffffffffffffffff0000000000000000000000000000000000000000166001600160a01b0383169081179091556040517f68f10ceb42d30acc930aaaedf5b94559e14fc4f22496dc2c1b38b1b1b5231f9890600090a250565b603280546001600160a01b038381167fffffffffffffffffffffffff0000000000000000000000000000000000000000831681179093556040519116919082907f8be0079c531659141344cd1fd0a4f28419497f9722a3daafe3b4186f6b6457e090600090a35050565b60006020828403121561057957600080fd5b81356001600160a01b038116811461059057600080fd5b939250505056fea2646970667358221220891336aede62f1c8c2baac596acf49b78e6de3319dd10971e9eb99c7a621190a64736f6c634300080b0033",
  "linkReferences": {},
  "deployedLinkReferences": {}
}