{
  "_format": "hh-sol-artifact-1",
  "contractName": "ECRecoverTest",
  "sourceName": "contracts/test/ECRecoverTest.sol",
  "abi": [
    {
      "inputs": [
        {
          "internalType": "bytes32",
          "name": "digest",
          "type": "bytes32"
        },
        {
          "internalType": "uint8",
          "name": "v",
          "type": "uint8"
        },
        {
          "internalType": "bytes32",
          "name": "r",
          "type": "bytes32"
        },
        {
          "internalType": "bytes32",
          "name": "s",
          "type": "bytes32"
        }
      ],
      "name": "recover",
      "outputs": [
        {
          "internalType": "address",
          "name": "",
          "type": "address"
        }
      ],
      "stateMutability": "pure",
      "type": "function"
    }
  ],
  "bytecode": "0x608060405234801561001057600080fd5b50610354806100206000396000f3fe608060405234801561001057600080fd5b506004361061002b5760003560e01c8063c2bf17b014610030575b600080fd5b61004361003e3660046102db565b61006c565b60405173ffffffffffffffffffffffffffffffffffffffff909116815260200160405180910390f35b600061007a85858585610083565b95945050505050565b60007f7fffffffffffffffffffffffffffffff5d576e7357a4501ddfe92f46681b20a082111561013a576040517f08c379a000000000000000000000000000000000000000000000000000000000815260206004820152602660248201527f45435265636f7665723a20696e76616c6964207369676e61747572652027732760448201527f2076616c7565000000000000000000000000000000000000000000000000000060648201526084015b60405180910390fd5b8360ff16601b1415801561015257508360ff16601c14155b156101df576040517f08c379a000000000000000000000000000000000000000000000000000000000815260206004820152602660248201527f45435265636f7665723a20696e76616c6964207369676e61747572652027762760448201527f2076616c756500000000000000000000000000000000000000000000000000006064820152608401610131565b6040805160008082526020820180845288905260ff871692820192909252606081018590526080810184905260019060a0016020604051602081039080840390855afa158015610233573d6000803e3d6000fd5b50506040517fffffffffffffffffffffffffffffffffffffffffffffffffffffffffffffffe0015191505073ffffffffffffffffffffffffffffffffffffffff811661007a576040517f08c379a000000000000000000000000000000000000000000000000000000000815260206004820152601c60248201527f45435265636f7665723a20696e76616c6964207369676e6174757265000000006044820152606401610131565b600080600080608085870312156102f157600080fd5b84359350602085013560ff8116811461030957600080fd5b9396939550505050604082013591606001359056fea2646970667358221220c137b5dae4ba2f51450587fd23501b8356a85d4c1a4b779b74ea9f9f73a24d3264736f6c634300080b0033",
  "linkReferences": {},
  "deployedLinkReferences": {}
}