{
  "_format": "hh-sol-artifact-1",
  "contractName": "FiatTokenV1",
  "sourceName": "contracts/v1/FiatTokenV1.sol",
  "abi": [
    {
      "anonymous": false,
      "inputs": [
        {
          "indexed": true,
          "internalType": "address",
          "name": "owner",
          "type": "address"
        },
        {
          "indexed": true,
          "internalType": "address",
          "name": "spender",
          "type": "address"
        },
        {
          "indexed": false,
          "internalType": "uint256",
          "name": "value",
          "type": "uint256"
        }
      ],
      "name": "Approval",
      "type": "event"
    },
    {
      "anonymous": false,
      "inputs": [
        {
          "indexed": true,
          "internalType": "address",
          "name": "authorizer",
          "type": "address"
        },
        {
          "indexed": true,
          "internalType": "bytes32",
          "name": "nonce",
          "type": "bytes32"
        }
      ],
      "name": "AuthorizationCanceled",
      "type": "event"
    },
    {
      "anonymous": false,
      "inputs": [
        {
          "indexed": true,
          "internalType": "address",
          "name": "authorizer",
          "type": "address"
        },
        {
          "indexed": true,
          "internalType": "bytes32",
          "name": "nonce",
          "type": "bytes32"
        }
      ],
      "name": "AuthorizationUsed",
      "type": "event"
    },
    {
      "anonymous": false,
      "inputs": [
        {
          "indexed": true,
          "internalType": "address",
          "name": "_account",
          "type": "address"
        }
      ],
      "name": "Blocklisted",
      "type": "event"
    },
    {
      "anonymous": false,
      "inputs": [
        {
          "indexed": true,
          "internalType": "address",
          "name": "newBlocklister",
          "type": "address"
        }
      ],
      "name": "BlocklisterChanged",
      "type": "event"
    },
    {
      "anonymous": false,
      "inputs": [
        {
          "indexed": true,
          "internalType": "address",
          "name": "burner",
          "type": "address"
        },
        {
          "indexed": false,
          "internalType": "uint256",
          "name": "amount",
          "type": "uint256"
        }
      ],
      "name": "Burn",
      "type": "event"
    },
    {
      "anonymous": false,
      "inputs": [
        {
          "indexed": true,
          "internalType": "address",
          "name": "newMasterMinter",
          "type": "address"
        }
      ],
      "name": "MasterMinterChanged",
      "type": "event"
    },
    {
      "anonymous": false,
      "inputs": [
        {
          "indexed": true,
          "internalType": "address",
          "name": "minter",
          "type": "address"
        },
        {
          "indexed": true,
          "internalType": "address",
          "name": "to",
          "type": "address"
        },
        {
          "indexed": false,
          "internalType": "uint256",
          "name": "amount",
          "type": "uint256"
        }
      ],
      "name": "Mint",
      "type": "event"
    },
    {
      "anonymous": false,
      "inputs": [
        {
          "indexed": true,
          "internalType": "address",
          "name": "minter",
          "type": "address"
        },
        {
          "indexed": false,
          "internalType": "uint256",
          "name": "minterAllowedAmount",
          "type": "uint256"
        }
      ],
      "name": "MinterConfigured",
      "type": "event"
    },
    {
      "anonymous": false,
      "inputs": [
        {
          "indexed": true,
          "internalType": "address",
          "name": "oldMinter",
          "type": "address"
        }
      ],
      "name": "MinterRemoved",
      "type": "event"
    },
    {
      "anonymous": false,
      "inputs": [
        {
          "indexed": true,
          "internalType": "address",
          "name": "previousOwner",
          "type": "address"
        },
        {
          "indexed": true,
          "internalType": "address",
          "name": "newOwner",
          "type": "address"
        }
      ],
      "name": "OwnershipTransferred",
      "type": "event"
    },
    {
      "anonymous": false,
      "inputs": [],
      "name": "Pause",
      "type": "event"
    },
    {
      "anonymous": false,
      "inputs": [
        {
          "indexed": true,
          "internalType": "address",
          "name": "newAddress",
          "type": "address"
        }
      ],
      "name": "PauserChanged",
      "type": "event"
    },
    {
      "anonymous": false,
      "inputs": [
        {
          "indexed": true,
          "internalType": "address",
          "name": "newRescuer",
          "type": "address"
        }
      ],
      "name": "RescuerChanged",
      "type": "event"
    },
    {
      "anonymous": false,
      "inputs": [
        {
          "indexed": true,
          "internalType": "address",
          "name": "from",
          "type": "address"
        },
        {
          "indexed": true,
          "internalType": "address",
          "name": "to",
          "type": "address"
        },
        {
          "indexed": false,
          "internalType": "uint256",
          "name": "value",
          "type": "uint256"
        }
      ],
      "name": "Transfer",
      "type": "event"
    },
    {
      "anonymous": false,
      "inputs": [
        {
          "indexed": true,
          "internalType": "address",
          "name": "_account",
          "type": "address"
        }
      ],
      "name": "UnBlocklisted",
      "type": "event"
    },
    {
      "anonymous": false,
      "inputs": [],
      "name": "Unpause",
      "type": "event"
    },
    {
      "anonymous": false,
      "inputs": [
        {
          "indexed": true,
          "internalType": "address",
          "name": "implementation",
          "type": "address"
        }
      ],
      "name": "Upgraded",
      "type": "event"
    },
    {
      "inputs": [],
      "name": "CANCEL_AUTHORIZATION_TYPEHASH",
      "outputs": [
        {
          "internalType": "bytes32",
          "name": "",
          "type": "bytes32"
        }
      ],
      "stateMutability": "view",
      "type": "function"
    },
    {
      "inputs": [],
      "name": "PERMIT_TYPEHASH",
      "outputs": [
        {
          "internalType": "bytes32",
          "name": "",
          "type": "bytes32"
        }
      ],
      "stateMutability": "view",
      "type": "function"
    },
    {
      "inputs": [],
      "name": "RECEIVE_WITH_AUTHORIZATION_TYPEHASH",
      "outputs": [
        {
          "internalType": "bytes32",
          "name": "",
          "type": "bytes32"
        }
      ],
      "stateMutability": "view",
      "type": "function"
    },
    {
      "inputs": [],
      "name": "TRANSFER_WITH_AUTHORIZATION_TYPEHASH",
      "outputs": [
        {
          "internalType": "bytes32",
          "name": "",
          "type": "bytes32"
        }
      ],
      "stateMutability": "view",
      "type": "function"
    },
    {
      "inputs": [],
      "name": "_domainSeparatorV4",
      "outputs": [
        {
          "internalType": "bytes32",
          "name": "",
          "type": "bytes32"
        }
      ],
      "stateMutability": "view",
      "type": "function"
    },
    {
      "inputs": [
        {
          "internalType": "address",
          "name": "owner",
          "type": "address"
        },
        {
          "internalType": "address",
          "name": "spender",
          "type": "address"
        }
      ],
      "name": "allowance",
      "outputs": [
        {
          "internalType": "uint256",
          "name": "",
          "type": "uint256"
        }
      ],
      "stateMutability": "view",
      "type": "function"
    },
    {
      "inputs": [
        {
          "internalType": "address",
          "name": "spender",
          "type": "address"
        },
        {
          "internalType": "uint256",
          "name": "value",
          "type": "uint256"
        }
      ],
      "name": "approve",
      "outputs": [
        {
          "internalType": "bool",
          "name": "",
          "type": "bool"
        }
      ],
      "stateMutability": "nonpayable",
      "type": "function"
    },
    {
      "inputs": [
        {
          "internalType": "address",
          "name": "authorizer",
          "type": "address"
        },
        {
          "internalType": "bytes32",
          "name": "nonce",
          "type": "bytes32"
        }
      ],
      "name": "authorizationState",
      "outputs": [
        {
          "internalType": "bool",
          "name": "",
          "type": "bool"
        }
      ],
      "stateMutability": "view",
      "type": "function"
    },
    {
      "inputs": [
        {
          "internalType": "address",
          "name": "account",
          "type": "address"
        }
      ],
      "name": "balanceOf",
      "outputs": [
        {
          "internalType": "uint256",
          "name": "",
          "type": "uint256"
        }
      ],
      "stateMutability": "view",
      "type": "function"
    },
    {
      "inputs": [
        {
          "internalType": "address",
          "name": "_account",
          "type": "address"
        }
      ],
      "name": "blocklist",
      "outputs": [],
      "stateMutability": "nonpayable",
      "type": "function"
    },
    {
      "inputs": [],
      "name": "blocklister",
      "outputs": [
        {
          "internalType": "address",
          "name": "",
          "type": "address"
        }
      ],
      "stateMutability": "view",
      "type": "function"
    },
    {
      "inputs": [
        {
          "internalType": "uint256",
          "name": "_amount",
          "type": "uint256"
        }
      ],
      "name": "burn",
      "outputs": [],
      "stateMutability": "nonpayable",
      "type": "function"
    },
    {
      "inputs": [
        {
          "internalType": "address",
          "name": "authorizer",
          "type": "address"
        },
        {
          "internalType": "bytes32",
          "name": "nonce",
          "type": "bytes32"
        },
        {
          "internalType": "uint8",
          "name": "v",
          "type": "uint8"
        },
        {
          "internalType": "bytes32",
          "name": "r",
          "type": "bytes32"
        },
        {
          "internalType": "bytes32",
          "name": "s",
          "type": "bytes32"
        }
      ],
      "name": "cancelAuthorization",
      "outputs": [],
      "stateMutability": "nonpayable",
      "type": "function"
    },
    {
      "inputs": [
        {
          "internalType": "address",
          "name": "minter",
          "type": "address"
        },
        {
          "internalType": "uint256",
          "name": "minterAllowedAmount",
          "type": "uint256"
        }
      ],
      "name": "configureMinter",
      "outputs": [
        {
          "internalType": "bool",
          "name": "",
          "type": "bool"
        }
      ],
      "stateMutability": "nonpayable",
      "type": "function"
    },
    {
      "inputs": [],
      "name": "currency",
      "outputs": [
        {
          "internalType": "string",
          "name": "",
          "type": "string"
        }
      ],
      "stateMutability": "view",
      "type": "function"
    },
    {
      "inputs": [],
      "name": "decimals",
      "outputs": [
        {
          "internalType": "uint8",
          "name": "",
          "type": "uint8"
        }
      ],
      "stateMutability": "view",
      "type": "function"
    },
    {
      "inputs": [
        {
          "internalType": "address",
          "name": "spender",
          "type": "address"
        },
        {
          "internalType": "uint256",
          "name": "decrement",
          "type": "uint256"
        }
      ],
      "name": "decreaseAllowance",
      "outputs": [
        {
          "internalType": "bool",
          "name": "",
          "type": "bool"
        }
      ],
      "stateMutability": "nonpayable",
      "type": "function"
    },
    {
      "inputs": [
        {
          "internalType": "address",
          "name": "spender",
          "type": "address"
        },
        {
          "internalType": "uint256",
          "name": "increment",
          "type": "uint256"
        }
      ],
      "name": "increaseAllowance",
      "outputs": [
        {
          "internalType": "bool",
          "name": "",
          "type": "bool"
        }
      ],
      "stateMutability": "nonpayable",
      "type": "function"
    },
    {
      "inputs": [
        {
          "internalType": "string",
          "name": "tokenName",
          "type": "string"
        },
        {
          "internalType": "string",
          "name": "tokenSymbol",
          "type": "string"
        },
        {
          "internalType": "string",
          "name": "tokenCurrency",
          "type": "string"
        },
        {
          "internalType": "uint8",
          "name": "tokenDecimals",
          "type": "uint8"
        },
        {
          "internalType": "address",
          "name": "newMasterMinter",
          "type": "address"
        },
        {
          "internalType": "address",
          "name": "newPauser",
          "type": "address"
        },
        {
          "internalType": "address",
          "name": "newBlocklister",
          "type": "address"
        },
        {
          "internalType": "address",
          "name": "newOwner",
          "type": "address"
        }
      ],
      "name": "initialize",
      "outputs": [],
      "stateMutability": "nonpayable",
      "type": "function"
    },
    {
      "inputs": [
        {
          "internalType": "address",
          "name": "_account",
          "type": "address"
        }
      ],
      "name": "isBlocklisted",
      "outputs": [
        {
          "internalType": "bool",
          "name": "",
          "type": "bool"
        }
      ],
      "stateMutability": "view",
      "type": "function"
    },
    {
      "inputs": [
        {
          "internalType": "address",
          "name": "account",
          "type": "address"
        }
      ],
      "name": "isMinter",
      "outputs": [
        {
          "internalType": "bool",
          "name": "",
          "type": "bool"
        }
      ],
      "stateMutability": "view",
      "type": "function"
    },
    {
      "inputs": [],
      "name": "masterMinter",
      "outputs": [
        {
          "internalType": "address",
          "name": "",
          "type": "address"
        }
      ],
      "stateMutability": "view",
      "type": "function"
    },
    {
      "inputs": [
        {
          "internalType": "address",
          "name": "_to",
          "type": "address"
        },
        {
          "internalType": "uint256",
          "name": "_amount",
          "type": "uint256"
        }
      ],
      "name": "mint",
      "outputs": [
        {
          "internalType": "bool",
          "name": "",
          "type": "bool"
        }
      ],
      "stateMutability": "nonpayable",
      "type": "function"
    },
    {
      "inputs": [
        {
          "internalType": "address",
          "name": "minter",
          "type": "address"
        }
      ],
      "name": "minterAllowance",
      "outputs": [
        {
          "internalType": "uint256",
          "name": "",
          "type": "uint256"
        }
      ],
      "stateMutability": "view",
      "type": "function"
    },
    {
      "inputs": [],
      "name": "name",
      "outputs": [
        {
          "internalType": "string",
          "name": "",
          "type": "string"
        }
      ],
      "stateMutability": "view",
      "type": "function"
    },
    {
      "inputs": [
        {
          "internalType": "address",
          "name": "owner",
          "type": "address"
        }
      ],
      "name": "nonces",
      "outputs": [
        {
          "internalType": "uint256",
          "name": "",
          "type": "uint256"
        }
      ],
      "stateMutability": "view",
      "type": "function"
    },
    {
      "inputs": [],
      "name": "owner",
      "outputs": [
        {
          "internalType": "address",
          "name": "",
          "type": "address"
        }
      ],
      "stateMutability": "view",
      "type": "function"
    },
    {
      "inputs": [],
      "name": "pause",
      "outputs": [],
      "stateMutability": "nonpayable",
      "type": "function"
    },
    {
      "inputs": [],
      "name": "paused",
      "outputs": [
        {
          "internalType": "bool",
          "name": "",
          "type": "bool"
        }
      ],
      "stateMutability": "view",
      "type": "function"
    },
    {
      "inputs": [],
      "name": "pauser",
      "outputs": [
        {
          "internalType": "address",
          "name": "",
          "type": "address"
        }
      ],
      "stateMutability": "view",
      "type": "function"
    },
    {
      "inputs": [
        {
          "internalType": "address",
          "name": "owner",
          "type": "address"
        },
        {
          "internalType": "address",
          "name": "spender",
          "type": "address"
        },
        {
          "internalType": "uint256",
          "name": "value",
          "type": "uint256"
        },
        {
          "internalType": "uint256",
          "name": "deadline",
          "type": "uint256"
        },
        {
          "internalType": "uint8",
          "name": "v",
          "type": "uint8"
        },
        {
          "internalType": "bytes32",
          "name": "r",
          "type": "bytes32"
        },
        {
          "internalType": "bytes32",
          "name": "s",
          "type": "bytes32"
        }
      ],
      "name": "permit",
      "outputs": [],
      "stateMutability": "nonpayable",
      "type": "function"
    },
    {
      "inputs": [],
      "name": "proxiableUUID",
      "outputs": [
        {
          "internalType": "bytes32",
          "name": "",
          "type": "bytes32"
        }
      ],
      "stateMutability": "view",
      "type": "function"
    },
    {
      "inputs": [
        {
          "internalType": "address",
          "name": "from",
          "type": "address"
        },
        {
          "internalType": "address",
          "name": "to",
          "type": "address"
        },
        {
          "internalType": "uint256",
          "name": "value",
          "type": "uint256"
        },
        {
          "internalType": "uint256",
          "name": "validAfter",
          "type": "uint256"
        },
        {
          "internalType": "uint256",
          "name": "validBefore",
          "type": "uint256"
        },
        {
          "internalType": "bytes32",
          "name": "nonce",
          "type": "bytes32"
        },
        {
          "internalType": "uint8",
          "name": "v",
          "type": "uint8"
        },
        {
          "internalType": "bytes32",
          "name": "r",
          "type": "bytes32"
        },
        {
          "internalType": "bytes32",
          "name": "s",
          "type": "bytes32"
        }
      ],
      "name": "receiveWithAuthorization",
      "outputs": [],
      "stateMutability": "nonpayable",
      "type": "function"
    },
    {
      "inputs": [
        {
          "internalType": "address",
          "name": "minter",
          "type": "address"
        }
      ],
      "name": "removeMinter",
      "outputs": [
        {
          "internalType": "bool",
          "name": "",
          "type": "bool"
        }
      ],
      "stateMutability": "nonpayable",
      "type": "function"
    },
    {
      "inputs": [
        {
          "internalType": "contract IERC20",
          "name": "tokenContract",
          "type": "address"
        },
        {
          "internalType": "address",
          "name": "to",
          "type": "address"
        },
        {
          "internalType": "uint256",
          "name": "amount",
          "type": "uint256"
        }
      ],
      "name": "rescueERC20",
      "outputs": [],
      "stateMutability": "nonpayable",
      "type": "function"
    },
    {
      "inputs": [],
      "name": "rescuer",
      "outputs": [
        {
          "internalType": "address",
          "name": "",
          "type": "address"
        }
      ],
      "stateMutability": "view",
      "type": "function"
    },
    {
      "inputs": [],
      "name": "symbol",
      "outputs": [
        {
          "internalType": "string",
          "name": "",
          "type": "string"
        }
      ],
      "stateMutability": "view",
      "type": "function"
    },
    {
      "inputs": [],
      "name": "totalSupply",
      "outputs": [
        {
          "internalType": "uint256",
          "name": "",
          "type": "uint256"
        }
      ],
      "stateMutability": "view",
      "type": "function"
    },
    {
      "inputs": [
        {
          "internalType": "address",
          "name": "to",
          "type": "address"
        },
        {
          "internalType": "uint256",
          "name": "value",
          "type": "uint256"
        }
      ],
      "name": "transfer",
      "outputs": [
        {
          "internalType": "bool",
          "name": "",
          "type": "bool"
        }
      ],
      "stateMutability": "nonpayable",
      "type": "function"
    },
    {
      "inputs": [
        {
          "internalType": "address",
          "name": "from",
          "type": "address"
        },
        {
          "internalType": "address",
          "name": "to",
          "type": "address"
        },
        {
          "internalType": "uint256",
          "name": "value",
          "type": "uint256"
        }
      ],
      "name": "transferFrom",
      "outputs": [
        {
          "internalType": "bool",
          "name": "",
          "type": "bool"
        }
      ],
      "stateMutability": "nonpayable",
      "type": "function"
    },
    {
      "inputs": [
        {
          "internalType": "address",
          "name": "newOwner",
          "type": "address"
        }
      ],
      "name": "transferOwnership",
      "outputs": [],
      "stateMutability": "nonpayable",
      "type": "function"
    },
    {
      "inputs": [
        {
          "internalType": "address",
          "name": "from",
          "type": "address"
        },
        {
          "internalType": "address",
          "name": "to",
          "type": "address"
        },
        {
          "internalType": "uint256",
          "name": "value",
          "type": "uint256"
        },
        {
          "internalType": "uint256",
          "name": "validAfter",
          "type": "uint256"
        },
        {
          "internalType": "uint256",
          "name": "validBefore",
          "type": "uint256"
        },
        {
          "internalType": "bytes32",
          "name": "nonce",
          "type": "bytes32"
        },
        {
          "internalType": "uint8",
          "name": "v",
          "type": "uint8"
        },
        {
          "internalType": "bytes32",
          "name": "r",
          "type": "bytes32"
        },
        {
          "internalType": "bytes32",
          "name": "s",
          "type": "bytes32"
        }
      ],
      "name": "transferWithAuthorization",
      "outputs": [],
      "stateMutability": "nonpayable",
      "type": "function"
    },
    {
      "inputs": [
        {
          "internalType": "address",
          "name": "_account",
          "type": "address"
        }
      ],
      "name": "unBlocklist",
      "outputs": [],
      "stateMutability": "nonpayable",
      "type": "function"
    },
    {
      "inputs": [],
      "name": "unpause",
      "outputs": [],
      "stateMutability": "nonpayable",
      "type": "function"
    },
    {
      "inputs": [
        {
          "internalType": "address",
          "name": "_newBlocklister",
          "type": "address"
        }
      ],
      "name": "updateBlocklister",
      "outputs": [],
      "stateMutability": "nonpayable",
      "type": "function"
    },
    {
      "inputs": [
        {
          "internalType": "address",
          "name": "_newMasterMinter",
          "type": "address"
        }
      ],
      "name": "updateMasterMinter",
      "outputs": [],
      "stateMutability": "nonpayable",
      "type": "function"
    },
    {
      "inputs": [
        {
          "internalType": "address",
          "name": "_newPauser",
          "type": "address"
        }
      ],
      "name": "updatePauser",
      "outputs": [],
      "stateMutability": "nonpayable",
      "type": "function"
    },
    {
      "inputs": [
        {
          "internalType": "address",
          "name": "newRescuer",
          "type": "address"
        }
      ],
      "name": "updateRescuer",
      "outputs": [],
      "stateMutability": "nonpayable",
      "type": "function"
    },
    {
      "inputs": [
        {
          "internalType": "address",
          "name": "newImplementation",
          "type": "address"
        }
      ],
      "name": "upgradeTo",
      "outputs": [],
      "stateMutability": "nonpayable",
      "type": "function"
    },
    {
      "inputs": [
        {
          "internalType": "address",
          "name": "newImplementation",
          "type": "address"
        },
        {
          "internalType": "bytes",
          "name": "data",
          "type": "bytes"
        }
      ],
      "name": "upgradeToAndCall",
      "outputs": [],
      "stateMutability": "payable",
      "type": "function"
    }
  ],
  "bytecode": "0x60a06040526065805460ff60a01b19169055306080526000610206553480156200002857600080fd5b5062000034336200003a565b6200008c565b603280546001600160a01b038381166001600160a01b0319831681179093556040519116919082907f8be0079c531659141344cd1fd0a4f28419497f9722a3daafe3b4186f6b6457e090600090a35050565b608051615118620000c460003960008181611716015281816117ac0152818161231c015281816123b201526124ad01526151186000f3fe6080604052600436106103295760003560e01c80637ecebe00116101a5578063aa271e1a116100ec578063e3ee160e11610095578063e94a01021161006f578063e94a0102146109ce578063ef55bec614610a15578063f2fde38b14610a35578063f9b5aa9214610a5557600080fd5b8063e3ee160e14610979578063e5a6b10f14610999578063e5c7160b146109ae57600080fd5b8063d505accf116100c6578063d505accf146108de578063d9169487146108fe578063dd62ed3e1461093257600080fd5b8063aa271e1a14610864578063b2118a8d1461089e578063b54d9497146108be57600080fd5b806395d89b411161014e578063a457c2d711610128578063a457c2d714610804578063a9059cbb14610824578063aa20e1e41461084457600080fd5b806395d89b411461079b5780639fd0506d146107b0578063a0cc6a68146107d057600080fd5b80638a6db9c31161017f5780638a6db9c31461070d5780638da5cb5b146107445780638e204c431461076257600080fd5b80637ecebe001461068d5780637f2eecc3146106c45780638456cb59146106f857600080fd5b806338a63183116102745780634f1ef2861161021d5780635a049a70116101f75780635a049a70146106005780635c975abb1461062057806370a08231146106415780637b134b4c1461067857600080fd5b80634f1ef286146105b857806352d1902d146105cb578063554bab3c146105e057600080fd5b806340c10f191161024e57806340c10f191461055857806342966c68146105785780634e44d9561461059857600080fd5b806338a631831461050557806339509351146105235780633f4ba83a1461054357600080fd5b806330adf81f116102d65780633357162b116102b05780633357162b1461048c57806335d99f35146104ac5780633659cfe6146104e557600080fd5b806330adf81f1461040b578063313ce5671461043f57806331b230201461046c57600080fd5b806323b872dd1161030757806323b872dd146103a95780632ab60045146103c95780633092afd5146103eb57600080fd5b806306fdde031461032e578063095ea7b31461035957806318160ddd14610389575b600080fd5b34801561033a57600080fd5b50610343610a75565b6040516103509190614af4565b60405180910390f35b34801561036557600080fd5b50610379610374366004614b47565b610b04565b6040519015158152602001610350565b34801561039557600080fd5b50610206545b604051908152602001610350565b3480156103b557600080fd5b506103796103c4366004614b73565b610c56565b3480156103d557600080fd5b506103e96103e4366004614bb4565b610f0e565b005b3480156103f757600080fd5b50610379610406366004614bb4565b61103b565b34801561041757600080fd5b5061039b7f6e71edae12b1b97f4d1f60370fef10105fa2faae0126114a169c64845d6126c981565b34801561044b57600080fd5b506102015461045a9060ff1681565b60405160ff9091168152602001610350565b34801561047857600080fd5b506103e9610487366004614bb4565b61111d565b34801561049857600080fd5b506103e96104a7366004614ca7565b6111e6565b3480156104b857600080fd5b50610203546104cd906001600160a01b031681565b6040516001600160a01b039091168152602001610350565b3480156104f157600080fd5b506103e9610500366004614bb4565b61170b565b34801561051157600080fd5b5060cc546001600160a01b03166104cd565b34801561052f57600080fd5b5061037961053e366004614b47565b6118a9565b34801561054f57600080fd5b506103e96119eb565b34801561056457600080fd5b50610379610573366004614b47565b611abe565b34801561058457600080fd5b506103e9610593366004614d83565b611eef565b3480156105a457600080fd5b506103796105b3366004614b47565b6121d4565b6103e96105c6366004614d9c565b612311565b3480156105d757600080fd5b5061039b6124a0565b3480156105ec57600080fd5b506103e96105fb366004614bb4565b612565565b34801561060c57600080fd5b506103e961061b366004614e00565b612692565b34801561062c57600080fd5b5060655461037990600160a01b900460ff1681565b34801561064d57600080fd5b5061039b61065c366004614bb4565b6001600160a01b03166000908152610204602052604090205490565b34801561068457600080fd5b5061039b6126f3565b34801561069957600080fd5b5061039b6106a8366004614bb4565b6001600160a01b03166000908152610168602052604090205490565b3480156106d057600080fd5b5061039b7fd099cc98ef71107a616c4f0f941f04c322d8e254fe26b3c6668db87aae413de881565b34801561070457600080fd5b506103e9612899565b34801561071957600080fd5b5061039b610728366004614bb4565b6001600160a01b03166000908152610208602052604090205490565b34801561075057600080fd5b506032546001600160a01b03166104cd565b34801561076e57600080fd5b5061037961077d366004614bb4565b6001600160a01b031660009081526099602052604090205460ff1690565b3480156107a757600080fd5b50610343612972565b3480156107bc57600080fd5b506065546104cd906001600160a01b031681565b3480156107dc57600080fd5b5061039b7f7c7c6cdb67a18743f49ec6fa9b35f50d52ed05cbed4cc592e13b44501c1a226781565b34801561081057600080fd5b5061037961081f366004614b47565b612980565b34801561083057600080fd5b5061037961083f366004614b47565b612ac2565b34801561085057600080fd5b506103e961085f366004614bb4565b612c04565b34801561087057600080fd5b5061037961087f366004614bb4565b6001600160a01b03166000908152610207602052604090205460ff1690565b3480156108aa57600080fd5b506103e96108b9366004614b73565b612d32565b3480156108ca57600080fd5b506098546104cd906001600160a01b031681565b3480156108ea57600080fd5b506103e96108f9366004614e50565b612dca565b34801561090a57600080fd5b5061039b7f158b0a9edf7a828aad02f63cd515c68ef2f50ba807396f6d12842833a159742981565b34801561093e57600080fd5b5061039b61094d366004614ebe565b6001600160a01b0391821660009081526102056020908152604080832093909416825291909152205490565b34801561098557600080fd5b506103e9610994366004614ef7565b612f23565b3480156109a557600080fd5b50610343613080565b3480156109ba57600080fd5b506103e96109c9366004614bb4565b61308e565b3480156109da57600080fd5b506103796109e9366004614b47565b6001600160a01b0391909116600090815261013560209081526040808320938352929052205460ff1690565b348015610a2157600080fd5b506103e9610a30366004614ef7565b61315a565b348015610a4157600080fd5b506103e9610a50366004614bb4565b6132aa565b348015610a6157600080fd5b506103e9610a70366004614bb4565b613389565b6101ff8054610a8390614f79565b80601f0160208091040260200160405190810160405280929190818152602001828054610aaf90614f79565b8015610afc5780601f10610ad157610100808354040283529160200191610afc565b820191906000526020600020905b815481529060010190602001808311610adf57829003601f168201915b505050505081565b606554600090600160a01b900460ff1615610b595760405162461bcd60e51b815260206004820152601060248201526f14185d5cd8589b194e881c185d5cd95960821b60448201526064015b60405180910390fd5b3360008181526099602052604090205460ff1615610bc75760405162461bcd60e51b815260206004820152602560248201527f426c6f636b6c69737461626c653a206163636f756e7420697320626c6f636b6c6044820152641a5cdd195960da1b6064820152608401610b50565b6001600160a01b038416600090815260996020526040902054849060ff1615610c405760405162461bcd60e51b815260206004820152602560248201527f426c6f636b6c69737461626c653a206163636f756e7420697320626c6f636b6c6044820152641a5cdd195960da1b6064820152608401610b50565b610c4b3386866134b6565b506001949350505050565b606554600090600160a01b900460ff1615610ca65760405162461bcd60e51b815260206004820152601060248201526f14185d5cd8589b194e881c185d5cd95960821b6044820152606401610b50565b3360008181526099602052604090205460ff1615610d145760405162461bcd60e51b815260206004820152602560248201527f426c6f636b6c69737461626c653a206163636f756e7420697320626c6f636b6c6044820152641a5cdd195960da1b6064820152608401610b50565b6001600160a01b038516600090815260996020526040902054859060ff1615610d8d5760405162461bcd60e51b815260206004820152602560248201527f426c6f636b6c69737461626c653a206163636f756e7420697320626c6f636b6c6044820152641a5cdd195960da1b6064820152608401610b50565b6001600160a01b038516600090815260996020526040902054859060ff1615610e065760405162461bcd60e51b815260206004820152602560248201527f426c6f636b6c69737461626c653a206163636f756e7420697320626c6f636b6c6044820152641a5cdd195960da1b6064820152608401610b50565b6001600160a01b038716600090815261020560209081526040808320338452909152902054851115610ea05760405162461bcd60e51b815260206004820152602860248201527f45524332303a207472616e7366657220616d6f756e742065786365656473206160448201527f6c6c6f77616e63650000000000000000000000000000000000000000000000006064820152608401610b50565b610eab878787613607565b6001600160a01b038716600090815261020560209081526040808320338452909152902054610edb908690614ffc565b6001600160a01b038816600090815261020560209081526040808320338452909152902055600193505050509392505050565b6032546001600160a01b03163314610f685760405162461bcd60e51b815260206004820181905260248201527f4f776e61626c653a2063616c6c6572206973206e6f7420746865206f776e65726044820152606401610b50565b6001600160a01b038116610fe45760405162461bcd60e51b815260206004820152602a60248201527f526573637561626c653a206e6577207265736375657220697320746865207a6560448201527f726f2061646472657373000000000000000000000000000000000000000000006064820152608401610b50565b60cc805473ffffffffffffffffffffffffffffffffffffffff19166001600160a01b0383169081179091556040517fe475e580d85111348e40d8ca33cfdd74c30fe1655c2d8537a13abc10065ffa5a90600090a250565b610203546000906001600160a01b031633146110bf5760405162461bcd60e51b815260206004820152602960248201527f46696174546f6b656e3a2063616c6c6572206973206e6f7420746865206d617360448201527f7465724d696e74657200000000000000000000000000000000000000000000006064820152608401610b50565b6001600160a01b038216600081815261020760209081526040808320805460ff19169055610208909152808220829055517fe94479a9f7e1952cc78f2d6baab678adc1b772d936c6583def489e524cb666929190a25060015b919050565b6098546001600160a01b0316331461119d5760405162461bcd60e51b815260206004820152602c60248201527f426c6f636b6c69737461626c653a2063616c6c6572206973206e6f742074686560448201527f20626c6f636b6c697374657200000000000000000000000000000000000000006064820152608401610b50565b6001600160a01b038116600081815260996020526040808220805460ff19169055517fbc3fe0fc667d12a7a22748747f024a7d971127ffc48f6622675d3e97a2591a519190a250565b61020354600160a01b900460ff16156112675760405162461bcd60e51b815260206004820152602a60248201527f46696174546f6b656e3a20636f6e747261637420697320616c7265616479206960448201527f6e697469616c697a6564000000000000000000000000000000000000000000006064820152608401610b50565b6001600160a01b0384166112e35760405162461bcd60e51b815260206004820152602f60248201527f46696174546f6b656e3a206e6577206d61737465724d696e746572206973207460448201527f6865207a65726f206164647265737300000000000000000000000000000000006064820152608401610b50565b6001600160a01b03831661135f5760405162461bcd60e51b815260206004820152602960248201527f46696174546f6b656e3a206e65772070617573657220697320746865207a657260448201527f6f206164647265737300000000000000000000000000000000000000000000006064820152608401610b50565b6001600160a01b0382166113db5760405162461bcd60e51b815260206004820152602e60248201527f46696174546f6b656e3a206e657720626c6f636b6c697374657220697320746860448201527f65207a65726f20616464726573730000000000000000000000000000000000006064820152608401610b50565b6001600160a01b0381166114575760405162461bcd60e51b815260206004820152602860248201527f46696174546f6b656e3a206e6577206f776e657220697320746865207a65726f60448201527f20616464726573730000000000000000000000000000000000000000000000006064820152608401610b50565b875161146b906101ff9060208b01906149b4565b508651611480906102009060208a01906149b4565b508551611495906102029060208901906149b4565b50610201805460ff191660ff8716179055610203805473ffffffffffffffffffffffffffffffffffffffff199081166001600160a01b0387811691909117909255606580548216868416179055609880549091169184169190911790556114fb81613839565b306000908152609960205260409020805460ff191660011790556101ff8054611665919061152890614f79565b80601f016020809104026020016040519081016040528092919081815260200182805461155490614f79565b80156115a15780601f10611576576101008083540402835291602001916115a1565b820191906000526020600020905b81548152906001019060200180831161158457829003601f168201915b5050604080518082018252600181527f310000000000000000000000000000000000000000000000000000000000000060209182015285519581019590952081517f8b73c3c69bb8fe3d512ecc4cf759cc79239f7b179b0ffacaa9a75d522b39400f81880152808301919091527fc89efdaa54c0f20c7adf612882df0950f5a951637e0307cdcb4c672f298b8bc660608201524660808201523060a0808301919091528251808303909101815260c090910190915280519401939093209392505050565b60ff5546610100556101ff8054610101919061168090614f79565b61168b929190614a38565b506040805180820190915260018082527f310000000000000000000000000000000000000000000000000000000000000060209092019182526116d191610102916149b4565b505061020380547fffffffffffffffffffffff00ffffffffffffffffffffffffffffffffffffffff16600160a01b17905550505050505050565b306001600160a01b037f00000000000000000000000000000000000000000000000000000000000000001614156117aa5760405162461bcd60e51b815260206004820152602c60248201527f46756e6374696f6e206d7573742062652063616c6c6564207468726f7567682060448201527f64656c656761746563616c6c00000000000000000000000000000000000000006064820152608401610b50565b7f00000000000000000000000000000000000000000000000000000000000000006001600160a01b03166118057f360894a13ba1a3210667c828492db98dca3e2076cc3735a920a3ca505d382bbc546001600160a01b031690565b6001600160a01b0316146118815760405162461bcd60e51b815260206004820152602c60248201527f46756e6374696f6e206d7573742062652063616c6c6564207468726f7567682060448201527f6163746976652070726f787900000000000000000000000000000000000000006064820152608401610b50565b61188a81613898565b604080516000808252602082019092526118a6918391906138f2565b50565b606554600090600160a01b900460ff16156118f95760405162461bcd60e51b815260206004820152601060248201526f14185d5cd8589b194e881c185d5cd95960821b6044820152606401610b50565b3360008181526099602052604090205460ff16156119675760405162461bcd60e51b815260206004820152602560248201527f426c6f636b6c69737461626c653a206163636f756e7420697320626c6f636b6c6044820152641a5cdd195960da1b6064820152608401610b50565b6001600160a01b038416600090815260996020526040902054849060ff16156119e05760405162461bcd60e51b815260206004820152602560248201527f426c6f636b6c69737461626c653a206163636f756e7420697320626c6f636b6c6044820152641a5cdd195960da1b6064820152608401610b50565b610c4b338686613a92565b6065546001600160a01b03163314611a6b5760405162461bcd60e51b815260206004820152602260248201527f5061757361626c653a2063616c6c6572206973206e6f7420746865207061757360448201527f65720000000000000000000000000000000000000000000000000000000000006064820152608401610b50565b606580547fffffffffffffffffffffff00ffffffffffffffffffffffffffffffffffffffff1690556040517f7805862f689e2f13df9f062ff482ad3ad112aca9e0847911ed832e158c525b3390600090a1565b606554600090600160a01b900460ff1615611b0e5760405162461bcd60e51b815260206004820152601060248201526f14185d5cd8589b194e881c185d5cd95960821b6044820152606401610b50565b336000908152610207602052604090205460ff16611b945760405162461bcd60e51b815260206004820152602160248201527f46696174546f6b656e3a2063616c6c6572206973206e6f742061206d696e746560448201527f72000000000000000000000000000000000000000000000000000000000000006064820152608401610b50565b3360008181526099602052604090205460ff1615611c025760405162461bcd60e51b815260206004820152602560248201527f426c6f636b6c69737461626c653a206163636f756e7420697320626c6f636b6c6044820152641a5cdd195960da1b6064820152608401610b50565b6001600160a01b038416600090815260996020526040902054849060ff1615611c7b5760405162461bcd60e51b815260206004820152602560248201527f426c6f636b6c69737461626c653a206163636f756e7420697320626c6f636b6c6044820152641a5cdd195960da1b6064820152608401610b50565b6001600160a01b038516611cf75760405162461bcd60e51b815260206004820152602360248201527f46696174546f6b656e3a206d696e7420746f20746865207a65726f206164647260448201527f65737300000000000000000000000000000000000000000000000000000000006064820152608401610b50565b60008411611d6d5760405162461bcd60e51b815260206004820152602960248201527f46696174546f6b656e3a206d696e7420616d6f756e74206e6f7420677265617460448201527f6572207468616e203000000000000000000000000000000000000000000000006064820152608401610b50565b336000908152610208602052604090205480851115611df45760405162461bcd60e51b815260206004820152602e60248201527f46696174546f6b656e3a206d696e7420616d6f756e742065786365656473206d60448201527f696e746572416c6c6f77616e63650000000000000000000000000000000000006064820152608401610b50565b8461020654611e039190615013565b610206556001600160a01b03861660009081526102046020526040902054611e2c908690615013565b6001600160a01b03871660009081526102046020526040902055611e508582614ffc565b336000818152610208602090815260409182902093909355518781526001600160a01b038916927fab8530f87dc9b59234c4623bf917212bb2536d647574c8e7e5da92c2ede0c9f8910160405180910390a36040518581526001600160a01b038716906000907fddf252ad1be2c89b69c2b068fc378daa952ba7f163c4a11628f55a4df523b3ef9060200160405180910390a350600195945050505050565b606554600160a01b900460ff1615611f3c5760405162461bcd60e51b815260206004820152601060248201526f14185d5cd8589b194e881c185d5cd95960821b6044820152606401610b50565b336000908152610207602052604090205460ff16611fc25760405162461bcd60e51b815260206004820152602160248201527f46696174546f6b656e3a2063616c6c6572206973206e6f742061206d696e746560448201527f72000000000000000000000000000000000000000000000000000000000000006064820152608401610b50565b3360008181526099602052604090205460ff16156120305760405162461bcd60e51b815260206004820152602560248201527f426c6f636b6c69737461626c653a206163636f756e7420697320626c6f636b6c6044820152641a5cdd195960da1b6064820152608401610b50565b3360009081526102046020526040902054826120b45760405162461bcd60e51b815260206004820152602960248201527f46696174546f6b656e3a206275726e20616d6f756e74206e6f7420677265617460448201527f6572207468616e203000000000000000000000000000000000000000000000006064820152608401610b50565b8281101561212a5760405162461bcd60e51b815260206004820152602660248201527f46696174546f6b656e3a206275726e20616d6f756e742065786365656473206260448201527f616c616e636500000000000000000000000000000000000000000000000000006064820152608401610b50565b82610206546121399190614ffc565b610206556121478382614ffc565b3360008181526102046020526040908190209290925590517fcc16f5dbb4873280815c1ee09dbd06736cffcc184412cf7a71a0fdb75d397ca59061218e9086815260200190565b60405180910390a260405183815260009033907fddf252ad1be2c89b69c2b068fc378daa952ba7f163c4a11628f55a4df523b3ef906020015b60405180910390a3505050565b606554600090600160a01b900460ff16156122245760405162461bcd60e51b815260206004820152601060248201526f14185d5cd8589b194e881c185d5cd95960821b6044820152606401610b50565b610203546001600160a01b031633146122a55760405162461bcd60e51b815260206004820152602960248201527f46696174546f6b656e3a2063616c6c6572206973206e6f7420746865206d617360448201527f7465724d696e74657200000000000000000000000000000000000000000000006064820152608401610b50565b6001600160a01b038316600081815261020760209081526040808320805460ff1916600117905561020882529182902085905590518481527f46980fca912ef9bcdbd36877427b6b90e860769f604e89c0e67720cece530d20910160405180910390a250600192915050565b306001600160a01b037f00000000000000000000000000000000000000000000000000000000000000001614156123b05760405162461bcd60e51b815260206004820152602c60248201527f46756e6374696f6e206d7573742062652063616c6c6564207468726f7567682060448201527f64656c656761746563616c6c00000000000000000000000000000000000000006064820152608401610b50565b7f00000000000000000000000000000000000000000000000000000000000000006001600160a01b031661240b7f360894a13ba1a3210667c828492db98dca3e2076cc3735a920a3ca505d382bbc546001600160a01b031690565b6001600160a01b0316146124875760405162461bcd60e51b815260206004820152602c60248201527f46756e6374696f6e206d7573742062652063616c6c6564207468726f7567682060448201527f6163746976652070726f787900000000000000000000000000000000000000006064820152608401610b50565b61249082613898565b61249c828260016138f2565b5050565b6000306001600160a01b037f000000000000000000000000000000000000000000000000000000000000000016146125405760405162461bcd60e51b815260206004820152603860248201527f555550535570677261646561626c653a206d757374206e6f742062652063616c60448201527f6c6564207468726f7567682064656c656761746563616c6c00000000000000006064820152608401610b50565b507f360894a13ba1a3210667c828492db98dca3e2076cc3735a920a3ca505d382bbc90565b6032546001600160a01b031633146125bf5760405162461bcd60e51b815260206004820181905260248201527f4f776e61626c653a2063616c6c6572206973206e6f7420746865206f776e65726044820152606401610b50565b6001600160a01b03811661263b5760405162461bcd60e51b815260206004820152602860248201527f5061757361626c653a206e65772070617573657220697320746865207a65726f60448201527f20616464726573730000000000000000000000000000000000000000000000006064820152608401610b50565b6065805473ffffffffffffffffffffffffffffffffffffffff19166001600160a01b0383169081179091556040517fb80482a293ca2e013eda8683c9bd7fc8347cfdaeea5ede58cba46df502c2a60490600090a250565b606554600160a01b900460ff16156126df5760405162461bcd60e51b815260206004820152601060248201526f14185d5cd8589b194e881c185d5cd95960821b6044820152606401610b50565b6126ec8585858585613ad1565b5050505050565b600061010054461415612707575060ff5490565b612894610101805461271890614f79565b80601f016020809104026020016040519081016040528092919081815260200182805461274490614f79565b80156127915780601f1061276657610100808354040283529160200191612791565b820191906000526020600020905b81548152906001019060200180831161277457829003601f168201915b505050505061010280546127a490614f79565b80601f01602080910402602001604051908101604052809291908181526020018280546127d090614f79565b801561281d5780601f106127f25761010080835404028352916020019161281d565b820191906000526020600020905b81548152906001019060200180831161280057829003601f168201915b50505050508151602092830120815191830191909120604080517f8b73c3c69bb8fe3d512ecc4cf759cc79239f7b179b0ffacaa9a75d522b39400f818601528082019390935260608301919091524660808301523060a0808401919091528151808403909101815260c09092019052805191012090565b905090565b6065546001600160a01b031633146129195760405162461bcd60e51b815260206004820152602260248201527f5061757361626c653a2063616c6c6572206973206e6f7420746865207061757360448201527f65720000000000000000000000000000000000000000000000000000000000006064820152608401610b50565b606580547fffffffffffffffffffffff00ffffffffffffffffffffffffffffffffffffffff16600160a01b1790556040517f6985a02210a168e66602d3235cb6db0e70f92b3ba4d376a33c0f3d9434bff62590600090a1565b6102008054610a8390614f79565b606554600090600160a01b900460ff16156129d05760405162461bcd60e51b815260206004820152601060248201526f14185d5cd8589b194e881c185d5cd95960821b6044820152606401610b50565b3360008181526099602052604090205460ff1615612a3e5760405162461bcd60e51b815260206004820152602560248201527f426c6f636b6c69737461626c653a206163636f756e7420697320626c6f636b6c6044820152641a5cdd195960da1b6064820152608401610b50565b6001600160a01b038416600090815260996020526040902054849060ff1615612ab75760405162461bcd60e51b815260206004820152602560248201527f426c6f636b6c69737461626c653a206163636f756e7420697320626c6f636b6c6044820152641a5cdd195960da1b6064820152608401610b50565b610c4b338686613bf9565b606554600090600160a01b900460ff1615612b125760405162461bcd60e51b815260206004820152601060248201526f14185d5cd8589b194e881c185d5cd95960821b6044820152606401610b50565b3360008181526099602052604090205460ff1615612b805760405162461bcd60e51b815260206004820152602560248201527f426c6f636b6c69737461626c653a206163636f756e7420697320626c6f636b6c6044820152641a5cdd195960da1b6064820152608401610b50565b6001600160a01b038416600090815260996020526040902054849060ff1615612bf95760405162461bcd60e51b815260206004820152602560248201527f426c6f636b6c69737461626c653a206163636f756e7420697320626c6f636b6c6044820152641a5cdd195960da1b6064820152608401610b50565b610c4b338686613607565b6032546001600160a01b03163314612c5e5760405162461bcd60e51b815260206004820181905260248201527f4f776e61626c653a2063616c6c6572206973206e6f7420746865206f776e65726044820152606401610b50565b6001600160a01b038116612cda5760405162461bcd60e51b815260206004820152602f60248201527f46696174546f6b656e3a206e6577206d61737465724d696e746572206973207460448201527f6865207a65726f206164647265737300000000000000000000000000000000006064820152608401610b50565b610203805473ffffffffffffffffffffffffffffffffffffffff19166001600160a01b0383169081179091556040517fdb66dfa9c6b8f5226fe9aac7e51897ae8ee94ac31dc70bb6c9900b2574b707e690600090a250565b60cc546001600160a01b03163314612db15760405162461bcd60e51b8152602060048201526024808201527f526573637561626c653a2063616c6c6572206973206e6f74207468652072657360448201527f63756572000000000000000000000000000000000000000000000000000000006064820152608401610b50565b612dc56001600160a01b0384168383613ccf565b505050565b606554600160a01b900460ff1615612e175760405162461bcd60e51b815260206004820152601060248201526f14185d5cd8589b194e881c185d5cd95960821b6044820152606401610b50565b6001600160a01b038716600090815260996020526040902054879060ff1615612e905760405162461bcd60e51b815260206004820152602560248201527f426c6f636b6c69737461626c653a206163636f756e7420697320626c6f636b6c6044820152641a5cdd195960da1b6064820152608401610b50565b6001600160a01b038716600090815260996020526040902054879060ff1615612f095760405162461bcd60e51b815260206004820152602560248201527f426c6f636b6c69737461626c653a206163636f756e7420697320626c6f636b6c6044820152641a5cdd195960da1b6064820152608401610b50565b612f1889898989898989613d4f565b505050505050505050565b606554600160a01b900460ff1615612f705760405162461bcd60e51b815260206004820152601060248201526f14185d5cd8589b194e881c185d5cd95960821b6044820152606401610b50565b6001600160a01b038916600090815260996020526040902054899060ff1615612fe95760405162461bcd60e51b815260206004820152602560248201527f426c6f636b6c69737461626c653a206163636f756e7420697320626c6f636b6c6044820152641a5cdd195960da1b6064820152608401610b50565b6001600160a01b038916600090815260996020526040902054899060ff16156130625760405162461bcd60e51b815260206004820152602560248201527f426c6f636b6c69737461626c653a206163636f756e7420697320626c6f636b6c6044820152641a5cdd195960da1b6064820152608401610b50565b6130738b8b8b8b8b8b8b8b8b613eba565b5050505050505050505050565b6102028054610a8390614f79565b6098546001600160a01b0316331461310e5760405162461bcd60e51b815260206004820152602c60248201527f426c6f636b6c69737461626c653a2063616c6c6572206973206e6f742074686560448201527f20626c6f636b6c697374657200000000000000000000000000000000000000006064820152608401610b50565b6001600160a01b038116600081815260996020526040808220805460ff19166001179055517f917c251bb231c4b997a420bebe47edad5c20e70715da16c38e9b2e172e44ab929190a250565b606554600160a01b900460ff16156131a75760405162461bcd60e51b815260206004820152601060248201526f14185d5cd8589b194e881c185d5cd95960821b6044820152606401610b50565b6001600160a01b038916600090815260996020526040902054899060ff16156132205760405162461bcd60e51b815260206004820152602560248201527f426c6f636b6c69737461626c653a206163636f756e7420697320626c6f636b6c6044820152641a5cdd195960da1b6064820152608401610b50565b6001600160a01b038916600090815260996020526040902054899060ff16156132995760405162461bcd60e51b815260206004820152602560248201527f426c6f636b6c69737461626c653a206163636f756e7420697320626c6f636b6c6044820152641a5cdd195960da1b6064820152608401610b50565b6130738b8b8b8b8b8b8b8b8b613fcb565b6032546001600160a01b031633146133045760405162461bcd60e51b815260206004820181905260248201527f4f776e61626c653a2063616c6c6572206973206e6f7420746865206f776e65726044820152606401610b50565b6001600160a01b0381166133805760405162461bcd60e51b815260206004820152602660248201527f4f776e61626c653a206e6577206f776e657220697320746865207a65726f206160448201527f64647265737300000000000000000000000000000000000000000000000000006064820152608401610b50565b6118a681613839565b6032546001600160a01b031633146133e35760405162461bcd60e51b815260206004820181905260248201527f4f776e61626c653a2063616c6c6572206973206e6f7420746865206f776e65726044820152606401610b50565b6001600160a01b03811661345f5760405162461bcd60e51b815260206004820152603260248201527f426c6f636b6c69737461626c653a206e657720626c6f636b6c6973746572206960448201527f7320746865207a65726f206164647265737300000000000000000000000000006064820152608401610b50565b6098805473ffffffffffffffffffffffffffffffffffffffff19166001600160a01b0383169081179091556040517f68f10ceb42d30acc930aaaedf5b94559e14fc4f22496dc2c1b38b1b1b5231f9890600090a250565b6001600160a01b0383166135315760405162461bcd60e51b8152602060048201526024808201527f45524332303a20617070726f76652066726f6d20746865207a65726f2061646460448201527f72657373000000000000000000000000000000000000000000000000000000006064820152608401610b50565b6001600160a01b0382166135ad5760405162461bcd60e51b815260206004820152602260248201527f45524332303a20617070726f766520746f20746865207a65726f20616464726560448201527f73730000000000000000000000000000000000000000000000000000000000006064820152608401610b50565b6001600160a01b038381166000818152610205602090815260408083209487168084529482529182902085905590518481527f8c5be1e5ebec7d5bd14f71427d1e84f3dd0314c0f7b2291e5b200ac8c7c3b92591016121c7565b6001600160a01b0383166136835760405162461bcd60e51b815260206004820152602560248201527f45524332303a207472616e736665722066726f6d20746865207a65726f20616460448201527f64726573730000000000000000000000000000000000000000000000000000006064820152608401610b50565b6001600160a01b0382166136ff5760405162461bcd60e51b815260206004820152602360248201527f45524332303a207472616e7366657220746f20746865207a65726f206164647260448201527f65737300000000000000000000000000000000000000000000000000000000006064820152608401610b50565b6001600160a01b0383166000908152610204602052604090205481111561378e5760405162461bcd60e51b815260206004820152602660248201527f45524332303a207472616e7366657220616d6f756e742065786365656473206260448201527f616c616e636500000000000000000000000000000000000000000000000000006064820152608401610b50565b6001600160a01b038316600090815261020460205260409020546137b3908290614ffc565b6001600160a01b038085166000908152610204602052604080822093909355908416815220546137e4908290615013565b6001600160a01b038084166000818152610204602052604090819020939093559151908516907fddf252ad1be2c89b69c2b068fc378daa952ba7f163c4a11628f55a4df523b3ef906121c79085815260200190565b603280546001600160a01b0383811673ffffffffffffffffffffffffffffffffffffffff19831681179093556040519116919082907f8be0079c531659141344cd1fd0a4f28419497f9722a3daafe3b4186f6b6457e090600090a35050565b6032546001600160a01b031633146118a65760405162461bcd60e51b815260206004820181905260248201527f4f776e61626c653a2063616c6c6572206973206e6f7420746865206f776e65726044820152606401610b50565b7f4910fdfa16fed3260ed0e7147f7cc6da11a60208b5b9406d12a635614ffd91435460ff161561392557612dc5836140c1565b826001600160a01b03166352d1902d6040518163ffffffff1660e01b8152600401602060405180830381865afa92505050801561397f575060408051601f3d908101601f1916820190925261397c9181019061502b565b60015b6139f15760405162461bcd60e51b815260206004820152602e60248201527f45524331393637557067726164653a206e657720696d706c656d656e7461746960448201527f6f6e206973206e6f7420555550530000000000000000000000000000000000006064820152608401610b50565b7f360894a13ba1a3210667c828492db98dca3e2076cc3735a920a3ca505d382bbc8114613a865760405162461bcd60e51b815260206004820152602960248201527f45524331393637557067726164653a20756e737570706f727465642070726f7860448201527f6961626c655555494400000000000000000000000000000000000000000000006064820152608401610b50565b50612dc5838383614183565b6001600160a01b0380841660009081526102056020908152604080832093861683529290522054612dc59084908490613acc908590615013565b6134b6565b613adb85856141ae565b604080517f158b0a9edf7a828aad02f63cd515c68ef2f50ba807396f6d12842833a159742960208201526001600160a01b038716818301819052606080830188905283518084039091018152608090920190925290613b44613b3b6126f3565b86868686614249565b6001600160a01b031614613b9a5760405162461bcd60e51b815260206004820152601a60248201527f454950333030393a20696e76616c6964207369676e61747572650000000000006044820152606401610b50565b6001600160a01b038616600081815261013560209081526040808320898452909152808220805460ff19166001179055518792917f1cdd46ff242716cdaa72d159d339a485b3438398348d68f09d7c8c0a59353d8191a3505050505050565b6001600160a01b0380841660009081526102056020908152604080832093861683529290522054811115613c955760405162461bcd60e51b815260206004820152602560248201527f45524332303a2064656372656173656420616c6c6f77616e63652062656c6f7760448201527f207a65726f0000000000000000000000000000000000000000000000000000006064820152608401610b50565b6001600160a01b0380841660009081526102056020908152604080832093861683529290522054612dc59084908490613acc908590614ffc565b604080516001600160a01b038416602482015260448082018490528251808303909101815260649091019091526020810180517bffffffffffffffffffffffffffffffffffffffffffffffffffffffff167fa9059cbb00000000000000000000000000000000000000000000000000000000179052612dc59084906142c6565b42841015613d9f5760405162461bcd60e51b815260206004820152601a60248201527f454950323631323a207065726d697420697320657870697265640000000000006044820152606401610b50565b6001600160a01b03871660009081526101686020526040812080547f6e71edae12b1b97f4d1f60370fef10105fa2faae0126114a169c64845d6126c9918a918a918a919086613ded83615044565b909155506040805160208101969096526001600160a01b0394851690860152929091166060840152608083015260a082015260c0810186905260e0016040516020818303038152906040529050876001600160a01b0316613e4f613b3b6126f3565b6001600160a01b031614613ea55760405162461bcd60e51b815260206004820152601a60248201527f454950323631323a20696e76616c6964207369676e61747572650000000000006044820152606401610b50565b613eb08888886134b6565b5050505050505050565b613ec6898588886143ab565b604080517f7c7c6cdb67a18743f49ec6fa9b35f50d52ed05cbed4cc592e13b44501c1a226760208201526001600160a01b03808c169282019290925290891660608201526080810188905260a0810187905260c0810186905260e08101859052600090610100015b6040516020818303038152906040529050896001600160a01b0316613f54613b3b6126f3565b6001600160a01b031614613faa5760405162461bcd60e51b815260206004820152601a60248201527f454950333030393a20696e76616c6964207369676e61747572650000000000006044820152606401610b50565b613fb48a8661449f565b613fbf8a8a8a613607565b50505050505050505050565b6001600160a01b03881633146140495760405162461bcd60e51b815260206004820152602160248201527f454950333030393a2063616c6c6572206d75737420626520746865207061796560448201527f65000000000000000000000000000000000000000000000000000000000000006064820152608401610b50565b614055898588886143ab565b604080517fd099cc98ef71107a616c4f0f941f04c322d8e254fe26b3c6668db87aae413de860208201526001600160a01b03808c169282019290925290891660608201526080810188905260a0810187905260c0810186905260e0810185905260009061010001613f2e565b803b6141355760405162461bcd60e51b815260206004820152602d60248201527f455243313936373a206e657720696d706c656d656e746174696f6e206973206e60448201527f6f74206120636f6e7472616374000000000000000000000000000000000000006064820152608401610b50565b7f360894a13ba1a3210667c828492db98dca3e2076cc3735a920a3ca505d382bbc805473ffffffffffffffffffffffffffffffffffffffff19166001600160a01b0392909216919091179055565b61418c836144fa565b6000825111806141995750805b15612dc5576141a8838361453a565b50505050565b6001600160a01b03821660009081526101356020908152604080832084845290915290205460ff161561249c5760405162461bcd60e51b815260206004820152602a60248201527f454950333030393a20617574686f72697a6174696f6e2069732075736564206f60448201527f722063616e63656c6564000000000000000000000000000000000000000000006064820152608401610b50565b6000808683805190602001206040516020016142979291907f190100000000000000000000000000000000000000000000000000000000000081526002810192909252602282015260420190565b6040516020818303038152906040528051906020012090506142bb81878787614566565b979650505050505050565b600061431b826040518060400160405280602081526020017f5361666545524332303a206c6f772d6c6576656c2063616c6c206661696c6564815250856001600160a01b03166147499092919063ffffffff16565b805190915015612dc55780806020019051810190614339919061507d565b612dc55760405162461bcd60e51b815260206004820152602a60248201527f5361666545524332303a204552433230206f7065726174696f6e20646964206e60448201527f6f742073756363656564000000000000000000000000000000000000000000006064820152608401610b50565b8142116144205760405162461bcd60e51b815260206004820152602860248201527f46454950333030393a20617574686f72697a6174696f6e206973206e6f74207960448201527f65742076616c69640000000000000000000000000000000000000000000000006064820152608401610b50565b8042106144955760405162461bcd60e51b815260206004820152602160248201527f454950333030393a20617574686f72697a6174696f6e2069732065787069726560448201527f64000000000000000000000000000000000000000000000000000000000000006064820152608401610b50565b6141a884846141ae565b6001600160a01b038216600081815261013560209081526040808320858452909152808220805460ff19166001179055518392917f98de503528ee59b575ef0c0a2576a82497bfc029a5685b209e9ec333479b10a591a35050565b614503816140c1565b6040516001600160a01b038216907fbc7cd75a20ee27fd9adebab32041f755214dbc6bffa90cc0225b39da2e5c2d3b90600090a250565b606061455f83836040518060600160405280602781526020016150bc60279139614760565b9392505050565b60007f7fffffffffffffffffffffffffffffff5d576e7357a4501ddfe92f46681b20a08211156145fe5760405162461bcd60e51b815260206004820152602660248201527f45435265636f7665723a20696e76616c6964207369676e61747572652027732760448201527f2076616c756500000000000000000000000000000000000000000000000000006064820152608401610b50565b8360ff16601b1415801561461657508360ff16601c14155b156146895760405162461bcd60e51b815260206004820152602660248201527f45435265636f7665723a20696e76616c6964207369676e61747572652027762760448201527f2076616c756500000000000000000000000000000000000000000000000000006064820152608401610b50565b6040805160008082526020820180845288905260ff871692820192909252606081018590526080810184905260019060a0016020604051602081039080840390855afa1580156146dd573d6000803e3d6000fd5b5050604051601f1901519150506001600160a01b0381166147405760405162461bcd60e51b815260206004820152601c60248201527f45435265636f7665723a20696e76616c6964207369676e6174757265000000006044820152606401610b50565b95945050505050565b6060614758848460008561484b565b949350505050565b6060833b6147d65760405162461bcd60e51b815260206004820152602660248201527f416464726573733a2064656c65676174652063616c6c20746f206e6f6e2d636f60448201527f6e747261637400000000000000000000000000000000000000000000000000006064820152608401610b50565b600080856001600160a01b0316856040516147f1919061509f565b600060405180830381855af49150503d806000811461482c576040519150601f19603f3d011682016040523d82523d6000602084013e614831565b606091505b509150915061484182828661497b565b9695505050505050565b6060824710156148c35760405162461bcd60e51b815260206004820152602660248201527f416464726573733a20696e73756666696369656e742062616c616e636520666f60448201527f722063616c6c00000000000000000000000000000000000000000000000000006064820152608401610b50565b843b6149115760405162461bcd60e51b815260206004820152601d60248201527f416464726573733a2063616c6c20746f206e6f6e2d636f6e74726163740000006044820152606401610b50565b600080866001600160a01b0316858760405161492d919061509f565b60006040518083038185875af1925050503d806000811461496a576040519150601f19603f3d011682016040523d82523d6000602084013e61496f565b606091505b50915091506142bb8282865b6060831561498a57508161455f565b82511561499a5782518084602001fd5b8160405162461bcd60e51b8152600401610b509190614af4565b8280546149c090614f79565b90600052602060002090601f0160209004810192826149e25760008555614a28565b82601f106149fb57805160ff1916838001178555614a28565b82800160010185558215614a28579182015b82811115614a28578251825591602001919060010190614a0d565b50614a34929150614ab3565b5090565b828054614a4490614f79565b90600052602060002090601f016020900481019282614a665760008555614a28565b82601f10614a775780548555614a28565b82800160010185558215614a2857600052602060002091601f016020900482015b82811115614a28578254825591600101919060010190614a98565b5b80821115614a345760008155600101614ab4565b60005b83811015614ae3578181015183820152602001614acb565b838111156141a85750506000910152565b6020815260008251806020840152614b13816040850160208701614ac8565b601f01601f19169190910160400192915050565b6001600160a01b03811681146118a657600080fd5b803561111881614b27565b60008060408385031215614b5a57600080fd5b8235614b6581614b27565b946020939093013593505050565b600080600060608486031215614b8857600080fd5b8335614b9381614b27565b92506020840135614ba381614b27565b929592945050506040919091013590565b600060208284031215614bc657600080fd5b813561455f81614b27565b7f4e487b7100000000000000000000000000000000000000000000000000000000600052604160045260246000fd5b600067ffffffffffffffff80841115614c1b57614c1b614bd1565b604051601f8501601f19908116603f01168101908282118183101715614c4357614c43614bd1565b81604052809350858152868686011115614c5c57600080fd5b858560208301376000602087830101525050509392505050565b600082601f830112614c8757600080fd5b61455f83833560208501614c00565b803560ff8116811461111857600080fd5b600080600080600080600080610100898b031215614cc457600080fd5b883567ffffffffffffffff80821115614cdc57600080fd5b614ce88c838d01614c76565b995060208b0135915080821115614cfe57600080fd5b614d0a8c838d01614c76565b985060408b0135915080821115614d2057600080fd5b50614d2d8b828c01614c76565b965050614d3c60608a01614c96565b9450614d4a60808a01614b3c565b9350614d5860a08a01614b3c565b9250614d6660c08a01614b3c565b9150614d7460e08a01614b3c565b90509295985092959890939650565b600060208284031215614d9557600080fd5b5035919050565b60008060408385031215614daf57600080fd5b8235614dba81614b27565b9150602083013567ffffffffffffffff811115614dd657600080fd5b8301601f81018513614de757600080fd5b614df685823560208401614c00565b9150509250929050565b600080600080600060a08688031215614e1857600080fd5b8535614e2381614b27565b945060208601359350614e3860408701614c96565b94979396509394606081013594506080013592915050565b600080600080600080600060e0888a031215614e6b57600080fd5b8735614e7681614b27565b96506020880135614e8681614b27565b95506040880135945060608801359350614ea260808901614c96565b925060a0880135915060c0880135905092959891949750929550565b60008060408385031215614ed157600080fd5b8235614edc81614b27565b91506020830135614eec81614b27565b809150509250929050565b60008060008060008060008060006101208a8c031215614f1657600080fd5b8935614f2181614b27565b985060208a0135614f3181614b27565b975060408a0135965060608a0135955060808a0135945060a08a01359350614f5b60c08b01614c96565b925060e08a013591506101008a013590509295985092959850929598565b600181811c90821680614f8d57607f821691505b60208210811415614fc7577f4e487b7100000000000000000000000000000000000000000000000000000000600052602260045260246000fd5b50919050565b7f4e487b7100000000000000000000000000000000000000000000000000000000600052601160045260246000fd5b60008282101561500e5761500e614fcd565b500390565b6000821982111561502657615026614fcd565b500190565b60006020828403121561503d57600080fd5b5051919050565b60007fffffffffffffffffffffffffffffffffffffffffffffffffffffffffffffffff82141561507657615076614fcd565b5060010190565b60006020828403121561508f57600080fd5b8151801515811461455f57600080fd5b600082516150b1818460208701614ac8565b919091019291505056fe416464726573733a206c6f772d6c6576656c2064656c65676174652063616c6c206661696c6564a2646970667358221220c6d7c6293ea66ccaab8627044848aea05ee0a9427bc65224e19ce8b69c7f24ee64736f6c634300080b0033",
  "linkReferences": {},
  "deployedLinkReferences": {}
}