{
  "_format": "hh-sol-artifact-1",
  "contractName": "FiatTokenV2",
  "sourceName": "contracts/v2/FiatTokenV2.sol",
  "abi": [
    {
      "anonymous": false,
      "inputs": [
        {
          "indexed": true,
          "internalType": "address",
          "name": "owner",
          "type": "address"
        },
        {
          "indexed": true,
          "internalType": "address",
          "name": "spender",
          "type": "address"
        },
        {
          "indexed": false,
          "internalType": "uint256",
          "name": "value",
          "type": "uint256"
        }
      ],
      "name": "Approval",
      "type": "event"
    },
    {
      "anonymous": false,
      "inputs": [
        {
          "indexed": true,
          "internalType": "address",
          "name": "authorizer",
          "type": "address"
        },
        {
          "indexed": true,
          "internalType": "bytes32",
          "name": "nonce",
          "type": "bytes32"
        }
      ],
      "name": "AuthorizationCanceled",
      "type": "event"
    },
    {
      "anonymous": false,
      "inputs": [
        {
          "indexed": true,
          "internalType": "address",
          "name": "authorizer",
          "type": "address"
        },
        {
          "indexed": true,
          "internalType": "bytes32",
          "name": "nonce",
          "type": "bytes32"
        }
      ],
      "name": "AuthorizationUsed",
      "type": "event"
    },
    {
      "anonymous": false,
      "inputs": [
        {
          "indexed": true,
          "internalType": "address",
          "name": "_account",
          "type": "address"
        }
      ],
      "name": "Blocklisted",
      "type": "event"
    },
    {
      "anonymous": false,
      "inputs": [
        {
          "indexed": true,
          "internalType": "address",
          "name": "newBlocklister",
          "type": "address"
        }
      ],
      "name": "BlocklisterChanged",
      "type": "event"
    },
    {
      "anonymous": false,
      "inputs": [
        {
          "indexed": true,
          "internalType": "address",
          "name": "burner",
          "type": "address"
        },
        {
          "indexed": false,
          "internalType": "uint256",
          "name": "amount",
          "type": "uint256"
        }
      ],
      "name": "Burn",
      "type": "event"
    },
    {
      "anonymous": false,
      "inputs": [
        {
          "indexed": true,
          "internalType": "address",
          "name": "newMasterMinter",
          "type": "address"
        }
      ],
      "name": "MasterMinterChanged",
      "type": "event"
    },
    {
      "anonymous": false,
      "inputs": [
        {
          "indexed": true,
          "internalType": "address",
          "name": "minter",
          "type": "address"
        },
        {
          "indexed": true,
          "internalType": "address",
          "name": "to",
          "type": "address"
        },
        {
          "indexed": false,
          "internalType": "uint256",
          "name": "amount",
          "type": "uint256"
        }
      ],
      "name": "Mint",
      "type": "event"
    },
    {
      "anonymous": false,
      "inputs": [
        {
          "indexed": true,
          "internalType": "address",
          "name": "minter",
          "type": "address"
        },
        {
          "indexed": false,
          "internalType": "uint256",
          "name": "minterAllowedAmount",
          "type": "uint256"
        }
      ],
      "name": "MinterConfigured",
      "type": "event"
    },
    {
      "anonymous": false,
      "inputs": [
        {
          "indexed": true,
          "internalType": "address",
          "name": "oldMinter",
          "type": "address"
        }
      ],
      "name": "MinterRemoved",
      "type": "event"
    },
    {
      "anonymous": false,
      "inputs": [
        {
          "indexed": true,
          "internalType": "address",
          "name": "previousOwner",
          "type": "address"
        },
        {
          "indexed": true,
          "internalType": "address",
          "name": "newOwner",
          "type": "address"
        }
      ],
      "name": "OwnershipTransferred",
      "type": "event"
    },
    {
      "anonymous": false,
      "inputs": [],
      "name": "Pause",
      "type": "event"
    },
    {
      "anonymous": false,
      "inputs": [
        {
          "indexed": true,
          "internalType": "address",
          "name": "newAddress",
          "type": "address"
        }
      ],
      "name": "PauserChanged",
      "type": "event"
    },
    {
      "anonymous": false,
      "inputs": [
        {
          "indexed": true,
          "internalType": "address",
          "name": "newRescuer",
          "type": "address"
        }
      ],
      "name": "RescuerChanged",
      "type": "event"
    },
    {
      "anonymous": false,
      "inputs": [
        {
          "indexed": true,
          "internalType": "address",
          "name": "from",
          "type": "address"
        },
        {
          "indexed": true,
          "internalType": "address",
          "name": "to",
          "type": "address"
        },
        {
          "indexed": false,
          "internalType": "uint256",
          "name": "value",
          "type": "uint256"
        }
      ],
      "name": "Transfer",
      "type": "event"
    },
    {
      "anonymous": false,
      "inputs": [
        {
          "indexed": true,
          "internalType": "address",
          "name": "_account",
          "type": "address"
        }
      ],
      "name": "UnBlocklisted",
      "type": "event"
    },
    {
      "anonymous": false,
      "inputs": [
        {
          "indexed": true,
          "internalType": "address",
          "name": "_account",
          "type": "address"
        }
      ],
      "name": "UnWhitelisted",
      "type": "event"
    },
    {
      "anonymous": false,
      "inputs": [],
      "name": "Unpause",
      "type": "event"
    },
    {
      "anonymous": false,
      "inputs": [
        {
          "indexed": true,
          "internalType": "address",
          "name": "implementation",
          "type": "address"
        }
      ],
      "name": "Upgraded",
      "type": "event"
    },
    {
      "anonymous": false,
      "inputs": [
        {
          "indexed": true,
          "internalType": "address",
          "name": "_account",
          "type": "address"
        }
      ],
      "name": "Whitelisted",
      "type": "event"
    },
    {
      "anonymous": false,
      "inputs": [
        {
          "indexed": true,
          "internalType": "address",
          "name": "newWhitelister",
          "type": "address"
        }
      ],
      "name": "WhitelisterChanged",
      "type": "event"
    },
    {
      "inputs": [],
      "name": "CANCEL_AUTHORIZATION_TYPEHASH",
      "outputs": [
        {
          "internalType": "bytes32",
          "name": "",
          "type": "bytes32"
        }
      ],
      "stateMutability": "view",
      "type": "function"
    },
    {
      "inputs": [],
      "name": "PERMIT_TYPEHASH",
      "outputs": [
        {
          "internalType": "bytes32",
          "name": "",
          "type": "bytes32"
        }
      ],
      "stateMutability": "view",
      "type": "function"
    },
    {
      "inputs": [],
      "name": "RECEIVE_WITH_AUTHORIZATION_TYPEHASH",
      "outputs": [
        {
          "internalType": "bytes32",
          "name": "",
          "type": "bytes32"
        }
      ],
      "stateMutability": "view",
      "type": "function"
    },
    {
      "inputs": [],
      "name": "TRANSFER_WITH_AUTHORIZATION_TYPEHASH",
      "outputs": [
        {
          "internalType": "bytes32",
          "name": "",
          "type": "bytes32"
        }
      ],
      "stateMutability": "view",
      "type": "function"
    },
    {
      "inputs": [],
      "name": "_domainSeparatorV4",
      "outputs": [
        {
          "internalType": "bytes32",
          "name": "",
          "type": "bytes32"
        }
      ],
      "stateMutability": "view",
      "type": "function"
    },
    {
      "inputs": [
        {
          "internalType": "address",
          "name": "owner",
          "type": "address"
        },
        {
          "internalType": "address",
          "name": "spender",
          "type": "address"
        }
      ],
      "name": "allowance",
      "outputs": [
        {
          "internalType": "uint256",
          "name": "",
          "type": "uint256"
        }
      ],
      "stateMutability": "view",
      "type": "function"
    },
    {
      "inputs": [
        {
          "internalType": "address",
          "name": "spender",
          "type": "address"
        },
        {
          "internalType": "uint256",
          "name": "value",
          "type": "uint256"
        }
      ],
      "name": "approve",
      "outputs": [
        {
          "internalType": "bool",
          "name": "",
          "type": "bool"
        }
      ],
      "stateMutability": "nonpayable",
      "type": "function"
    },
    {
      "inputs": [
        {
          "internalType": "address",
          "name": "authorizer",
          "type": "address"
        },
        {
          "internalType": "bytes32",
          "name": "nonce",
          "type": "bytes32"
        }
      ],
      "name": "authorizationState",
      "outputs": [
        {
          "internalType": "bool",
          "name": "",
          "type": "bool"
        }
      ],
      "stateMutability": "view",
      "type": "function"
    },
    {
      "inputs": [
        {
          "internalType": "address",
          "name": "account",
          "type": "address"
        }
      ],
      "name": "balanceOf",
      "outputs": [
        {
          "internalType": "uint256",
          "name": "",
          "type": "uint256"
        }
      ],
      "stateMutability": "view",
      "type": "function"
    },
    {
      "inputs": [
        {
          "internalType": "address",
          "name": "_account",
          "type": "address"
        }
      ],
      "name": "blocklist",
      "outputs": [],
      "stateMutability": "nonpayable",
      "type": "function"
    },
    {
      "inputs": [],
      "name": "blocklister",
      "outputs": [
        {
          "internalType": "address",
          "name": "",
          "type": "address"
        }
      ],
      "stateMutability": "view",
      "type": "function"
    },
    {
      "inputs": [
        {
          "internalType": "uint256",
          "name": "_amount",
          "type": "uint256"
        }
      ],
      "name": "burn",
      "outputs": [],
      "stateMutability": "nonpayable",
      "type": "function"
    },
    {
      "inputs": [
        {
          "internalType": "address",
          "name": "authorizer",
          "type": "address"
        },
        {
          "internalType": "bytes32",
          "name": "nonce",
          "type": "bytes32"
        },
        {
          "internalType": "uint8",
          "name": "v",
          "type": "uint8"
        },
        {
          "internalType": "bytes32",
          "name": "r",
          "type": "bytes32"
        },
        {
          "internalType": "bytes32",
          "name": "s",
          "type": "bytes32"
        }
      ],
      "name": "cancelAuthorization",
      "outputs": [],
      "stateMutability": "nonpayable",
      "type": "function"
    },
    {
      "inputs": [
        {
          "internalType": "address",
          "name": "minter",
          "type": "address"
        },
        {
          "internalType": "uint256",
          "name": "minterAllowedAmount",
          "type": "uint256"
        }
      ],
      "name": "configureMinter",
      "outputs": [
        {
          "internalType": "bool",
          "name": "",
          "type": "bool"
        }
      ],
      "stateMutability": "nonpayable",
      "type": "function"
    },
    {
      "inputs": [],
      "name": "currency",
      "outputs": [
        {
          "internalType": "string",
          "name": "",
          "type": "string"
        }
      ],
      "stateMutability": "view",
      "type": "function"
    },
    {
      "inputs": [],
      "name": "decimals",
      "outputs": [
        {
          "internalType": "uint8",
          "name": "",
          "type": "uint8"
        }
      ],
      "stateMutability": "view",
      "type": "function"
    },
    {
      "inputs": [
        {
          "internalType": "address",
          "name": "spender",
          "type": "address"
        },
        {
          "internalType": "uint256",
          "name": "decrement",
          "type": "uint256"
        }
      ],
      "name": "decreaseAllowance",
      "outputs": [
        {
          "internalType": "bool",
          "name": "",
          "type": "bool"
        }
      ],
      "stateMutability": "nonpayable",
      "type": "function"
    },
    {
      "inputs": [
        {
          "internalType": "address",
          "name": "spender",
          "type": "address"
        },
        {
          "internalType": "uint256",
          "name": "increment",
          "type": "uint256"
        }
      ],
      "name": "increaseAllowance",
      "outputs": [
        {
          "internalType": "bool",
          "name": "",
          "type": "bool"
        }
      ],
      "stateMutability": "nonpayable",
      "type": "function"
    },
    {
      "inputs": [
        {
          "internalType": "string",
          "name": "tokenName",
          "type": "string"
        },
        {
          "internalType": "string",
          "name": "tokenSymbol",
          "type": "string"
        },
        {
          "internalType": "string",
          "name": "tokenCurrency",
          "type": "string"
        },
        {
          "internalType": "uint8",
          "name": "tokenDecimals",
          "type": "uint8"
        },
        {
          "internalType": "address",
          "name": "newMasterMinter",
          "type": "address"
        },
        {
          "internalType": "address",
          "name": "newPauser",
          "type": "address"
        },
        {
          "internalType": "address",
          "name": "newBlocklister",
          "type": "address"
        },
        {
          "internalType": "address",
          "name": "newOwner",
          "type": "address"
        }
      ],
      "name": "initialize",
      "outputs": [],
      "stateMutability": "nonpayable",
      "type": "function"
    },
    {
      "inputs": [
        {
          "internalType": "address",
          "name": "_account",
          "type": "address"
        }
      ],
      "name": "isBlocklisted",
      "outputs": [
        {
          "internalType": "bool",
          "name": "",
          "type": "bool"
        }
      ],
      "stateMutability": "view",
      "type": "function"
    },
    {
      "inputs": [
        {
          "internalType": "address",
          "name": "account",
          "type": "address"
        }
      ],
      "name": "isMinter",
      "outputs": [
        {
          "internalType": "bool",
          "name": "",
          "type": "bool"
        }
      ],
      "stateMutability": "view",
      "type": "function"
    },
    {
      "inputs": [
        {
          "internalType": "address",
          "name": "_account",
          "type": "address"
        }
      ],
      "name": "isWhitelisted",
      "outputs": [
        {
          "internalType": "bool",
          "name": "",
          "type": "bool"
        }
      ],
      "stateMutability": "view",
      "type": "function"
    },
    {
      "inputs": [],
      "name": "masterMinter",
      "outputs": [
        {
          "internalType": "address",
          "name": "",
          "type": "address"
        }
      ],
      "stateMutability": "view",
      "type": "function"
    },
    {
      "inputs": [
        {
          "internalType": "address",
          "name": "_to",
          "type": "address"
        },
        {
          "internalType": "uint256",
          "name": "_amount",
          "type": "uint256"
        }
      ],
      "name": "mint",
      "outputs": [
        {
          "internalType": "bool",
          "name": "",
          "type": "bool"
        }
      ],
      "stateMutability": "nonpayable",
      "type": "function"
    },
    {
      "inputs": [
        {
          "internalType": "address",
          "name": "minter",
          "type": "address"
        }
      ],
      "name": "minterAllowance",
      "outputs": [
        {
          "internalType": "uint256",
          "name": "",
          "type": "uint256"
        }
      ],
      "stateMutability": "view",
      "type": "function"
    },
    {
      "inputs": [],
      "name": "name",
      "outputs": [
        {
          "internalType": "string",
          "name": "",
          "type": "string"
        }
      ],
      "stateMutability": "view",
      "type": "function"
    },
    {
      "inputs": [
        {
          "internalType": "address",
          "name": "owner",
          "type": "address"
        }
      ],
      "name": "nonces",
      "outputs": [
        {
          "internalType": "uint256",
          "name": "",
          "type": "uint256"
        }
      ],
      "stateMutability": "view",
      "type": "function"
    },
    {
      "inputs": [],
      "name": "owner",
      "outputs": [
        {
          "internalType": "address",
          "name": "",
          "type": "address"
        }
      ],
      "stateMutability": "view",
      "type": "function"
    },
    {
      "inputs": [],
      "name": "pause",
      "outputs": [],
      "stateMutability": "nonpayable",
      "type": "function"
    },
    {
      "inputs": [],
      "name": "paused",
      "outputs": [
        {
          "internalType": "bool",
          "name": "",
          "type": "bool"
        }
      ],
      "stateMutability": "view",
      "type": "function"
    },
    {
      "inputs": [],
      "name": "pauser",
      "outputs": [
        {
          "internalType": "address",
          "name": "",
          "type": "address"
        }
      ],
      "stateMutability": "view",
      "type": "function"
    },
    {
      "inputs": [
        {
          "internalType": "address",
          "name": "owner",
          "type": "address"
        },
        {
          "internalType": "address",
          "name": "spender",
          "type": "address"
        },
        {
          "internalType": "uint256",
          "name": "value",
          "type": "uint256"
        },
        {
          "internalType": "uint256",
          "name": "deadline",
          "type": "uint256"
        },
        {
          "internalType": "uint8",
          "name": "v",
          "type": "uint8"
        },
        {
          "internalType": "bytes32",
          "name": "r",
          "type": "bytes32"
        },
        {
          "internalType": "bytes32",
          "name": "s",
          "type": "bytes32"
        }
      ],
      "name": "permit",
      "outputs": [],
      "stateMutability": "nonpayable",
      "type": "function"
    },
    {
      "inputs": [],
      "name": "proxiableUUID",
      "outputs": [
        {
          "internalType": "bytes32",
          "name": "",
          "type": "bytes32"
        }
      ],
      "stateMutability": "view",
      "type": "function"
    },
    {
      "inputs": [
        {
          "internalType": "address",
          "name": "from",
          "type": "address"
        },
        {
          "internalType": "address",
          "name": "to",
          "type": "address"
        },
        {
          "internalType": "uint256",
          "name": "value",
          "type": "uint256"
        },
        {
          "internalType": "uint256",
          "name": "validAfter",
          "type": "uint256"
        },
        {
          "internalType": "uint256",
          "name": "validBefore",
          "type": "uint256"
        },
        {
          "internalType": "bytes32",
          "name": "nonce",
          "type": "bytes32"
        },
        {
          "internalType": "uint8",
          "name": "v",
          "type": "uint8"
        },
        {
          "internalType": "bytes32",
          "name": "r",
          "type": "bytes32"
        },
        {
          "internalType": "bytes32",
          "name": "s",
          "type": "bytes32"
        }
      ],
      "name": "receiveWithAuthorization",
      "outputs": [],
      "stateMutability": "nonpayable",
      "type": "function"
    },
    {
      "inputs": [
        {
          "internalType": "address",
          "name": "minter",
          "type": "address"
        }
      ],
      "name": "removeMinter",
      "outputs": [
        {
          "internalType": "bool",
          "name": "",
          "type": "bool"
        }
      ],
      "stateMutability": "nonpayable",
      "type": "function"
    },
    {
      "inputs": [
        {
          "internalType": "contract IERC20",
          "name": "tokenContract",
          "type": "address"
        },
        {
          "internalType": "address",
          "name": "to",
          "type": "address"
        },
        {
          "internalType": "uint256",
          "name": "amount",
          "type": "uint256"
        }
      ],
      "name": "rescueERC20",
      "outputs": [],
      "stateMutability": "nonpayable",
      "type": "function"
    },
    {
      "inputs": [],
      "name": "rescuer",
      "outputs": [
        {
          "internalType": "address",
          "name": "",
          "type": "address"
        }
      ],
      "stateMutability": "view",
      "type": "function"
    },
    {
      "inputs": [],
      "name": "symbol",
      "outputs": [
        {
          "internalType": "string",
          "name": "",
          "type": "string"
        }
      ],
      "stateMutability": "view",
      "type": "function"
    },
    {
      "inputs": [],
      "name": "totalSupply",
      "outputs": [
        {
          "internalType": "uint256",
          "name": "",
          "type": "uint256"
        }
      ],
      "stateMutability": "view",
      "type": "function"
    },
    {
      "inputs": [
        {
          "internalType": "address",
          "name": "to",
          "type": "address"
        },
        {
          "internalType": "uint256",
          "name": "value",
          "type": "uint256"
        }
      ],
      "name": "transfer",
      "outputs": [
        {
          "internalType": "bool",
          "name": "",
          "type": "bool"
        }
      ],
      "stateMutability": "nonpayable",
      "type": "function"
    },
    {
      "inputs": [
        {
          "internalType": "address",
          "name": "from",
          "type": "address"
        },
        {
          "internalType": "address",
          "name": "to",
          "type": "address"
        },
        {
          "internalType": "uint256",
          "name": "value",
          "type": "uint256"
        }
      ],
      "name": "transferFrom",
      "outputs": [
        {
          "internalType": "bool",
          "name": "",
          "type": "bool"
        }
      ],
      "stateMutability": "nonpayable",
      "type": "function"
    },
    {
      "inputs": [
        {
          "internalType": "address",
          "name": "newOwner",
          "type": "address"
        }
      ],
      "name": "transferOwnership",
      "outputs": [],
      "stateMutability": "nonpayable",
      "type": "function"
    },
    {
      "inputs": [
        {
          "internalType": "address",
          "name": "from",
          "type": "address"
        },
        {
          "internalType": "address",
          "name": "to",
          "type": "address"
        },
        {
          "internalType": "uint256",
          "name": "value",
          "type": "uint256"
        },
        {
          "internalType": "uint256",
          "name": "validAfter",
          "type": "uint256"
        },
        {
          "internalType": "uint256",
          "name": "validBefore",
          "type": "uint256"
        },
        {
          "internalType": "bytes32",
          "name": "nonce",
          "type": "bytes32"
        },
        {
          "internalType": "uint8",
          "name": "v",
          "type": "uint8"
        },
        {
          "internalType": "bytes32",
          "name": "r",
          "type": "bytes32"
        },
        {
          "internalType": "bytes32",
          "name": "s",
          "type": "bytes32"
        }
      ],
      "name": "transferWithAuthorization",
      "outputs": [],
      "stateMutability": "nonpayable",
      "type": "function"
    },
    {
      "inputs": [
        {
          "internalType": "address",
          "name": "_account",
          "type": "address"
        }
      ],
      "name": "unBlocklist",
      "outputs": [],
      "stateMutability": "nonpayable",
      "type": "function"
    },
    {
      "inputs": [
        {
          "internalType": "address",
          "name": "_account",
          "type": "address"
        }
      ],
      "name": "unWhitelist",
      "outputs": [],
      "stateMutability": "nonpayable",
      "type": "function"
    },
    {
      "inputs": [],
      "name": "unpause",
      "outputs": [],
      "stateMutability": "nonpayable",
      "type": "function"
    },
    {
      "inputs": [
        {
          "internalType": "address",
          "name": "_newBlocklister",
          "type": "address"
        }
      ],
      "name": "updateBlocklister",
      "outputs": [],
      "stateMutability": "nonpayable",
      "type": "function"
    },
    {
      "inputs": [
        {
          "internalType": "address",
          "name": "_newMasterMinter",
          "type": "address"
        }
      ],
      "name": "updateMasterMinter",
      "outputs": [],
      "stateMutability": "nonpayable",
      "type": "function"
    },
    {
      "inputs": [
        {
          "internalType": "address",
          "name": "_newPauser",
          "type": "address"
        }
      ],
      "name": "updatePauser",
      "outputs": [],
      "stateMutability": "nonpayable",
      "type": "function"
    },
    {
      "inputs": [
        {
          "internalType": "address",
          "name": "newRescuer",
          "type": "address"
        }
      ],
      "name": "updateRescuer",
      "outputs": [],
      "stateMutability": "nonpayable",
      "type": "function"
    },
    {
      "inputs": [
        {
          "internalType": "address",
          "name": "_newWhitelister",
          "type": "address"
        }
      ],
      "name": "updateWhitelister",
      "outputs": [],
      "stateMutability": "nonpayable",
      "type": "function"
    },
    {
      "inputs": [
        {
          "internalType": "address",
          "name": "newImplementation",
          "type": "address"
        }
      ],
      "name": "upgradeTo",
      "outputs": [],
      "stateMutability": "nonpayable",
      "type": "function"
    },
    {
      "inputs": [
        {
          "internalType": "address",
          "name": "newImplementation",
          "type": "address"
        },
        {
          "internalType": "bytes",
          "name": "data",
          "type": "bytes"
        }
      ],
      "name": "upgradeToAndCall",
      "outputs": [],
      "stateMutability": "payable",
      "type": "function"
    },
    {
      "inputs": [
        {
          "internalType": "address",
          "name": "_account",
          "type": "address"
        }
      ],
      "name": "whitelist",
      "outputs": [],
      "stateMutability": "nonpayable",
      "type": "function"
    },
    {
      "inputs": [],
      "name": "whitelister",
      "outputs": [
        {
          "internalType": "address",
          "name": "",
          "type": "address"
        }
      ],
      "stateMutability": "view",
      "type": "function"
    }
  ],
  "bytecode": "0x60a06040526065805460ff60a01b19169055306080526000610206553480156200002857600080fd5b5062000034336200003a565b6200008c565b603280546001600160a01b038381166001600160a01b0319831681179093556040519116919082907f8be0079c531659141344cd1fd0a4f28419497f9722a3daafe3b4186f6b6457e090600090a35050565b60805161598c620000c46000396000818161192a015281816119c0015281816127ac01528181612842015261293d015261598c6000f3fe6080604052600436106103605760003560e01c80637b134b4c116101c6578063aa271e1a116100f7578063e5a6b10f11610095578063ef55bec61161006f578063ef55bec614610ae7578063f21af00714610b07578063f2fde38b14610b27578063f9b5aa9214610b4757600080fd5b8063e5a6b10f14610a6b578063e5c7160b14610a80578063e94a010214610aa057600080fd5b8063d505accf116100d1578063d505accf146109b0578063d9169487146109d0578063dd62ed3e14610a04578063e3ee160e14610a4b57600080fd5b8063aa271e1a14610936578063b2118a8d14610970578063b54d94971461099057600080fd5b806395d89b4111610164578063a0cc6a681161013e578063a0cc6a68146108a2578063a457c2d7146108d6578063a9059cbb146108f6578063aa20e1e41461091657600080fd5b806395d89b411461084d5780639b19251a146108625780639fd0506d1461088257600080fd5b80638456cb59116101a05780638456cb59146107aa5780638a6db9c3146107bf5780638da5cb5b146107f65780638e204c431461081457600080fd5b80637b134b4c1461072a5780637ecebe001461073f5780637f2eecc31461077657600080fd5b806338a63183116102a05780634e44d9561161023e578063554bab3c11610218578063554bab3c146106925780635a049a70146106b25780635c975abb146106d257806370a08231146106f357600080fd5b80634e44d9561461064a5780634f1ef2861461066a57806352d1902d1461067d57600080fd5b80633f4ba83a1161027a5780633f4ba83a146105d557806340c10f19146105ea57806342966c681461060a578063458b35ee1461062a57600080fd5b806338a631831461055d578063395093511461057b5780633af32abf1461059b57600080fd5b80633092afd51161030d57806331b23020116102e757806331b23020146104dc5780633357162b146104fc57806335d99f351461051c5780633659cfe61461053d57600080fd5b80633092afd51461045b57806330adf81f1461047b578063313ce567146104af57600080fd5b806322758a4a1161033e57806322758a4a146103e057806323b872dd146104195780632ab600451461043957600080fd5b806306fdde0314610365578063095ea7b31461039057806318160ddd146103c0575b600080fd5b34801561037157600080fd5b5061037a610b67565b6040516103879190615368565b60405180910390f35b34801561039c57600080fd5b506103b06103ab3660046153bb565b610bf6565b6040519015158152602001610387565b3480156103cc57600080fd5b50610206545b604051908152602001610387565b3480156103ec57600080fd5b5061020a54610401906001600160a01b031681565b6040516001600160a01b039091168152602001610387565b34801561042557600080fd5b506103b06104343660046153e7565b610dd9565b34801561044557600080fd5b50610459610454366004615428565b611122565b005b34801561046757600080fd5b506103b0610476366004615428565b61124f565b34801561048757600080fd5b506103d27f6e71edae12b1b97f4d1f60370fef10105fa2faae0126114a169c64845d6126c981565b3480156104bb57600080fd5b50610201546104ca9060ff1681565b60405160ff9091168152602001610387565b3480156104e857600080fd5b506104596104f7366004615428565b611331565b34801561050857600080fd5b5061045961051736600461551b565b6113fa565b34801561052857600080fd5b5061020354610401906001600160a01b031681565b34801561054957600080fd5b50610459610558366004615428565b61191f565b34801561056957600080fd5b5060cc546001600160a01b0316610401565b34801561058757600080fd5b506103b06105963660046153bb565b611abd565b3480156105a757600080fd5b506103b06105b6366004615428565b6001600160a01b03166000908152610209602052604090205460ff1690565b3480156105e157600080fd5b50610459611cbc565b3480156105f657600080fd5b506103b06106053660046153bb565b611d8f565b34801561061657600080fd5b506104596106253660046155f7565b612251565b34801561063657600080fd5b50610459610645366004615428565b612536565b34801561065657600080fd5b506103b06106653660046153bb565b612664565b610459610678366004615610565b6127a1565b34801561068957600080fd5b506103d2612930565b34801561069e57600080fd5b506104596106ad366004615428565b6129f5565b3480156106be57600080fd5b506104596106cd366004615674565b612b22565b3480156106de57600080fd5b506065546103b090600160a01b900460ff1681565b3480156106ff57600080fd5b506103d261070e366004615428565b6001600160a01b03166000908152610204602052604090205490565b34801561073657600080fd5b506103d2612b83565b34801561074b57600080fd5b506103d261075a366004615428565b6001600160a01b03166000908152610168602052604090205490565b34801561078257600080fd5b506103d27fd099cc98ef71107a616c4f0f941f04c322d8e254fe26b3c6668db87aae413de881565b3480156107b657600080fd5b50610459612d29565b3480156107cb57600080fd5b506103d26107da366004615428565b6001600160a01b03166000908152610208602052604090205490565b34801561080257600080fd5b506032546001600160a01b0316610401565b34801561082057600080fd5b506103b061082f366004615428565b6001600160a01b031660009081526099602052604090205460ff1690565b34801561085957600080fd5b5061037a612e02565b34801561086e57600080fd5b5061045961087d366004615428565b612e10565b34801561088e57600080fd5b50606554610401906001600160a01b031681565b3480156108ae57600080fd5b506103d27f7c7c6cdb67a18743f49ec6fa9b35f50d52ed05cbed4cc592e13b44501c1a226781565b3480156108e257600080fd5b506103b06108f13660046153bb565b612ede565b34801561090257600080fd5b506103b06109113660046153bb565b61302b565b34801561092257600080fd5b50610459610931366004615428565b6131fc565b34801561094257600080fd5b506103b0610951366004615428565b6001600160a01b03166000908152610207602052604090205460ff1690565b34801561097c57600080fd5b5061045961098b3660046153e7565b61332a565b34801561099c57600080fd5b50609854610401906001600160a01b031681565b3480156109bc57600080fd5b506104596109cb3660046156c4565b6133c2565b3480156109dc57600080fd5b506103d27f158b0a9edf7a828aad02f63cd515c68ef2f50ba807396f6d12842833a159742981565b348015610a1057600080fd5b506103d2610a1f366004615732565b6001600160a01b0391821660009081526102056020908152604080832093909416825291909152205490565b348015610a5757600080fd5b50610459610a6636600461576b565b6135ac565b348015610a7757600080fd5b5061037a61379a565b348015610a8c57600080fd5b50610459610a9b366004615428565b6137a8565b348015610aac57600080fd5b506103b0610abb3660046153bb565b6001600160a01b0391909116600090815261013560209081526040808320938352929052205460ff1690565b348015610af357600080fd5b50610459610b0236600461576b565b613874565b348015610b1357600080fd5b50610459610b22366004615428565b613a53565b348015610b3357600080fd5b50610459610b42366004615428565b613b1e565b348015610b5357600080fd5b50610459610b62366004615428565b613bfd565b6101ff8054610b75906157ed565b80601f0160208091040260200160405190810160405280929190818152602001828054610ba1906157ed565b8015610bee5780601f10610bc357610100808354040283529160200191610bee565b820191906000526020600020905b815481529060010190602001808311610bd157829003601f168201915b505050505081565b606554600090600160a01b900460ff1615610c4b5760405162461bcd60e51b815260206004820152601060248201526f14185d5cd8589b194e881c185d5cd95960821b60448201526064015b60405180910390fd5b3360008181526099602052604090205460ff1615610cb95760405162461bcd60e51b815260206004820152602560248201527f426c6f636b6c69737461626c653a206163636f756e7420697320626c6f636b6c6044820152641a5cdd195960da1b6064820152608401610c42565b6001600160a01b038416600090815260996020526040902054849060ff1615610d325760405162461bcd60e51b815260206004820152602560248201527f426c6f636b6c69737461626c653a206163636f756e7420697320626c6f636b6c6044820152641a5cdd195960da1b6064820152608401610c42565b338469152d02c7e14af6800000811115610dc1576001600160a01b0382166000908152610209602052604090205460ff16610dc15760405162461bcd60e51b815260206004820152602960248201527f57686974656c69737461626c653a206163636f756e74206973206e6f742077686044820152681a5d195b1a5cdd195960ba1b6064820152608401610c42565b610dcc338888613d2a565b5060019695505050505050565b606554600090600160a01b900460ff1615610e295760405162461bcd60e51b815260206004820152601060248201526f14185d5cd8589b194e881c185d5cd95960821b6044820152606401610c42565b3360008181526099602052604090205460ff1615610e975760405162461bcd60e51b815260206004820152602560248201527f426c6f636b6c69737461626c653a206163636f756e7420697320626c6f636b6c6044820152641a5cdd195960da1b6064820152608401610c42565b6001600160a01b038516600090815260996020526040902054859060ff1615610f105760405162461bcd60e51b815260206004820152602560248201527f426c6f636b6c69737461626c653a206163636f756e7420697320626c6f636b6c6044820152641a5cdd195960da1b6064820152608401610c42565b6001600160a01b038516600090815260996020526040902054859060ff1615610f895760405162461bcd60e51b815260206004820152602560248201527f426c6f636b6c69737461626c653a206163636f756e7420697320626c6f636b6c6044820152641a5cdd195960da1b6064820152608401610c42565b868569152d02c7e14af6800000811115611018576001600160a01b0382166000908152610209602052604090205460ff166110185760405162461bcd60e51b815260206004820152602960248201527f57686974656c69737461626c653a206163636f756e74206973206e6f742077686044820152681a5d195b1a5cdd195960ba1b6064820152608401610c42565b6001600160a01b0389166000908152610205602090815260408083203384529091529020548711156110b25760405162461bcd60e51b815260206004820152602860248201527f45524332303a207472616e7366657220616d6f756e742065786365656473206160448201527f6c6c6f77616e63650000000000000000000000000000000000000000000000006064820152608401610c42565b6110bd898989613e7b565b6001600160a01b0389166000908152610205602090815260408083203384529091529020546110ed908890615870565b6001600160a01b038a166000908152610205602090815260408083203384529091529020556001955050505050509392505050565b6032546001600160a01b0316331461117c5760405162461bcd60e51b815260206004820181905260248201527f4f776e61626c653a2063616c6c6572206973206e6f7420746865206f776e65726044820152606401610c42565b6001600160a01b0381166111f85760405162461bcd60e51b815260206004820152602a60248201527f526573637561626c653a206e6577207265736375657220697320746865207a6560448201527f726f2061646472657373000000000000000000000000000000000000000000006064820152608401610c42565b60cc805473ffffffffffffffffffffffffffffffffffffffff19166001600160a01b0383169081179091556040517fe475e580d85111348e40d8ca33cfdd74c30fe1655c2d8537a13abc10065ffa5a90600090a250565b610203546000906001600160a01b031633146112d35760405162461bcd60e51b815260206004820152602960248201527f46696174546f6b656e3a2063616c6c6572206973206e6f7420746865206d617360448201527f7465724d696e74657200000000000000000000000000000000000000000000006064820152608401610c42565b6001600160a01b038216600081815261020760209081526040808320805460ff19169055610208909152808220829055517fe94479a9f7e1952cc78f2d6baab678adc1b772d936c6583def489e524cb666929190a25060015b919050565b6098546001600160a01b031633146113b15760405162461bcd60e51b815260206004820152602c60248201527f426c6f636b6c69737461626c653a2063616c6c6572206973206e6f742074686560448201527f20626c6f636b6c697374657200000000000000000000000000000000000000006064820152608401610c42565b6001600160a01b038116600081815260996020526040808220805460ff19169055517fbc3fe0fc667d12a7a22748747f024a7d971127ffc48f6622675d3e97a2591a519190a250565b61020354600160a01b900460ff161561147b5760405162461bcd60e51b815260206004820152602a60248201527f46696174546f6b656e3a20636f6e747261637420697320616c7265616479206960448201527f6e697469616c697a6564000000000000000000000000000000000000000000006064820152608401610c42565b6001600160a01b0384166114f75760405162461bcd60e51b815260206004820152602f60248201527f46696174546f6b656e3a206e6577206d61737465724d696e746572206973207460448201527f6865207a65726f206164647265737300000000000000000000000000000000006064820152608401610c42565b6001600160a01b0383166115735760405162461bcd60e51b815260206004820152602960248201527f46696174546f6b656e3a206e65772070617573657220697320746865207a657260448201527f6f206164647265737300000000000000000000000000000000000000000000006064820152608401610c42565b6001600160a01b0382166115ef5760405162461bcd60e51b815260206004820152602e60248201527f46696174546f6b656e3a206e657720626c6f636b6c697374657220697320746860448201527f65207a65726f20616464726573730000000000000000000000000000000000006064820152608401610c42565b6001600160a01b03811661166b5760405162461bcd60e51b815260206004820152602860248201527f46696174546f6b656e3a206e6577206f776e657220697320746865207a65726f60448201527f20616464726573730000000000000000000000000000000000000000000000006064820152608401610c42565b875161167f906101ff9060208b0190615228565b508651611694906102009060208a0190615228565b5085516116a990610202906020890190615228565b50610201805460ff191660ff8716179055610203805473ffffffffffffffffffffffffffffffffffffffff199081166001600160a01b03878116919091179092556065805482168684161790556098805490911691841691909117905561170f816140ad565b306000908152609960205260409020805460ff191660011790556101ff8054611879919061173c906157ed565b80601f0160208091040260200160405190810160405280929190818152602001828054611768906157ed565b80156117b55780601f1061178a576101008083540402835291602001916117b5565b820191906000526020600020905b81548152906001019060200180831161179857829003601f168201915b5050604080518082018252600181527f310000000000000000000000000000000000000000000000000000000000000060209182015285519581019590952081517f8b73c3c69bb8fe3d512ecc4cf759cc79239f7b179b0ffacaa9a75d522b39400f81880152808301919091527fc89efdaa54c0f20c7adf612882df0950f5a951637e0307cdcb4c672f298b8bc660608201524660808201523060a0808301919091528251808303909101815260c090910190915280519401939093209392505050565b60ff5546610100556101ff80546101019190611894906157ed565b61189f9291906152ac565b506040805180820190915260018082527f310000000000000000000000000000000000000000000000000000000000000060209092019182526118e59161010291615228565b505061020380547fffffffffffffffffffffff00ffffffffffffffffffffffffffffffffffffffff16600160a01b17905550505050505050565b306001600160a01b037f00000000000000000000000000000000000000000000000000000000000000001614156119be5760405162461bcd60e51b815260206004820152602c60248201527f46756e6374696f6e206d7573742062652063616c6c6564207468726f7567682060448201527f64656c656761746563616c6c00000000000000000000000000000000000000006064820152608401610c42565b7f00000000000000000000000000000000000000000000000000000000000000006001600160a01b0316611a197f360894a13ba1a3210667c828492db98dca3e2076cc3735a920a3ca505d382bbc546001600160a01b031690565b6001600160a01b031614611a955760405162461bcd60e51b815260206004820152602c60248201527f46756e6374696f6e206d7573742062652063616c6c6564207468726f7567682060448201527f6163746976652070726f787900000000000000000000000000000000000000006064820152608401610c42565b611a9e8161410c565b60408051600080825260208201909252611aba91839190614166565b50565b606554600090600160a01b900460ff1615611b0d5760405162461bcd60e51b815260206004820152601060248201526f14185d5cd8589b194e881c185d5cd95960821b6044820152606401610c42565b3360008181526099602052604090205460ff1615611b7b5760405162461bcd60e51b815260206004820152602560248201527f426c6f636b6c69737461626c653a206163636f756e7420697320626c6f636b6c6044820152641a5cdd195960da1b6064820152608401610c42565b6001600160a01b038416600090815260996020526040902054849060ff1615611bf45760405162461bcd60e51b815260206004820152602560248201527f426c6f636b6c69737461626c653a206163636f756e7420697320626c6f636b6c6044820152641a5cdd195960da1b6064820152608401610c42565b336000818152610205602090815260408083206001600160a01b038a168452909152902054611c24908690615887565b69152d02c7e14af6800000811115611cb1576001600160a01b0382166000908152610209602052604090205460ff16611cb15760405162461bcd60e51b815260206004820152602960248201527f57686974656c69737461626c653a206163636f756e74206973206e6f742077686044820152681a5d195b1a5cdd195960ba1b6064820152608401610c42565b610dcc338888614306565b6065546001600160a01b03163314611d3c5760405162461bcd60e51b815260206004820152602260248201527f5061757361626c653a2063616c6c6572206973206e6f7420746865207061757360448201527f65720000000000000000000000000000000000000000000000000000000000006064820152608401610c42565b606580547fffffffffffffffffffffff00ffffffffffffffffffffffffffffffffffffffff1690556040517f7805862f689e2f13df9f062ff482ad3ad112aca9e0847911ed832e158c525b3390600090a1565b606554600090600160a01b900460ff1615611ddf5760405162461bcd60e51b815260206004820152601060248201526f14185d5cd8589b194e881c185d5cd95960821b6044820152606401610c42565b336000908152610207602052604090205460ff16611e655760405162461bcd60e51b815260206004820152602160248201527f46696174546f6b656e3a2063616c6c6572206973206e6f742061206d696e746560448201527f72000000000000000000000000000000000000000000000000000000000000006064820152608401610c42565b3360008181526099602052604090205460ff1615611ed35760405162461bcd60e51b815260206004820152602560248201527f426c6f636b6c69737461626c653a206163636f756e7420697320626c6f636b6c6044820152641a5cdd195960da1b6064820152608401610c42565b6001600160a01b038416600090815260996020526040902054849060ff1615611f4c5760405162461bcd60e51b815260206004820152602560248201527f426c6f636b6c69737461626c653a206163636f756e7420697320626c6f636b6c6044820152641a5cdd195960da1b6064820152608401610c42565b338469152d02c7e14af6800000811115611fdb576001600160a01b0382166000908152610209602052604090205460ff16611fdb5760405162461bcd60e51b815260206004820152602960248201527f57686974656c69737461626c653a206163636f756e74206973206e6f742077686044820152681a5d195b1a5cdd195960ba1b6064820152608401610c42565b6001600160a01b0387166120575760405162461bcd60e51b815260206004820152602360248201527f46696174546f6b656e3a206d696e7420746f20746865207a65726f206164647260448201527f65737300000000000000000000000000000000000000000000000000000000006064820152608401610c42565b600086116120cd5760405162461bcd60e51b815260206004820152602960248201527f46696174546f6b656e3a206d696e7420616d6f756e74206e6f7420677265617460448201527f6572207468616e203000000000000000000000000000000000000000000000006064820152608401610c42565b3360009081526102086020526040902054808711156121545760405162461bcd60e51b815260206004820152602e60248201527f46696174546f6b656e3a206d696e7420616d6f756e742065786365656473206d60448201527f696e746572416c6c6f77616e63650000000000000000000000000000000000006064820152608401610c42565b86610206546121639190615887565b610206556001600160a01b0388166000908152610204602052604090205461218c908890615887565b6001600160a01b038916600090815261020460205260409020556121b08782615870565b336000818152610208602090815260409182902093909355518981526001600160a01b038b16927fab8530f87dc9b59234c4623bf917212bb2536d647574c8e7e5da92c2ede0c9f8910160405180910390a36040518781526001600160a01b038916906000907fddf252ad1be2c89b69c2b068fc378daa952ba7f163c4a11628f55a4df523b3ef9060200160405180910390a3506001979650505050505050565b606554600160a01b900460ff161561229e5760405162461bcd60e51b815260206004820152601060248201526f14185d5cd8589b194e881c185d5cd95960821b6044820152606401610c42565b336000908152610207602052604090205460ff166123245760405162461bcd60e51b815260206004820152602160248201527f46696174546f6b656e3a2063616c6c6572206973206e6f742061206d696e746560448201527f72000000000000000000000000000000000000000000000000000000000000006064820152608401610c42565b3360008181526099602052604090205460ff16156123925760405162461bcd60e51b815260206004820152602560248201527f426c6f636b6c69737461626c653a206163636f756e7420697320626c6f636b6c6044820152641a5cdd195960da1b6064820152608401610c42565b3360009081526102046020526040902054826124165760405162461bcd60e51b815260206004820152602960248201527f46696174546f6b656e3a206275726e20616d6f756e74206e6f7420677265617460448201527f6572207468616e203000000000000000000000000000000000000000000000006064820152608401610c42565b8281101561248c5760405162461bcd60e51b815260206004820152602660248201527f46696174546f6b656e3a206275726e20616d6f756e742065786365656473206260448201527f616c616e636500000000000000000000000000000000000000000000000000006064820152608401610c42565b826102065461249b9190615870565b610206556124a98382615870565b3360008181526102046020526040908190209290925590517fcc16f5dbb4873280815c1ee09dbd06736cffcc184412cf7a71a0fdb75d397ca5906124f09086815260200190565b60405180910390a260405183815260009033907fddf252ad1be2c89b69c2b068fc378daa952ba7f163c4a11628f55a4df523b3ef906020015b60405180910390a3505050565b6032546001600160a01b031633146125905760405162461bcd60e51b815260206004820181905260248201527f4f776e61626c653a2063616c6c6572206973206e6f7420746865206f776e65726044820152606401610c42565b6001600160a01b03811661260c5760405162461bcd60e51b815260206004820152603260248201527f57686974656c69737461626c653a206e65772077686974656c6973746572206960448201527f7320746865207a65726f206164647265737300000000000000000000000000006064820152608401610c42565b61020a805473ffffffffffffffffffffffffffffffffffffffff19166001600160a01b0383169081179091556040517f800d1de693142e2c37ef233754d1d9e7edc8ae28d34204ddf3e180c02d0b009e90600090a250565b606554600090600160a01b900460ff16156126b45760405162461bcd60e51b815260206004820152601060248201526f14185d5cd8589b194e881c185d5cd95960821b6044820152606401610c42565b610203546001600160a01b031633146127355760405162461bcd60e51b815260206004820152602960248201527f46696174546f6b656e3a2063616c6c6572206973206e6f7420746865206d617360448201527f7465724d696e74657200000000000000000000000000000000000000000000006064820152608401610c42565b6001600160a01b038316600081815261020760209081526040808320805460ff1916600117905561020882529182902085905590518481527f46980fca912ef9bcdbd36877427b6b90e860769f604e89c0e67720cece530d20910160405180910390a250600192915050565b306001600160a01b037f00000000000000000000000000000000000000000000000000000000000000001614156128405760405162461bcd60e51b815260206004820152602c60248201527f46756e6374696f6e206d7573742062652063616c6c6564207468726f7567682060448201527f64656c656761746563616c6c00000000000000000000000000000000000000006064820152608401610c42565b7f00000000000000000000000000000000000000000000000000000000000000006001600160a01b031661289b7f360894a13ba1a3210667c828492db98dca3e2076cc3735a920a3ca505d382bbc546001600160a01b031690565b6001600160a01b0316146129175760405162461bcd60e51b815260206004820152602c60248201527f46756e6374696f6e206d7573742062652063616c6c6564207468726f7567682060448201527f6163746976652070726f787900000000000000000000000000000000000000006064820152608401610c42565b6129208261410c565b61292c82826001614166565b5050565b6000306001600160a01b037f000000000000000000000000000000000000000000000000000000000000000016146129d05760405162461bcd60e51b815260206004820152603860248201527f555550535570677261646561626c653a206d757374206e6f742062652063616c60448201527f6c6564207468726f7567682064656c656761746563616c6c00000000000000006064820152608401610c42565b507f360894a13ba1a3210667c828492db98dca3e2076cc3735a920a3ca505d382bbc90565b6032546001600160a01b03163314612a4f5760405162461bcd60e51b815260206004820181905260248201527f4f776e61626c653a2063616c6c6572206973206e6f7420746865206f776e65726044820152606401610c42565b6001600160a01b038116612acb5760405162461bcd60e51b815260206004820152602860248201527f5061757361626c653a206e65772070617573657220697320746865207a65726f60448201527f20616464726573730000000000000000000000000000000000000000000000006064820152608401610c42565b6065805473ffffffffffffffffffffffffffffffffffffffff19166001600160a01b0383169081179091556040517fb80482a293ca2e013eda8683c9bd7fc8347cfdaeea5ede58cba46df502c2a60490600090a250565b606554600160a01b900460ff1615612b6f5760405162461bcd60e51b815260206004820152601060248201526f14185d5cd8589b194e881c185d5cd95960821b6044820152606401610c42565b612b7c8585858585614345565b5050505050565b600061010054461415612b97575060ff5490565b612d246101018054612ba8906157ed565b80601f0160208091040260200160405190810160405280929190818152602001828054612bd4906157ed565b8015612c215780601f10612bf657610100808354040283529160200191612c21565b820191906000526020600020905b815481529060010190602001808311612c0457829003601f168201915b50505050506101028054612c34906157ed565b80601f0160208091040260200160405190810160405280929190818152602001828054612c60906157ed565b8015612cad5780601f10612c8257610100808354040283529160200191612cad565b820191906000526020600020905b815481529060010190602001808311612c9057829003601f168201915b50505050508151602092830120815191830191909120604080517f8b73c3c69bb8fe3d512ecc4cf759cc79239f7b179b0ffacaa9a75d522b39400f818601528082019390935260608301919091524660808301523060a0808401919091528151808403909101815260c09092019052805191012090565b905090565b6065546001600160a01b03163314612da95760405162461bcd60e51b815260206004820152602260248201527f5061757361626c653a2063616c6c6572206973206e6f7420746865207061757360448201527f65720000000000000000000000000000000000000000000000000000000000006064820152608401610c42565b606580547fffffffffffffffffffffff00ffffffffffffffffffffffffffffffffffffffff16600160a01b1790556040517f6985a02210a168e66602d3235cb6db0e70f92b3ba4d376a33c0f3d9434bff62590600090a1565b6102008054610b75906157ed565b61020a546001600160a01b03163314612e915760405162461bcd60e51b815260206004820152602c60248201527f57686974656c69737461626c653a2063616c6c6572206973206e6f742074686560448201527f2077686974656c697374657200000000000000000000000000000000000000006064820152608401610c42565b6001600160a01b03811660008181526102096020526040808220805460ff19166001179055517faab7954e9d246b167ef88aeddad35209ca2489d95a8aeb59e288d9b19fae5a549190a250565b606554600090600160a01b900460ff1615612f2e5760405162461bcd60e51b815260206004820152601060248201526f14185d5cd8589b194e881c185d5cd95960821b6044820152606401610c42565b3360008181526099602052604090205460ff1615612f9c5760405162461bcd60e51b815260206004820152602560248201527f426c6f636b6c69737461626c653a206163636f756e7420697320626c6f636b6c6044820152641a5cdd195960da1b6064820152608401610c42565b6001600160a01b038416600090815260996020526040902054849060ff16156130155760405162461bcd60e51b815260206004820152602560248201527f426c6f636b6c69737461626c653a206163636f756e7420697320626c6f636b6c6044820152641a5cdd195960da1b6064820152608401610c42565b61302033868661446d565b506001949350505050565b606554600090600160a01b900460ff161561307b5760405162461bcd60e51b815260206004820152601060248201526f14185d5cd8589b194e881c185d5cd95960821b6044820152606401610c42565b3360008181526099602052604090205460ff16156130e95760405162461bcd60e51b815260206004820152602560248201527f426c6f636b6c69737461626c653a206163636f756e7420697320626c6f636b6c6044820152641a5cdd195960da1b6064820152608401610c42565b6001600160a01b038416600090815260996020526040902054849060ff16156131625760405162461bcd60e51b815260206004820152602560248201527f426c6f636b6c69737461626c653a206163636f756e7420697320626c6f636b6c6044820152641a5cdd195960da1b6064820152608401610c42565b338469152d02c7e14af68000008111156131f1576001600160a01b0382166000908152610209602052604090205460ff166131f15760405162461bcd60e51b815260206004820152602960248201527f57686974656c69737461626c653a206163636f756e74206973206e6f742077686044820152681a5d195b1a5cdd195960ba1b6064820152608401610c42565b610dcc338888613e7b565b6032546001600160a01b031633146132565760405162461bcd60e51b815260206004820181905260248201527f4f776e61626c653a2063616c6c6572206973206e6f7420746865206f776e65726044820152606401610c42565b6001600160a01b0381166132d25760405162461bcd60e51b815260206004820152602f60248201527f46696174546f6b656e3a206e6577206d61737465724d696e746572206973207460448201527f6865207a65726f206164647265737300000000000000000000000000000000006064820152608401610c42565b610203805473ffffffffffffffffffffffffffffffffffffffff19166001600160a01b0383169081179091556040517fdb66dfa9c6b8f5226fe9aac7e51897ae8ee94ac31dc70bb6c9900b2574b707e690600090a250565b60cc546001600160a01b031633146133a95760405162461bcd60e51b8152602060048201526024808201527f526573637561626c653a2063616c6c6572206973206e6f74207468652072657360448201527f63756572000000000000000000000000000000000000000000000000000000006064820152608401610c42565b6133bd6001600160a01b0384168383614543565b505050565b606554600160a01b900460ff161561340f5760405162461bcd60e51b815260206004820152601060248201526f14185d5cd8589b194e881c185d5cd95960821b6044820152606401610c42565b6001600160a01b038716600090815260996020526040902054879060ff16156134885760405162461bcd60e51b815260206004820152602560248201527f426c6f636b6c69737461626c653a206163636f756e7420697320626c6f636b6c6044820152641a5cdd195960da1b6064820152608401610c42565b6001600160a01b038716600090815260996020526040902054879060ff16156135015760405162461bcd60e51b815260206004820152602560248201527f426c6f636b6c69737461626c653a206163636f756e7420697320626c6f636b6c6044820152641a5cdd195960da1b6064820152608401610c42565b888769152d02c7e14af6800000811115613590576001600160a01b0382166000908152610209602052604090205460ff166135905760405162461bcd60e51b815260206004820152602960248201527f57686974656c69737461626c653a206163636f756e74206973206e6f742077686044820152681a5d195b1a5cdd195960ba1b6064820152608401610c42565b61359f8b8b8b8b8b8b8b6145c3565b5050505050505050505050565b606554600160a01b900460ff16156135f95760405162461bcd60e51b815260206004820152601060248201526f14185d5cd8589b194e881c185d5cd95960821b6044820152606401610c42565b6001600160a01b038916600090815260996020526040902054899060ff16156136725760405162461bcd60e51b815260206004820152602560248201527f426c6f636b6c69737461626c653a206163636f756e7420697320626c6f636b6c6044820152641a5cdd195960da1b6064820152608401610c42565b6001600160a01b038916600090815260996020526040902054899060ff16156136eb5760405162461bcd60e51b815260206004820152602560248201527f426c6f636b6c69737461626c653a206163636f756e7420697320626c6f636b6c6044820152641a5cdd195960da1b6064820152608401610c42565b8a8969152d02c7e14af680000081111561377a576001600160a01b0382166000908152610209602052604090205460ff1661377a5760405162461bcd60e51b815260206004820152602960248201527f57686974656c69737461626c653a206163636f756e74206973206e6f742077686044820152681a5d195b1a5cdd195960ba1b6064820152608401610c42565b61378b8d8d8d8d8d8d8d8d8d61472e565b50505050505050505050505050565b6102028054610b75906157ed565b6098546001600160a01b031633146138285760405162461bcd60e51b815260206004820152602c60248201527f426c6f636b6c69737461626c653a2063616c6c6572206973206e6f742074686560448201527f20626c6f636b6c697374657200000000000000000000000000000000000000006064820152608401610c42565b6001600160a01b038116600081815260996020526040808220805460ff19166001179055517f917c251bb231c4b997a420bebe47edad5c20e70715da16c38e9b2e172e44ab929190a250565b606554600160a01b900460ff16156138c15760405162461bcd60e51b815260206004820152601060248201526f14185d5cd8589b194e881c185d5cd95960821b6044820152606401610c42565b6001600160a01b038916600090815260996020526040902054899060ff161561393a5760405162461bcd60e51b815260206004820152602560248201527f426c6f636b6c69737461626c653a206163636f756e7420697320626c6f636b6c6044820152641a5cdd195960da1b6064820152608401610c42565b6001600160a01b038916600090815260996020526040902054899060ff16156139b35760405162461bcd60e51b815260206004820152602560248201527f426c6f636b6c69737461626c653a206163636f756e7420697320626c6f636b6c6044820152641a5cdd195960da1b6064820152608401610c42565b8a8969152d02c7e14af6800000811115613a42576001600160a01b0382166000908152610209602052604090205460ff16613a425760405162461bcd60e51b815260206004820152602960248201527f57686974656c69737461626c653a206163636f756e74206973206e6f742077686044820152681a5d195b1a5cdd195960ba1b6064820152608401610c42565b61378b8d8d8d8d8d8d8d8d8d61483f565b61020a546001600160a01b03163314613ad45760405162461bcd60e51b815260206004820152602c60248201527f57686974656c69737461626c653a2063616c6c6572206973206e6f742074686560448201527f2077686974656c697374657200000000000000000000000000000000000000006064820152608401610c42565b6001600160a01b03811660008181526102096020526040808220805460ff19169055517f7cdb51b0cc2e541ad7e9471c358de415f5dbaff6cca78e3393d445346c610c1b9190a250565b6032546001600160a01b03163314613b785760405162461bcd60e51b815260206004820181905260248201527f4f776e61626c653a2063616c6c6572206973206e6f7420746865206f776e65726044820152606401610c42565b6001600160a01b038116613bf45760405162461bcd60e51b815260206004820152602660248201527f4f776e61626c653a206e6577206f776e657220697320746865207a65726f206160448201527f64647265737300000000000000000000000000000000000000000000000000006064820152608401610c42565b611aba816140ad565b6032546001600160a01b03163314613c575760405162461bcd60e51b815260206004820181905260248201527f4f776e61626c653a2063616c6c6572206973206e6f7420746865206f776e65726044820152606401610c42565b6001600160a01b038116613cd35760405162461bcd60e51b815260206004820152603260248201527f426c6f636b6c69737461626c653a206e657720626c6f636b6c6973746572206960448201527f7320746865207a65726f206164647265737300000000000000000000000000006064820152608401610c42565b6098805473ffffffffffffffffffffffffffffffffffffffff19166001600160a01b0383169081179091556040517f68f10ceb42d30acc930aaaedf5b94559e14fc4f22496dc2c1b38b1b1b5231f9890600090a250565b6001600160a01b038316613da55760405162461bcd60e51b8152602060048201526024808201527f45524332303a20617070726f76652066726f6d20746865207a65726f2061646460448201527f72657373000000000000000000000000000000000000000000000000000000006064820152608401610c42565b6001600160a01b038216613e215760405162461bcd60e51b815260206004820152602260248201527f45524332303a20617070726f766520746f20746865207a65726f20616464726560448201527f73730000000000000000000000000000000000000000000000000000000000006064820152608401610c42565b6001600160a01b038381166000818152610205602090815260408083209487168084529482529182902085905590518481527f8c5be1e5ebec7d5bd14f71427d1e84f3dd0314c0f7b2291e5b200ac8c7c3b9259101612529565b6001600160a01b038316613ef75760405162461bcd60e51b815260206004820152602560248201527f45524332303a207472616e736665722066726f6d20746865207a65726f20616460448201527f64726573730000000000000000000000000000000000000000000000000000006064820152608401610c42565b6001600160a01b038216613f735760405162461bcd60e51b815260206004820152602360248201527f45524332303a207472616e7366657220746f20746865207a65726f206164647260448201527f65737300000000000000000000000000000000000000000000000000000000006064820152608401610c42565b6001600160a01b038316600090815261020460205260409020548111156140025760405162461bcd60e51b815260206004820152602660248201527f45524332303a207472616e7366657220616d6f756e742065786365656473206260448201527f616c616e636500000000000000000000000000000000000000000000000000006064820152608401610c42565b6001600160a01b03831660009081526102046020526040902054614027908290615870565b6001600160a01b03808516600090815261020460205260408082209390935590841681522054614058908290615887565b6001600160a01b038084166000818152610204602052604090819020939093559151908516907fddf252ad1be2c89b69c2b068fc378daa952ba7f163c4a11628f55a4df523b3ef906125299085815260200190565b603280546001600160a01b0383811673ffffffffffffffffffffffffffffffffffffffff19831681179093556040519116919082907f8be0079c531659141344cd1fd0a4f28419497f9722a3daafe3b4186f6b6457e090600090a35050565b6032546001600160a01b03163314611aba5760405162461bcd60e51b815260206004820181905260248201527f4f776e61626c653a2063616c6c6572206973206e6f7420746865206f776e65726044820152606401610c42565b7f4910fdfa16fed3260ed0e7147f7cc6da11a60208b5b9406d12a635614ffd91435460ff1615614199576133bd83614935565b826001600160a01b03166352d1902d6040518163ffffffff1660e01b8152600401602060405180830381865afa9250505080156141f3575060408051601f3d908101601f191682019092526141f09181019061589f565b60015b6142655760405162461bcd60e51b815260206004820152602e60248201527f45524331393637557067726164653a206e657720696d706c656d656e7461746960448201527f6f6e206973206e6f7420555550530000000000000000000000000000000000006064820152608401610c42565b7f360894a13ba1a3210667c828492db98dca3e2076cc3735a920a3ca505d382bbc81146142fa5760405162461bcd60e51b815260206004820152602960248201527f45524331393637557067726164653a20756e737570706f727465642070726f7860448201527f6961626c655555494400000000000000000000000000000000000000000000006064820152608401610c42565b506133bd8383836149f7565b6001600160a01b03808416600090815261020560209081526040808320938616835292905220546133bd9084908490614340908590615887565b613d2a565b61434f8585614a22565b604080517f158b0a9edf7a828aad02f63cd515c68ef2f50ba807396f6d12842833a159742960208201526001600160a01b0387168183018190526060808301889052835180840390910181526080909201909252906143b86143af612b83565b86868686614abd565b6001600160a01b03161461440e5760405162461bcd60e51b815260206004820152601a60248201527f454950333030393a20696e76616c6964207369676e61747572650000000000006044820152606401610c42565b6001600160a01b038616600081815261013560209081526040808320898452909152808220805460ff19166001179055518792917f1cdd46ff242716cdaa72d159d339a485b3438398348d68f09d7c8c0a59353d8191a3505050505050565b6001600160a01b03808416600090815261020560209081526040808320938616835292905220548111156145095760405162461bcd60e51b815260206004820152602560248201527f45524332303a2064656372656173656420616c6c6f77616e63652062656c6f7760448201527f207a65726f0000000000000000000000000000000000000000000000000000006064820152608401610c42565b6001600160a01b03808416600090815261020560209081526040808320938616835292905220546133bd9084908490614340908590615870565b604080516001600160a01b038416602482015260448082018490528251808303909101815260649091019091526020810180517bffffffffffffffffffffffffffffffffffffffffffffffffffffffff167fa9059cbb000000000000000000000000000000000000000000000000000000001790526133bd908490614b3a565b428410156146135760405162461bcd60e51b815260206004820152601a60248201527f454950323631323a207065726d697420697320657870697265640000000000006044820152606401610c42565b6001600160a01b03871660009081526101686020526040812080547f6e71edae12b1b97f4d1f60370fef10105fa2faae0126114a169c64845d6126c9918a918a918a919086614661836158b8565b909155506040805160208101969096526001600160a01b0394851690860152929091166060840152608083015260a082015260c0810186905260e0016040516020818303038152906040529050876001600160a01b03166146c36143af612b83565b6001600160a01b0316146147195760405162461bcd60e51b815260206004820152601a60248201527f454950323631323a20696e76616c6964207369676e61747572650000000000006044820152606401610c42565b614724888888613d2a565b5050505050505050565b61473a89858888614c1f565b604080517f7c7c6cdb67a18743f49ec6fa9b35f50d52ed05cbed4cc592e13b44501c1a226760208201526001600160a01b03808c169282019290925290891660608201526080810188905260a0810187905260c0810186905260e08101859052600090610100015b6040516020818303038152906040529050896001600160a01b03166147c86143af612b83565b6001600160a01b03161461481e5760405162461bcd60e51b815260206004820152601a60248201527f454950333030393a20696e76616c6964207369676e61747572650000000000006044820152606401610c42565b6148288a86614d13565b6148338a8a8a613e7b565b50505050505050505050565b6001600160a01b03881633146148bd5760405162461bcd60e51b815260206004820152602160248201527f454950333030393a2063616c6c6572206d75737420626520746865207061796560448201527f65000000000000000000000000000000000000000000000000000000000000006064820152608401610c42565b6148c989858888614c1f565b604080517fd099cc98ef71107a616c4f0f941f04c322d8e254fe26b3c6668db87aae413de860208201526001600160a01b03808c169282019290925290891660608201526080810188905260a0810187905260c0810186905260e08101859052600090610100016147a2565b803b6149a95760405162461bcd60e51b815260206004820152602d60248201527f455243313936373a206e657720696d706c656d656e746174696f6e206973206e60448201527f6f74206120636f6e7472616374000000000000000000000000000000000000006064820152608401610c42565b7f360894a13ba1a3210667c828492db98dca3e2076cc3735a920a3ca505d382bbc805473ffffffffffffffffffffffffffffffffffffffff19166001600160a01b0392909216919091179055565b614a0083614d6e565b600082511180614a0d5750805b156133bd57614a1c8383614dae565b50505050565b6001600160a01b03821660009081526101356020908152604080832084845290915290205460ff161561292c5760405162461bcd60e51b815260206004820152602a60248201527f454950333030393a20617574686f72697a6174696f6e2069732075736564206f60448201527f722063616e63656c6564000000000000000000000000000000000000000000006064820152608401610c42565b600080868380519060200120604051602001614b0b9291907f190100000000000000000000000000000000000000000000000000000000000081526002810192909252602282015260420190565b604051602081830303815290604052805190602001209050614b2f81878787614dda565b979650505050505050565b6000614b8f826040518060400160405280602081526020017f5361666545524332303a206c6f772d6c6576656c2063616c6c206661696c6564815250856001600160a01b0316614fbd9092919063ffffffff16565b8051909150156133bd5780806020019051810190614bad91906158f1565b6133bd5760405162461bcd60e51b815260206004820152602a60248201527f5361666545524332303a204552433230206f7065726174696f6e20646964206e60448201527f6f742073756363656564000000000000000000000000000000000000000000006064820152608401610c42565b814211614c945760405162461bcd60e51b815260206004820152602860248201527f46454950333030393a20617574686f72697a6174696f6e206973206e6f74207960448201527f65742076616c69640000000000000000000000000000000000000000000000006064820152608401610c42565b804210614d095760405162461bcd60e51b815260206004820152602160248201527f454950333030393a20617574686f72697a6174696f6e2069732065787069726560448201527f64000000000000000000000000000000000000000000000000000000000000006064820152608401610c42565b614a1c8484614a22565b6001600160a01b038216600081815261013560209081526040808320858452909152808220805460ff19166001179055518392917f98de503528ee59b575ef0c0a2576a82497bfc029a5685b209e9ec333479b10a591a35050565b614d7781614935565b6040516001600160a01b038216907fbc7cd75a20ee27fd9adebab32041f755214dbc6bffa90cc0225b39da2e5c2d3b90600090a250565b6060614dd3838360405180606001604052806027815260200161593060279139614fd4565b9392505050565b60007f7fffffffffffffffffffffffffffffff5d576e7357a4501ddfe92f46681b20a0821115614e725760405162461bcd60e51b815260206004820152602660248201527f45435265636f7665723a20696e76616c6964207369676e61747572652027732760448201527f2076616c756500000000000000000000000000000000000000000000000000006064820152608401610c42565b8360ff16601b14158015614e8a57508360ff16601c14155b15614efd5760405162461bcd60e51b815260206004820152602660248201527f45435265636f7665723a20696e76616c6964207369676e61747572652027762760448201527f2076616c756500000000000000000000000000000000000000000000000000006064820152608401610c42565b6040805160008082526020820180845288905260ff871692820192909252606081018590526080810184905260019060a0016020604051602081039080840390855afa158015614f51573d6000803e3d6000fd5b5050604051601f1901519150506001600160a01b038116614fb45760405162461bcd60e51b815260206004820152601c60248201527f45435265636f7665723a20696e76616c6964207369676e6174757265000000006044820152606401610c42565b95945050505050565b6060614fcc84846000856150bf565b949350505050565b6060833b61504a5760405162461bcd60e51b815260206004820152602660248201527f416464726573733a2064656c65676174652063616c6c20746f206e6f6e2d636f60448201527f6e747261637400000000000000000000000000000000000000000000000000006064820152608401610c42565b600080856001600160a01b0316856040516150659190615913565b600060405180830381855af49150503d80600081146150a0576040519150601f19603f3d011682016040523d82523d6000602084013e6150a5565b606091505b50915091506150b58282866151ef565b9695505050505050565b6060824710156151375760405162461bcd60e51b815260206004820152602660248201527f416464726573733a20696e73756666696369656e742062616c616e636520666f60448201527f722063616c6c00000000000000000000000000000000000000000000000000006064820152608401610c42565b843b6151855760405162461bcd60e51b815260206004820152601d60248201527f416464726573733a2063616c6c20746f206e6f6e2d636f6e74726163740000006044820152606401610c42565b600080866001600160a01b031685876040516151a19190615913565b60006040518083038185875af1925050503d80600081146151de576040519150601f19603f3d011682016040523d82523d6000602084013e6151e3565b606091505b5091509150614b2f8282865b606083156151fe575081614dd3565b82511561520e5782518084602001fd5b8160405162461bcd60e51b8152600401610c429190615368565b828054615234906157ed565b90600052602060002090601f016020900481019282615256576000855561529c565b82601f1061526f57805160ff191683800117855561529c565b8280016001018555821561529c579182015b8281111561529c578251825591602001919060010190615281565b506152a8929150615327565b5090565b8280546152b8906157ed565b90600052602060002090601f0160209004810192826152da576000855561529c565b82601f106152eb578054855561529c565b8280016001018555821561529c57600052602060002091601f016020900482015b8281111561529c57825482559160010191906001019061530c565b5b808211156152a85760008155600101615328565b60005b8381101561535757818101518382015260200161533f565b83811115614a1c5750506000910152565b602081526000825180602084015261538781604085016020870161533c565b601f01601f19169190910160400192915050565b6001600160a01b0381168114611aba57600080fd5b803561132c8161539b565b600080604083850312156153ce57600080fd5b82356153d98161539b565b946020939093013593505050565b6000806000606084860312156153fc57600080fd5b83356154078161539b565b925060208401356154178161539b565b929592945050506040919091013590565b60006020828403121561543a57600080fd5b8135614dd38161539b565b7f4e487b7100000000000000000000000000000000000000000000000000000000600052604160045260246000fd5b600067ffffffffffffffff8084111561548f5761548f615445565b604051601f8501601f19908116603f011681019082821181831017156154b7576154b7615445565b816040528093508581528686860111156154d057600080fd5b858560208301376000602087830101525050509392505050565b600082601f8301126154fb57600080fd5b614dd383833560208501615474565b803560ff8116811461132c57600080fd5b600080600080600080600080610100898b03121561553857600080fd5b883567ffffffffffffffff8082111561555057600080fd5b61555c8c838d016154ea565b995060208b013591508082111561557257600080fd5b61557e8c838d016154ea565b985060408b013591508082111561559457600080fd5b506155a18b828c016154ea565b9650506155b060608a0161550a565b94506155be60808a016153b0565b93506155cc60a08a016153b0565b92506155da60c08a016153b0565b91506155e860e08a016153b0565b90509295985092959890939650565b60006020828403121561560957600080fd5b5035919050565b6000806040838503121561562357600080fd5b823561562e8161539b565b9150602083013567ffffffffffffffff81111561564a57600080fd5b8301601f8101851361565b57600080fd5b61566a85823560208401615474565b9150509250929050565b600080600080600060a0868803121561568c57600080fd5b85356156978161539b565b9450602086013593506156ac6040870161550a565b94979396509394606081013594506080013592915050565b600080600080600080600060e0888a0312156156df57600080fd5b87356156ea8161539b565b965060208801356156fa8161539b565b955060408801359450606088013593506157166080890161550a565b925060a0880135915060c0880135905092959891949750929550565b6000806040838503121561574557600080fd5b82356157508161539b565b915060208301356157608161539b565b809150509250929050565b60008060008060008060008060006101208a8c03121561578a57600080fd5b89356157958161539b565b985060208a01356157a58161539b565b975060408a0135965060608a0135955060808a0135945060a08a013593506157cf60c08b0161550a565b925060e08a013591506101008a013590509295985092959850929598565b600181811c9082168061580157607f821691505b6020821081141561583b577f4e487b7100000000000000000000000000000000000000000000000000000000600052602260045260246000fd5b50919050565b7f4e487b7100000000000000000000000000000000000000000000000000000000600052601160045260246000fd5b60008282101561588257615882615841565b500390565b6000821982111561589a5761589a615841565b500190565b6000602082840312156158b157600080fd5b5051919050565b60007fffffffffffffffffffffffffffffffffffffffffffffffffffffffffffffffff8214156158ea576158ea615841565b5060010190565b60006020828403121561590357600080fd5b81518015158114614dd357600080fd5b6000825161592581846020870161533c565b919091019291505056fe416464726573733a206c6f772d6c6576656c2064656c65676174652063616c6c206661696c6564a2646970667358221220371743ccafdc15f45a426e166e157cbc781fedfbd8c827b206ea6502d6875fcf64736f6c634300080b0033",
  "linkReferences": {},
  "deployedLinkReferences": {}
}